{
	"contracts/3_Conditionals.sol": {
		"Conditionals": {
			"abi": [
				{
					"inputs": [
						{
							"internalType": "uint256",
							"name": "newAge",
							"type": "uint256"
						}
					],
					"stateMutability": "nonpayable",
					"type": "constructor"
				},
				{
					"anonymous": false,
					"inputs": [
						{
							"indexed": false,
							"internalType": "bool",
							"name": "isOk",
							"type": "bool"
						},
						{
							"indexed": false,
							"internalType": "uint256",
							"name": "age",
							"type": "uint256"
						},
						{
							"indexed": false,
							"internalType": "string",
							"name": "message",
							"type": "string"
						}
					],
					"name": "IsOkToEnter",
					"type": "event"
				},
				{
					"inputs": [],
					"name": "checkAge",
					"outputs": [],
					"stateMutability": "nonpayable",
					"type": "function"
				},
				{
					"inputs": [],
					"name": "myAge",
					"outputs": [
						{
							"internalType": "uint256",
							"name": "",
							"type": "uint256"
						}
					],
					"stateMutability": "view",
					"type": "function"
				}
			],
			"devdoc": {
				"kind": "dev",
				"methods": {},
				"version": 1
			},
			"evm": {
				"assembly": "    /* \"contracts/3_Conditionals.sol\":360:1303  contract Conditionals {... */\n  mstore(0x40, 0x80)\n    /* \"contracts/3_Conditionals.sol\":664:719  constructor(uint newAge){... */\n  callvalue\n  dup1\n  iszero\n  tag_1\n  jumpi\n  0x00\n  dup1\n  revert\ntag_1:\n  pop\n  mload(0x40)\n  sub(codesize, bytecodeSize)\n  dup1\n  bytecodeSize\n  dup4\n  codecopy\n  dup2\n  dup2\n  add\n  0x40\n  mstore\n  dup2\n  add\n  swap1\n  tag_2\n  swap2\n  swap1\n  tag_3\n  jump\t// in\ntag_2:\n    /* \"contracts/3_Conditionals.sol\":706:712  newAge */\n  dup1\n    /* \"contracts/3_Conditionals.sol\":698:703  myAge */\n  0x00\n    /* \"contracts/3_Conditionals.sol\":698:712  myAge = newAge */\n  dup2\n  swap1\n  sstore\n  pop\n    /* \"contracts/3_Conditionals.sol\":664:719  constructor(uint newAge){... */\n  pop\n    /* \"contracts/3_Conditionals.sol\":360:1303  contract Conditionals {... */\n  jump(tag_6)\n    /* \"#utility.yul\":88:205   */\ntag_8:\n    /* \"#utility.yul\":197:198   */\n  0x00\n    /* \"#utility.yul\":194:195   */\n  dup1\n    /* \"#utility.yul\":187:199   */\n  revert\n    /* \"#utility.yul\":334:411   */\ntag_10:\n    /* \"#utility.yul\":371:378   */\n  0x00\n    /* \"#utility.yul\":400:405   */\n  dup2\n    /* \"#utility.yul\":389:405   */\n  swap1\n  pop\n    /* \"#utility.yul\":334:411   */\n  swap2\n  swap1\n  pop\n  jump\t// out\n    /* \"#utility.yul\":417:539   */\ntag_11:\n    /* \"#utility.yul\":490:514   */\n  tag_19\n    /* \"#utility.yul\":508:513   */\n  dup2\n    /* \"#utility.yul\":490:514   */\n  tag_10\n  jump\t// in\ntag_19:\n    /* \"#utility.yul\":483:488   */\n  dup2\n    /* \"#utility.yul\":480:515   */\n  eq\n    /* \"#utility.yul\":470:533   */\n  tag_20\n  jumpi\n    /* \"#utility.yul\":529:530   */\n  0x00\n    /* \"#utility.yul\":526:527   */\n  dup1\n    /* \"#utility.yul\":519:531   */\n  revert\n    /* \"#utility.yul\":470:533   */\ntag_20:\n    /* \"#utility.yul\":417:539   */\n  pop\n  jump\t// out\n    /* \"#utility.yul\":545:688   */\ntag_12:\n    /* \"#utility.yul\":602:607   */\n  0x00\n    /* \"#utility.yul\":633:639   */\n  dup2\n    /* \"#utility.yul\":627:640   */\n  mload\n    /* \"#utility.yul\":618:640   */\n  swap1\n  pop\n    /* \"#utility.yul\":649:682   */\n  tag_22\n    /* \"#utility.yul\":676:681   */\n  dup2\n    /* \"#utility.yul\":649:682   */\n  tag_11\n  jump\t// in\ntag_22:\n    /* \"#utility.yul\":545:688   */\n  swap3\n  swap2\n  pop\n  pop\n  jump\t// out\n    /* \"#utility.yul\":694:1045   */\ntag_3:\n    /* \"#utility.yul\":764:770   */\n  0x00\n    /* \"#utility.yul\":813:815   */\n  0x20\n    /* \"#utility.yul\":801:810   */\n  dup3\n    /* \"#utility.yul\":792:799   */\n  dup5\n    /* \"#utility.yul\":788:811   */\n  sub\n    /* \"#utility.yul\":784:816   */\n  slt\n    /* \"#utility.yul\":781:900   */\n  iszero\n  tag_24\n  jumpi\n    /* \"#utility.yul\":819:898   */\n  tag_25\n  tag_8\n  jump\t// in\ntag_25:\n    /* \"#utility.yul\":781:900   */\ntag_24:\n    /* \"#utility.yul\":939:940   */\n  0x00\n    /* \"#utility.yul\":964:1028   */\n  tag_26\n    /* \"#utility.yul\":1020:1027   */\n  dup5\n    /* \"#utility.yul\":1011:1017   */\n  dup3\n    /* \"#utility.yul\":1000:1009   */\n  dup6\n    /* \"#utility.yul\":996:1018   */\n  add\n    /* \"#utility.yul\":964:1028   */\n  tag_12\n  jump\t// in\ntag_26:\n    /* \"#utility.yul\":954:1028   */\n  swap2\n  pop\n    /* \"#utility.yul\":910:1038   */\n  pop\n    /* \"#utility.yul\":694:1045   */\n  swap3\n  swap2\n  pop\n  pop\n  jump\t// out\n    /* \"contracts/3_Conditionals.sol\":360:1303  contract Conditionals {... */\ntag_6:\n  dataSize(sub_0)\n  dup1\n  dataOffset(sub_0)\n  0x00\n  codecopy\n  0x00\n  return\nstop\n\nsub_0: assembly {\n        /* \"contracts/3_Conditionals.sol\":360:1303  contract Conditionals {... */\n      mstore(0x40, 0x80)\n      callvalue\n      dup1\n      iszero\n      tag_1\n      jumpi\n      0x00\n      dup1\n      revert\n    tag_1:\n      pop\n      jumpi(tag_2, lt(calldatasize, 0x04))\n      shr(0xe0, calldataload(0x00))\n      dup1\n      0x6051e322\n      eq\n      tag_3\n      jumpi\n      dup1\n      0x741983c0\n      eq\n      tag_4\n      jumpi\n    tag_2:\n      0x00\n      dup1\n      revert\n        /* \"contracts/3_Conditionals.sol\":389:406  uint public myAge */\n    tag_3:\n      tag_5\n      tag_6\n      jump\t// in\n    tag_5:\n      mload(0x40)\n      tag_7\n      swap2\n      swap1\n      tag_8\n      jump\t// in\n    tag_7:\n      mload(0x40)\n      dup1\n      swap2\n      sub\n      swap1\n      return\n        /* \"contracts/3_Conditionals.sol\":725:1293  function checkAge() public  {... */\n    tag_4:\n      tag_9\n      tag_10\n      jump\t// in\n    tag_9:\n      stop\n        /* \"contracts/3_Conditionals.sol\":389:406  uint public myAge */\n    tag_6:\n      sload(0x00)\n      dup2\n      jump\t// out\n        /* \"contracts/3_Conditionals.sol\":725:1293  function checkAge() public  {... */\n    tag_10:\n        /* \"contracts/3_Conditionals.sol\":780:781  0 */\n      0x00\n        /* \"contracts/3_Conditionals.sol\":771:776  myAge */\n      dup1\n      sload\n        /* \"contracts/3_Conditionals.sol\":771:781  myAge != 0 */\n      sub\n        /* \"contracts/3_Conditionals.sol\":763:810  require(myAge != 0, \"myAge is not initialized\") */\n      tag_12\n      jumpi\n      mload(0x40)\n      0x08c379a000000000000000000000000000000000000000000000000000000000\n      dup2\n      mstore\n      0x04\n      add\n      tag_13\n      swap1\n      tag_14\n      jump\t// in\n    tag_13:\n      mload(0x40)\n      dup1\n      swap2\n      sub\n      swap1\n      revert\n    tag_12:\n        /* \"contracts/3_Conditionals.sol\":1117:1119  18 */\n      0x12\n        /* \"contracts/3_Conditionals.sol\":1109:1114  myAge */\n      sload(0x00)\n        /* \"contracts/3_Conditionals.sol\":1109:1119  myAge > 18 */\n      gt\n        /* \"contracts/3_Conditionals.sol\":1106:1287  if(myAge > 18){... */\n      iszero\n      tag_15\n      jumpi\n        /* \"contracts/3_Conditionals.sol\":1140:1188  IsOkToEnter(true, myAge,\"he/she is ok to enter\") */\n      0x8fdb9bafb27c6ce5b7fff911f44d3055b1a10026ee0c3962812948538893947d\n        /* \"contracts/3_Conditionals.sol\":1152:1156  true */\n      0x01\n        /* \"contracts/3_Conditionals.sol\":1158:1163  myAge */\n      sload(0x00)\n        /* \"contracts/3_Conditionals.sol\":1140:1188  IsOkToEnter(true, myAge,\"he/she is ok to enter\") */\n      mload(0x40)\n      tag_16\n      swap3\n      swap2\n      swap1\n      tag_17\n      jump\t// in\n    tag_16:\n      mload(0x40)\n      dup1\n      swap2\n      sub\n      swap1\n      log1\n        /* \"contracts/3_Conditionals.sol\":1106:1287  if(myAge > 18){... */\n      jump(tag_18)\n    tag_15:\n        /* \"contracts/3_Conditionals.sol\":1223:1276  IsOkToEnter(false, myAge,\"he/she is not ok to enter\") */\n      0x8fdb9bafb27c6ce5b7fff911f44d3055b1a10026ee0c3962812948538893947d\n        /* \"contracts/3_Conditionals.sol\":1235:1240  false */\n      0x00\n        /* \"contracts/3_Conditionals.sol\":1242:1247  myAge */\n      dup1\n      sload\n        /* \"contracts/3_Conditionals.sol\":1223:1276  IsOkToEnter(false, myAge,\"he/she is not ok to enter\") */\n      mload(0x40)\n      tag_19\n      swap3\n      swap2\n      swap1\n      tag_20\n      jump\t// in\n    tag_19:\n      mload(0x40)\n      dup1\n      swap2\n      sub\n      swap1\n      log1\n        /* \"contracts/3_Conditionals.sol\":1106:1287  if(myAge > 18){... */\n    tag_18:\n        /* \"contracts/3_Conditionals.sol\":725:1293  function checkAge() public  {... */\n      jump\t// out\n        /* \"#utility.yul\":7:84   */\n    tag_21:\n        /* \"#utility.yul\":44:51   */\n      0x00\n        /* \"#utility.yul\":73:78   */\n      dup2\n        /* \"#utility.yul\":62:78   */\n      swap1\n      pop\n        /* \"#utility.yul\":7:84   */\n      swap2\n      swap1\n      pop\n      jump\t// out\n        /* \"#utility.yul\":90:208   */\n    tag_22:\n        /* \"#utility.yul\":177:201   */\n      tag_35\n        /* \"#utility.yul\":195:200   */\n      dup2\n        /* \"#utility.yul\":177:201   */\n      tag_21\n      jump\t// in\n    tag_35:\n        /* \"#utility.yul\":172:175   */\n      dup3\n        /* \"#utility.yul\":165:202   */\n      mstore\n        /* \"#utility.yul\":90:208   */\n      pop\n      pop\n      jump\t// out\n        /* \"#utility.yul\":214:436   */\n    tag_8:\n        /* \"#utility.yul\":307:311   */\n      0x00\n        /* \"#utility.yul\":345:347   */\n      0x20\n        /* \"#utility.yul\":334:343   */\n      dup3\n        /* \"#utility.yul\":330:348   */\n      add\n        /* \"#utility.yul\":322:348   */\n      swap1\n      pop\n        /* \"#utility.yul\":358:429   */\n      tag_37\n        /* \"#utility.yul\":426:427   */\n      0x00\n        /* \"#utility.yul\":415:424   */\n      dup4\n        /* \"#utility.yul\":411:428   */\n      add\n        /* \"#utility.yul\":402:408   */\n      dup5\n        /* \"#utility.yul\":358:429   */\n      tag_22\n      jump\t// in\n    tag_37:\n        /* \"#utility.yul\":214:436   */\n      swap3\n      swap2\n      pop\n      pop\n      jump\t// out\n        /* \"#utility.yul\":442:611   */\n    tag_23:\n        /* \"#utility.yul\":526:537   */\n      0x00\n        /* \"#utility.yul\":560:566   */\n      dup3\n        /* \"#utility.yul\":555:558   */\n      dup3\n        /* \"#utility.yul\":548:567   */\n      mstore\n        /* \"#utility.yul\":600:604   */\n      0x20\n        /* \"#utility.yul\":595:598   */\n      dup3\n        /* \"#utility.yul\":591:605   */\n      add\n        /* \"#utility.yul\":576:605   */\n      swap1\n      pop\n        /* \"#utility.yul\":442:611   */\n      swap3\n      swap2\n      pop\n      pop\n      jump\t// out\n        /* \"#utility.yul\":617:791   */\n    tag_24:\n        /* \"#utility.yul\":757:783   */\n      0x6d79416765206973206e6f7420696e697469616c697a65640000000000000000\n        /* \"#utility.yul\":753:754   */\n      0x00\n        /* \"#utility.yul\":745:751   */\n      dup3\n        /* \"#utility.yul\":741:755   */\n      add\n        /* \"#utility.yul\":734:784   */\n      mstore\n        /* \"#utility.yul\":617:791   */\n      pop\n      jump\t// out\n        /* \"#utility.yul\":797:1163   */\n    tag_25:\n        /* \"#utility.yul\":939:942   */\n      0x00\n        /* \"#utility.yul\":960:1027   */\n      tag_41\n        /* \"#utility.yul\":1024:1026   */\n      0x18\n        /* \"#utility.yul\":1019:1022   */\n      dup4\n        /* \"#utility.yul\":960:1027   */\n      tag_23\n      jump\t// in\n    tag_41:\n        /* \"#utility.yul\":953:1027   */\n      swap2\n      pop\n        /* \"#utility.yul\":1036:1129   */\n      tag_42\n        /* \"#utility.yul\":1125:1128   */\n      dup3\n        /* \"#utility.yul\":1036:1129   */\n      tag_24\n      jump\t// in\n    tag_42:\n        /* \"#utility.yul\":1154:1156   */\n      0x20\n        /* \"#utility.yul\":1149:1152   */\n      dup3\n        /* \"#utility.yul\":1145:1157   */\n      add\n        /* \"#utility.yul\":1138:1157   */\n      swap1\n      pop\n        /* \"#utility.yul\":797:1163   */\n      swap2\n      swap1\n      pop\n      jump\t// out\n        /* \"#utility.yul\":1169:1588   */\n    tag_14:\n        /* \"#utility.yul\":1335:1339   */\n      0x00\n        /* \"#utility.yul\":1373:1375   */\n      0x20\n        /* \"#utility.yul\":1362:1371   */\n      dup3\n        /* \"#utility.yul\":1358:1376   */\n      add\n        /* \"#utility.yul\":1350:1376   */\n      swap1\n      pop\n        /* \"#utility.yul\":1422:1431   */\n      dup2\n        /* \"#utility.yul\":1416:1420   */\n      dup2\n        /* \"#utility.yul\":1412:1432   */\n      sub\n        /* \"#utility.yul\":1408:1409   */\n      0x00\n        /* \"#utility.yul\":1397:1406   */\n      dup4\n        /* \"#utility.yul\":1393:1410   */\n      add\n        /* \"#utility.yul\":1386:1433   */\n      mstore\n        /* \"#utility.yul\":1450:1581   */\n      tag_44\n        /* \"#utility.yul\":1576:1580   */\n      dup2\n        /* \"#utility.yul\":1450:1581   */\n      tag_25\n      jump\t// in\n    tag_44:\n        /* \"#utility.yul\":1442:1581   */\n      swap1\n      pop\n        /* \"#utility.yul\":1169:1588   */\n      swap2\n      swap1\n      pop\n      jump\t// out\n        /* \"#utility.yul\":1594:1684   */\n    tag_26:\n        /* \"#utility.yul\":1628:1635   */\n      0x00\n        /* \"#utility.yul\":1671:1676   */\n      dup2\n        /* \"#utility.yul\":1664:1677   */\n      iszero\n        /* \"#utility.yul\":1657:1678   */\n      iszero\n        /* \"#utility.yul\":1646:1678   */\n      swap1\n      pop\n        /* \"#utility.yul\":1594:1684   */\n      swap2\n      swap1\n      pop\n      jump\t// out\n        /* \"#utility.yul\":1690:1799   */\n    tag_27:\n        /* \"#utility.yul\":1771:1792   */\n      tag_47\n        /* \"#utility.yul\":1786:1791   */\n      dup2\n        /* \"#utility.yul\":1771:1792   */\n      tag_26\n      jump\t// in\n    tag_47:\n        /* \"#utility.yul\":1766:1769   */\n      dup3\n        /* \"#utility.yul\":1759:1793   */\n      mstore\n        /* \"#utility.yul\":1690:1799   */\n      pop\n      pop\n      jump\t// out\n        /* \"#utility.yul\":1805:1976   */\n    tag_28:\n        /* \"#utility.yul\":1945:1968   */\n      0x68652f736865206973206f6b20746f20656e7465720000000000000000000000\n        /* \"#utility.yul\":1941:1942   */\n      0x00\n        /* \"#utility.yul\":1933:1939   */\n      dup3\n        /* \"#utility.yul\":1929:1943   */\n      add\n        /* \"#utility.yul\":1922:1969   */\n      mstore\n        /* \"#utility.yul\":1805:1976   */\n      pop\n      jump\t// out\n        /* \"#utility.yul\":1982:2348   */\n    tag_29:\n        /* \"#utility.yul\":2124:2127   */\n      0x00\n        /* \"#utility.yul\":2145:2212   */\n      tag_50\n        /* \"#utility.yul\":2209:2211   */\n      0x15\n        /* \"#utility.yul\":2204:2207   */\n      dup4\n        /* \"#utility.yul\":2145:2212   */\n      tag_23\n      jump\t// in\n    tag_50:\n        /* \"#utility.yul\":2138:2212   */\n      swap2\n      pop\n        /* \"#utility.yul\":2221:2314   */\n      tag_51\n        /* \"#utility.yul\":2310:2313   */\n      dup3\n        /* \"#utility.yul\":2221:2314   */\n      tag_28\n      jump\t// in\n    tag_51:\n        /* \"#utility.yul\":2339:2341   */\n      0x20\n        /* \"#utility.yul\":2334:2337   */\n      dup3\n        /* \"#utility.yul\":2330:2342   */\n      add\n        /* \"#utility.yul\":2323:2342   */\n      swap1\n      pop\n        /* \"#utility.yul\":1982:2348   */\n      swap2\n      swap1\n      pop\n      jump\t// out\n        /* \"#utility.yul\":2354:2981   */\n    tag_17:\n        /* \"#utility.yul\":2570:2574   */\n      0x00\n        /* \"#utility.yul\":2608:2610   */\n      0x60\n        /* \"#utility.yul\":2597:2606   */\n      dup3\n        /* \"#utility.yul\":2593:2611   */\n      add\n        /* \"#utility.yul\":2585:2611   */\n      swap1\n      pop\n        /* \"#utility.yul\":2621:2686   */\n      tag_53\n        /* \"#utility.yul\":2683:2684   */\n      0x00\n        /* \"#utility.yul\":2672:2681   */\n      dup4\n        /* \"#utility.yul\":2668:2685   */\n      add\n        /* \"#utility.yul\":2659:2665   */\n      dup6\n        /* \"#utility.yul\":2621:2686   */\n      tag_27\n      jump\t// in\n    tag_53:\n        /* \"#utility.yul\":2696:2768   */\n      tag_54\n        /* \"#utility.yul\":2764:2766   */\n      0x20\n        /* \"#utility.yul\":2753:2762   */\n      dup4\n        /* \"#utility.yul\":2749:2767   */\n      add\n        /* \"#utility.yul\":2740:2746   */\n      dup5\n        /* \"#utility.yul\":2696:2768   */\n      tag_22\n      jump\t// in\n    tag_54:\n        /* \"#utility.yul\":2815:2824   */\n      dup2\n        /* \"#utility.yul\":2809:2813   */\n      dup2\n        /* \"#utility.yul\":2805:2825   */\n      sub\n        /* \"#utility.yul\":2800:2802   */\n      0x40\n        /* \"#utility.yul\":2789:2798   */\n      dup4\n        /* \"#utility.yul\":2785:2803   */\n      add\n        /* \"#utility.yul\":2778:2826   */\n      mstore\n        /* \"#utility.yul\":2843:2974   */\n      tag_55\n        /* \"#utility.yul\":2969:2973   */\n      dup2\n        /* \"#utility.yul\":2843:2974   */\n      tag_29\n      jump\t// in\n    tag_55:\n        /* \"#utility.yul\":2835:2974   */\n      swap1\n      pop\n        /* \"#utility.yul\":2354:2981   */\n      swap4\n      swap3\n      pop\n      pop\n      pop\n      jump\t// out\n        /* \"#utility.yul\":2987:3162   */\n    tag_30:\n        /* \"#utility.yul\":3127:3154   */\n      0x68652f736865206973206e6f74206f6b20746f20656e74657200000000000000\n        /* \"#utility.yul\":3123:3124   */\n      0x00\n        /* \"#utility.yul\":3115:3121   */\n      dup3\n        /* \"#utility.yul\":3111:3125   */\n      add\n        /* \"#utility.yul\":3104:3155   */\n      mstore\n        /* \"#utility.yul\":2987:3162   */\n      pop\n      jump\t// out\n        /* \"#utility.yul\":3168:3534   */\n    tag_31:\n        /* \"#utility.yul\":3310:3313   */\n      0x00\n        /* \"#utility.yul\":3331:3398   */\n      tag_58\n        /* \"#utility.yul\":3395:3397   */\n      0x19\n        /* \"#utility.yul\":3390:3393   */\n      dup4\n        /* \"#utility.yul\":3331:3398   */\n      tag_23\n      jump\t// in\n    tag_58:\n        /* \"#utility.yul\":3324:3398   */\n      swap2\n      pop\n        /* \"#utility.yul\":3407:3500   */\n      tag_59\n        /* \"#utility.yul\":3496:3499   */\n      dup3\n        /* \"#utility.yul\":3407:3500   */\n      tag_30\n      jump\t// in\n    tag_59:\n        /* \"#utility.yul\":3525:3527   */\n      0x20\n        /* \"#utility.yul\":3520:3523   */\n      dup3\n        /* \"#utility.yul\":3516:3528   */\n      add\n        /* \"#utility.yul\":3509:3528   */\n      swap1\n      pop\n        /* \"#utility.yul\":3168:3534   */\n      swap2\n      swap1\n      pop\n      jump\t// out\n        /* \"#utility.yul\":3540:4167   */\n    tag_20:\n        /* \"#utility.yul\":3756:3760   */\n      0x00\n        /* \"#utility.yul\":3794:3796   */\n      0x60\n        /* \"#utility.yul\":3783:3792   */\n      dup3\n        /* \"#utility.yul\":3779:3797   */\n      add\n        /* \"#utility.yul\":3771:3797   */\n      swap1\n      pop\n        /* \"#utility.yul\":3807:3872   */\n      tag_61\n        /* \"#utility.yul\":3869:3870   */\n      0x00\n        /* \"#utility.yul\":3858:3867   */\n      dup4\n        /* \"#utility.yul\":3854:3871   */\n      add\n        /* \"#utility.yul\":3845:3851   */\n      dup6\n        /* \"#utility.yul\":3807:3872   */\n      tag_27\n      jump\t// in\n    tag_61:\n        /* \"#utility.yul\":3882:3954   */\n      tag_62\n        /* \"#utility.yul\":3950:3952   */\n      0x20\n        /* \"#utility.yul\":3939:3948   */\n      dup4\n        /* \"#utility.yul\":3935:3953   */\n      add\n        /* \"#utility.yul\":3926:3932   */\n      dup5\n        /* \"#utility.yul\":3882:3954   */\n      tag_22\n      jump\t// in\n    tag_62:\n        /* \"#utility.yul\":4001:4010   */\n      dup2\n        /* \"#utility.yul\":3995:3999   */\n      dup2\n        /* \"#utility.yul\":3991:4011   */\n      sub\n        /* \"#utility.yul\":3986:3988   */\n      0x40\n        /* \"#utility.yul\":3975:3984   */\n      dup4\n        /* \"#utility.yul\":3971:3989   */\n      add\n        /* \"#utility.yul\":3964:4012   */\n      mstore\n        /* \"#utility.yul\":4029:4160   */\n      tag_63\n        /* \"#utility.yul\":4155:4159   */\n      dup2\n        /* \"#utility.yul\":4029:4160   */\n      tag_31\n      jump\t// in\n    tag_63:\n        /* \"#utility.yul\":4021:4160   */\n      swap1\n      pop\n        /* \"#utility.yul\":3540:4167   */\n      swap4\n      swap3\n      pop\n      pop\n      pop\n      jump\t// out\n\n    auxdata: 0xa264697066735822122052d876bb47856deafd2d2a6af36d5801e7a2a3a793040290d2e88980a7d2192d64736f6c634300081a0033\n}\n",
				"bytecode": {
					"linkReferences": {},
					"object": "6080604052348015600e575f80fd5b506040516103ce3803806103ce8339818101604052810190602e9190606b565b805f81905550506091565b5f80fd5b5f819050919050565b604d81603d565b81146056575f80fd5b50565b5f815190506065816046565b92915050565b5f60208284031215607d57607c6039565b5b5f6088848285016059565b91505092915050565b6103308061009e5f395ff3fe608060405234801561000f575f80fd5b5060043610610034575f3560e01c80636051e32214610038578063741983c014610056575b5f80fd5b610040610060565b60405161004d9190610147565b60405180910390f35b61005e610065565b005b5f5481565b5f8054036100a8576040517f08c379a000000000000000000000000000000000000000000000000000000000815260040161009f906101ba565b60405180910390fd5b60125f5411156100f2577f8fdb9bafb27c6ce5b7fff911f44d3055b1a10026ee0c3962812948538893947d60015f546040516100e592919061023c565b60405180910390a161012d565b7f8fdb9bafb27c6ce5b7fff911f44d3055b1a10026ee0c3962812948538893947d5f80546040516101249291906102c0565b60405180910390a15b565b5f819050919050565b6101418161012f565b82525050565b5f60208201905061015a5f830184610138565b92915050565b5f82825260208201905092915050565b7f6d79416765206973206e6f7420696e697469616c697a656400000000000000005f82015250565b5f6101a4601883610160565b91506101af82610170565b602082019050919050565b5f6020820190508181035f8301526101d181610198565b9050919050565b5f8115159050919050565b6101ec816101d8565b82525050565b7f68652f736865206973206f6b20746f20656e74657200000000000000000000005f82015250565b5f610226601583610160565b9150610231826101f2565b602082019050919050565b5f60608201905061024f5f8301856101e3565b61025c6020830184610138565b818103604083015261026d8161021a565b90509392505050565b7f68652f736865206973206e6f74206f6b20746f20656e746572000000000000005f82015250565b5f6102aa601983610160565b91506102b582610276565b602082019050919050565b5f6060820190506102d35f8301856101e3565b6102e06020830184610138565b81810360408301526102f18161029e565b9050939250505056fea264697066735822122052d876bb47856deafd2d2a6af36d5801e7a2a3a793040290d2e88980a7d2192d64736f6c634300081a0033",
					"opcodes": "PUSH1 0x80 PUSH1 0x40 MSTORE CALLVALUE DUP1 ISZERO PUSH1 0xE JUMPI PUSH0 DUP1 REVERT JUMPDEST POP PUSH1 0x40 MLOAD PUSH2 0x3CE CODESIZE SUB DUP1 PUSH2 0x3CE DUP4 CODECOPY DUP2 DUP2 ADD PUSH1 0x40 MSTORE DUP2 ADD SWAP1 PUSH1 0x2E SWAP2 SWAP1 PUSH1 0x6B JUMP JUMPDEST DUP1 PUSH0 DUP2 SWAP1 SSTORE POP POP PUSH1 0x91 JUMP JUMPDEST PUSH0 DUP1 REVERT JUMPDEST PUSH0 DUP2 SWAP1 POP SWAP2 SWAP1 POP JUMP JUMPDEST PUSH1 0x4D DUP2 PUSH1 0x3D JUMP JUMPDEST DUP2 EQ PUSH1 0x56 JUMPI PUSH0 DUP1 REVERT JUMPDEST POP JUMP JUMPDEST PUSH0 DUP2 MLOAD SWAP1 POP PUSH1 0x65 DUP2 PUSH1 0x46 JUMP JUMPDEST SWAP3 SWAP2 POP POP JUMP JUMPDEST PUSH0 PUSH1 0x20 DUP3 DUP5 SUB SLT ISZERO PUSH1 0x7D JUMPI PUSH1 0x7C PUSH1 0x39 JUMP JUMPDEST JUMPDEST PUSH0 PUSH1 0x88 DUP5 DUP3 DUP6 ADD PUSH1 0x59 JUMP JUMPDEST SWAP2 POP POP SWAP3 SWAP2 POP POP JUMP JUMPDEST PUSH2 0x330 DUP1 PUSH2 0x9E PUSH0 CODECOPY PUSH0 RETURN INVALID PUSH1 0x80 PUSH1 0x40 MSTORE CALLVALUE DUP1 ISZERO PUSH2 0xF JUMPI PUSH0 DUP1 REVERT JUMPDEST POP PUSH1 0x4 CALLDATASIZE LT PUSH2 0x34 JUMPI PUSH0 CALLDATALOAD PUSH1 0xE0 SHR DUP1 PUSH4 0x6051E322 EQ PUSH2 0x38 JUMPI DUP1 PUSH4 0x741983C0 EQ PUSH2 0x56 JUMPI JUMPDEST PUSH0 DUP1 REVERT JUMPDEST PUSH2 0x40 PUSH2 0x60 JUMP JUMPDEST PUSH1 0x40 MLOAD PUSH2 0x4D SWAP2 SWAP1 PUSH2 0x147 JUMP JUMPDEST PUSH1 0x40 MLOAD DUP1 SWAP2 SUB SWAP1 RETURN JUMPDEST PUSH2 0x5E PUSH2 0x65 JUMP JUMPDEST STOP JUMPDEST PUSH0 SLOAD DUP2 JUMP JUMPDEST PUSH0 DUP1 SLOAD SUB PUSH2 0xA8 JUMPI PUSH1 0x40 MLOAD PUSH32 0x8C379A000000000000000000000000000000000000000000000000000000000 DUP2 MSTORE PUSH1 0x4 ADD PUSH2 0x9F SWAP1 PUSH2 0x1BA JUMP JUMPDEST PUSH1 0x40 MLOAD DUP1 SWAP2 SUB SWAP1 REVERT JUMPDEST PUSH1 0x12 PUSH0 SLOAD GT ISZERO PUSH2 0xF2 JUMPI PUSH32 0x8FDB9BAFB27C6CE5B7FFF911F44D3055B1A10026EE0C3962812948538893947D PUSH1 0x1 PUSH0 SLOAD PUSH1 0x40 MLOAD PUSH2 0xE5 SWAP3 SWAP2 SWAP1 PUSH2 0x23C JUMP JUMPDEST PUSH1 0x40 MLOAD DUP1 SWAP2 SUB SWAP1 LOG1 PUSH2 0x12D JUMP JUMPDEST PUSH32 0x8FDB9BAFB27C6CE5B7FFF911F44D3055B1A10026EE0C3962812948538893947D PUSH0 DUP1 SLOAD PUSH1 0x40 MLOAD PUSH2 0x124 SWAP3 SWAP2 SWAP1 PUSH2 0x2C0 JUMP JUMPDEST PUSH1 0x40 MLOAD DUP1 SWAP2 SUB SWAP1 LOG1 JUMPDEST JUMP JUMPDEST PUSH0 DUP2 SWAP1 POP SWAP2 SWAP1 POP JUMP JUMPDEST PUSH2 0x141 DUP2 PUSH2 0x12F JUMP JUMPDEST DUP3 MSTORE POP POP JUMP JUMPDEST PUSH0 PUSH1 0x20 DUP3 ADD SWAP1 POP PUSH2 0x15A PUSH0 DUP4 ADD DUP5 PUSH2 0x138 JUMP JUMPDEST SWAP3 SWAP2 POP POP JUMP JUMPDEST PUSH0 DUP3 DUP3 MSTORE PUSH1 0x20 DUP3 ADD SWAP1 POP SWAP3 SWAP2 POP POP JUMP JUMPDEST PUSH32 0x6D79416765206973206E6F7420696E697469616C697A65640000000000000000 PUSH0 DUP3 ADD MSTORE POP JUMP JUMPDEST PUSH0 PUSH2 0x1A4 PUSH1 0x18 DUP4 PUSH2 0x160 JUMP JUMPDEST SWAP2 POP PUSH2 0x1AF DUP3 PUSH2 0x170 JUMP JUMPDEST PUSH1 0x20 DUP3 ADD SWAP1 POP SWAP2 SWAP1 POP JUMP JUMPDEST PUSH0 PUSH1 0x20 DUP3 ADD SWAP1 POP DUP2 DUP2 SUB PUSH0 DUP4 ADD MSTORE PUSH2 0x1D1 DUP2 PUSH2 0x198 JUMP JUMPDEST SWAP1 POP SWAP2 SWAP1 POP JUMP JUMPDEST PUSH0 DUP2 ISZERO ISZERO SWAP1 POP SWAP2 SWAP1 POP JUMP JUMPDEST PUSH2 0x1EC DUP2 PUSH2 0x1D8 JUMP JUMPDEST DUP3 MSTORE POP POP JUMP JUMPDEST PUSH32 0x68652F736865206973206F6B20746F20656E7465720000000000000000000000 PUSH0 DUP3 ADD MSTORE POP JUMP JUMPDEST PUSH0 PUSH2 0x226 PUSH1 0x15 DUP4 PUSH2 0x160 JUMP JUMPDEST SWAP2 POP PUSH2 0x231 DUP3 PUSH2 0x1F2 JUMP JUMPDEST PUSH1 0x20 DUP3 ADD SWAP1 POP SWAP2 SWAP1 POP JUMP JUMPDEST PUSH0 PUSH1 0x60 DUP3 ADD SWAP1 POP PUSH2 0x24F PUSH0 DUP4 ADD DUP6 PUSH2 0x1E3 JUMP JUMPDEST PUSH2 0x25C PUSH1 0x20 DUP4 ADD DUP5 PUSH2 0x138 JUMP JUMPDEST DUP2 DUP2 SUB PUSH1 0x40 DUP4 ADD MSTORE PUSH2 0x26D DUP2 PUSH2 0x21A JUMP JUMPDEST SWAP1 POP SWAP4 SWAP3 POP POP POP JUMP JUMPDEST PUSH32 0x68652F736865206973206E6F74206F6B20746F20656E74657200000000000000 PUSH0 DUP3 ADD MSTORE POP JUMP JUMPDEST PUSH0 PUSH2 0x2AA PUSH1 0x19 DUP4 PUSH2 0x160 JUMP JUMPDEST SWAP2 POP PUSH2 0x2B5 DUP3 PUSH2 0x276 JUMP JUMPDEST PUSH1 0x20 DUP3 ADD SWAP1 POP SWAP2 SWAP1 POP JUMP JUMPDEST PUSH0 PUSH1 0x60 DUP3 ADD SWAP1 POP PUSH2 0x2D3 PUSH0 DUP4 ADD DUP6 PUSH2 0x1E3 JUMP JUMPDEST PUSH2 0x2E0 PUSH1 0x20 DUP4 ADD DUP5 PUSH2 0x138 JUMP JUMPDEST DUP2 DUP2 SUB PUSH1 0x40 DUP4 ADD MSTORE PUSH2 0x2F1 DUP2 PUSH2 0x29E JUMP JUMPDEST SWAP1 POP SWAP4 SWAP3 POP POP POP JUMP INVALID LOG2 PUSH5 0x6970667358 0x22 SLT KECCAK256 MSTORE 0xD8 PUSH23 0xBB47856DEAFD2D2A6AF36D5801E7A2A3A793040290D2E8 DUP10 DUP1 0xA7 0xD2 NOT 0x2D PUSH5 0x736F6C6343 STOP ADDMOD BYTE STOP CALLER "
				},
				"gasEstimates": {
					"creation": {
						"codeDepositCost": "163200",
						"executionCost": "infinite",
						"totalCost": "infinite"
					},
					"external": {
						"checkAge()": "9019",
						"myAge()": "2402"
					}
				},
				"methodIdentifiers": {
					"checkAge()": "741983c0",
					"myAge()": "6051e322"
				}
			},
			"storageLayout": {
				"storage": [
					{
						"astId": 4,
						"contract": "contracts/3_Conditionals.sol:Conditionals",
						"label": "myAge",
						"offset": 0,
						"slot": "0",
						"type": "t_uint256"
					}
				],
				"types": {
					"t_uint256": {
						"encoding": "inplace",
						"label": "uint256",
						"numberOfBytes": "32"
					}
				}
			},
			"userdoc": {
				"kind": "user",
				"methods": {},
				"notice": "this is a contract to learn conditional statements and the use of require  create a contract that has a myAge variable and a conditional that emit an event saying \"you're in\" if  myAge >=18 else \"you cannot enter\" if myAge < 18. hint: you need to set the variable first!",
				"version": 1
			}
		}
	}
}