{
	"contracts/5_Loops.sol": {
		"Loops": {
			"abi": [
				{
					"inputs": [
						{
							"internalType": "string[]",
							"name": "_elements",
							"type": "string[]"
						}
					],
					"stateMutability": "nonpayable",
					"type": "constructor"
				},
				{
					"inputs": [],
					"name": "counter",
					"outputs": [
						{
							"internalType": "uint256",
							"name": "",
							"type": "uint256"
						}
					],
					"stateMutability": "view",
					"type": "function"
				},
				{
					"inputs": [
						{
							"internalType": "uint256",
							"name": "",
							"type": "uint256"
						}
					],
					"name": "elements",
					"outputs": [
						{
							"internalType": "string",
							"name": "",
							"type": "string"
						}
					],
					"stateMutability": "view",
					"type": "function"
				},
				{
					"inputs": [],
					"name": "getCounter",
					"outputs": [
						{
							"internalType": "uint256",
							"name": "",
							"type": "uint256"
						}
					],
					"stateMutability": "view",
					"type": "function"
				},
				{
					"inputs": [],
					"name": "loopWhatever",
					"outputs": [],
					"stateMutability": "nonpayable",
					"type": "function"
				},
				{
					"inputs": [
						{
							"internalType": "string[]",
							"name": "memoryElements",
							"type": "string[]"
						}
					],
					"name": "loopWhateverInMemory",
					"outputs": [],
					"stateMutability": "pure",
					"type": "function"
				}
			],
			"devdoc": {
				"kind": "dev",
				"methods": {},
				"version": 1
			},
			"evm": {
				"assembly": "    /* \"contracts/5_Loops.sol\":168:1321  contract Loops {... */\n  mstore(0x40, 0x80)\n    /* \"contracts/5_Loops.sol\":294:377  constructor(string[] memory _elements){... */\n  callvalue\n  dup1\n  iszero\n  tag_1\n  jumpi\n  0x00\n  dup1\n  revert\ntag_1:\n  pop\n  mload(0x40)\n  sub(codesize, bytecodeSize)\n  dup1\n  bytecodeSize\n  dup4\n  codecopy\n  dup2\n  dup2\n  add\n  0x40\n  mstore\n  dup2\n  add\n  swap1\n  tag_2\n  swap2\n  swap1\n  tag_3\n  jump\t// in\ntag_2:\n    /* \"contracts/5_Loops.sol\":356:365  _elements */\n  dup1\n    /* \"contracts/5_Loops.sol\":346:354  elements */\n  0x00\n    /* \"contracts/5_Loops.sol\":346:365  elements= _elements */\n  swap1\n  dup1\n  mload\n  swap1\n  0x20\n  add\n  swap1\n  tag_6\n  swap3\n  swap2\n  swap1\n  tag_7\n  jump\t// in\ntag_6:\n  pop\n    /* \"contracts/5_Loops.sol\":294:377  constructor(string[] memory _elements){... */\n  pop\n    /* \"contracts/5_Loops.sol\":168:1321  contract Loops {... */\n  jump(tag_8)\ntag_7:\n  dup3\n  dup1\n  sload\n  dup3\n  dup3\n  sstore\n  swap1\n  0x00\n  mstore\n  keccak256(0x00, 0x20)\n  swap1\n  dup2\n  add\n  swap3\n  dup3\n  iszero\n  tag_9\n  jumpi\n  swap2\n  0x20\n  mul\n  dup3\n  add\ntag_10:\n  dup3\n  dup2\n  gt\n  iszero\n  tag_11\n  jumpi\n  dup3\n  mload\n  dup3\n  swap1\n  dup2\n  tag_12\n  swap2\n  swap1\n  tag_13\n  jump\t// in\ntag_12:\n  pop\n  swap2\n  0x20\n  add\n  swap2\n  swap1\n  0x01\n  add\n  swap1\n  jump(tag_10)\ntag_11:\ntag_9:\n  pop\n  swap1\n  pop\n  tag_14\n  swap2\n  swap1\n  tag_15\n  jump\t// in\ntag_14:\n  pop\n  swap1\n  jump\t// out\ntag_15:\ntag_16:\n  dup1\n  dup3\n  gt\n  iszero\n  tag_17\n  jumpi\n  0x00\n  dup2\n  dup2\n  tag_18\n  swap2\n  swap1\n  tag_19\n  jump\t// in\ntag_18:\n  pop\n  0x01\n  add\n  jump(tag_16)\ntag_17:\n  pop\n  swap1\n  jump\t// out\ntag_19:\n  pop\n  dup1\n  sload\n  tag_20\n  swap1\n  tag_21\n  jump\t// in\ntag_20:\n  0x00\n  dup3\n  sstore\n  dup1\n  0x1f\n  lt\n  tag_23\n  jumpi\n  pop\n  jump(tag_22)\ntag_23:\n  0x1f\n  add\n  0x20\n  swap1\n  div\n  swap1\n  0x00\n  mstore\n  keccak256(0x00, 0x20)\n  swap1\n  dup2\n  add\n  swap1\n  tag_24\n  swap2\n  swap1\n  tag_25\n  jump\t// in\ntag_24:\ntag_22:\n  pop\n  jump\t// out\ntag_25:\ntag_26:\n  dup1\n  dup3\n  gt\n  iszero\n  tag_27\n  jumpi\n  0x00\n  dup2\n  0x00\n  swap1\n  sstore\n  pop\n  0x01\n  add\n  jump(tag_26)\ntag_27:\n  pop\n  swap1\n  jump\t// out\n    /* \"#utility.yul\":7:82   */\ntag_28:\n    /* \"#utility.yul\":40:46   */\n  0x00\n    /* \"#utility.yul\":73:75   */\n  0x40\n    /* \"#utility.yul\":67:76   */\n  mload\n    /* \"#utility.yul\":57:76   */\n  swap1\n  pop\n    /* \"#utility.yul\":7:82   */\n  swap1\n  jump\t// out\n    /* \"#utility.yul\":88:205   */\ntag_29:\n    /* \"#utility.yul\":197:198   */\n  0x00\n    /* \"#utility.yul\":194:195   */\n  dup1\n    /* \"#utility.yul\":187:199   */\n  revert\n    /* \"#utility.yul\":211:328   */\ntag_30:\n    /* \"#utility.yul\":320:321   */\n  0x00\n    /* \"#utility.yul\":317:318   */\n  dup1\n    /* \"#utility.yul\":310:322   */\n  revert\n    /* \"#utility.yul\":334:451   */\ntag_31:\n    /* \"#utility.yul\":443:444   */\n  0x00\n    /* \"#utility.yul\":440:441   */\n  dup1\n    /* \"#utility.yul\":433:445   */\n  revert\n    /* \"#utility.yul\":457:559   */\ntag_32:\n    /* \"#utility.yul\":498:504   */\n  0x00\n    /* \"#utility.yul\":549:551   */\n  0x1f\n    /* \"#utility.yul\":545:552   */\n  not\n    /* \"#utility.yul\":540:542   */\n  0x1f\n    /* \"#utility.yul\":533:538   */\n  dup4\n    /* \"#utility.yul\":529:543   */\n  add\n    /* \"#utility.yul\":525:553   */\n  and\n    /* \"#utility.yul\":515:553   */\n  swap1\n  pop\n    /* \"#utility.yul\":457:559   */\n  swap2\n  swap1\n  pop\n  jump\t// out\n    /* \"#utility.yul\":565:745   */\ntag_33:\n    /* \"#utility.yul\":613:690   */\n  0x4e487b7100000000000000000000000000000000000000000000000000000000\n    /* \"#utility.yul\":610:611   */\n  0x00\n    /* \"#utility.yul\":603:691   */\n  mstore\n    /* \"#utility.yul\":710:714   */\n  0x41\n    /* \"#utility.yul\":707:708   */\n  0x04\n    /* \"#utility.yul\":700:715   */\n  mstore\n    /* \"#utility.yul\":734:738   */\n  0x24\n    /* \"#utility.yul\":731:732   */\n  0x00\n    /* \"#utility.yul\":724:739   */\n  revert\n    /* \"#utility.yul\":751:1032   */\ntag_34:\n    /* \"#utility.yul\":834:861   */\n  tag_71\n    /* \"#utility.yul\":856:860   */\n  dup3\n    /* \"#utility.yul\":834:861   */\n  tag_32\n  jump\t// in\ntag_71:\n    /* \"#utility.yul\":826:832   */\n  dup2\n    /* \"#utility.yul\":822:862   */\n  add\n    /* \"#utility.yul\":964:970   */\n  dup2\n    /* \"#utility.yul\":952:962   */\n  dup2\n    /* \"#utility.yul\":949:971   */\n  lt\n    /* \"#utility.yul\":928:946   */\n  0xffffffffffffffff\n    /* \"#utility.yul\":916:926   */\n  dup3\n    /* \"#utility.yul\":913:947   */\n  gt\n    /* \"#utility.yul\":910:972   */\n  or\n    /* \"#utility.yul\":907:995   */\n  iszero\n  tag_72\n  jumpi\n    /* \"#utility.yul\":975:993   */\n  tag_73\n  tag_33\n  jump\t// in\ntag_73:\n    /* \"#utility.yul\":907:995   */\ntag_72:\n    /* \"#utility.yul\":1015:1025   */\n  dup1\n    /* \"#utility.yul\":1011:1013   */\n  0x40\n    /* \"#utility.yul\":1004:1026   */\n  mstore\n    /* \"#utility.yul\":794:1032   */\n  pop\n    /* \"#utility.yul\":751:1032   */\n  pop\n  pop\n  jump\t// out\n    /* \"#utility.yul\":1038:1167   */\ntag_35:\n    /* \"#utility.yul\":1072:1078   */\n  0x00\n    /* \"#utility.yul\":1099:1119   */\n  tag_75\n  tag_28\n  jump\t// in\ntag_75:\n    /* \"#utility.yul\":1089:1119   */\n  swap1\n  pop\n    /* \"#utility.yul\":1128:1161   */\n  tag_76\n    /* \"#utility.yul\":1156:1160   */\n  dup3\n    /* \"#utility.yul\":1148:1154   */\n  dup3\n    /* \"#utility.yul\":1128:1161   */\n  tag_34\n  jump\t// in\ntag_76:\n    /* \"#utility.yul\":1038:1167   */\n  swap2\n  swap1\n  pop\n  jump\t// out\n    /* \"#utility.yul\":1173:1494   */\ntag_36:\n    /* \"#utility.yul\":1260:1264   */\n  0x00\n    /* \"#utility.yul\":1350:1368   */\n  0xffffffffffffffff\n    /* \"#utility.yul\":1342:1348   */\n  dup3\n    /* \"#utility.yul\":1339:1369   */\n  gt\n    /* \"#utility.yul\":1336:1392   */\n  iszero\n  tag_78\n  jumpi\n    /* \"#utility.yul\":1372:1390   */\n  tag_79\n  tag_33\n  jump\t// in\ntag_79:\n    /* \"#utility.yul\":1336:1392   */\ntag_78:\n    /* \"#utility.yul\":1422:1426   */\n  0x20\n    /* \"#utility.yul\":1414:1420   */\n  dup3\n    /* \"#utility.yul\":1410:1427   */\n  mul\n    /* \"#utility.yul\":1402:1427   */\n  swap1\n  pop\n    /* \"#utility.yul\":1482:1486   */\n  0x20\n    /* \"#utility.yul\":1476:1480   */\n  dup2\n    /* \"#utility.yul\":1472:1487   */\n  add\n    /* \"#utility.yul\":1464:1487   */\n  swap1\n  pop\n    /* \"#utility.yul\":1173:1494   */\n  swap2\n  swap1\n  pop\n  jump\t// out\n    /* \"#utility.yul\":1500:1617   */\ntag_37:\n    /* \"#utility.yul\":1609:1610   */\n  0x00\n    /* \"#utility.yul\":1606:1607   */\n  dup1\n    /* \"#utility.yul\":1599:1611   */\n  revert\n    /* \"#utility.yul\":1623:1740   */\ntag_38:\n    /* \"#utility.yul\":1732:1733   */\n  0x00\n    /* \"#utility.yul\":1729:1730   */\n  dup1\n    /* \"#utility.yul\":1722:1734   */\n  revert\n    /* \"#utility.yul\":1746:2054   */\ntag_39:\n    /* \"#utility.yul\":1808:1812   */\n  0x00\n    /* \"#utility.yul\":1898:1916   */\n  0xffffffffffffffff\n    /* \"#utility.yul\":1890:1896   */\n  dup3\n    /* \"#utility.yul\":1887:1917   */\n  gt\n    /* \"#utility.yul\":1884:1940   */\n  iszero\n  tag_83\n  jumpi\n    /* \"#utility.yul\":1920:1938   */\n  tag_84\n  tag_33\n  jump\t// in\ntag_84:\n    /* \"#utility.yul\":1884:1940   */\ntag_83:\n    /* \"#utility.yul\":1958:1987   */\n  tag_85\n    /* \"#utility.yul\":1980:1986   */\n  dup3\n    /* \"#utility.yul\":1958:1987   */\n  tag_32\n  jump\t// in\ntag_85:\n    /* \"#utility.yul\":1950:1987   */\n  swap1\n  pop\n    /* \"#utility.yul\":2042:2046   */\n  0x20\n    /* \"#utility.yul\":2036:2040   */\n  dup2\n    /* \"#utility.yul\":2032:2047   */\n  add\n    /* \"#utility.yul\":2024:2047   */\n  swap1\n  pop\n    /* \"#utility.yul\":1746:2054   */\n  swap2\n  swap1\n  pop\n  jump\t// out\n    /* \"#utility.yul\":2060:2199   */\ntag_40:\n    /* \"#utility.yul\":2149:2155   */\n  dup3\n    /* \"#utility.yul\":2144:2147   */\n  dup2\n    /* \"#utility.yul\":2139:2142   */\n  dup4\n    /* \"#utility.yul\":2133:2156   */\n  mcopy\n    /* \"#utility.yul\":2190:2191   */\n  0x00\n    /* \"#utility.yul\":2181:2187   */\n  dup4\n    /* \"#utility.yul\":2176:2179   */\n  dup4\n    /* \"#utility.yul\":2172:2188   */\n  add\n    /* \"#utility.yul\":2165:2192   */\n  mstore\n    /* \"#utility.yul\":2060:2199   */\n  pop\n  pop\n  pop\n  jump\t// out\n    /* \"#utility.yul\":2205:2639   */\ntag_41:\n    /* \"#utility.yul\":2294:2299   */\n  0x00\n    /* \"#utility.yul\":2319:2385   */\n  tag_88\n    /* \"#utility.yul\":2335:2384   */\n  tag_89\n    /* \"#utility.yul\":2377:2383   */\n  dup5\n    /* \"#utility.yul\":2335:2384   */\n  tag_39\n  jump\t// in\ntag_89:\n    /* \"#utility.yul\":2319:2385   */\n  tag_35\n  jump\t// in\ntag_88:\n    /* \"#utility.yul\":2310:2385   */\n  swap1\n  pop\n    /* \"#utility.yul\":2408:2414   */\n  dup3\n    /* \"#utility.yul\":2401:2406   */\n  dup2\n    /* \"#utility.yul\":2394:2415   */\n  mstore\n    /* \"#utility.yul\":2446:2450   */\n  0x20\n    /* \"#utility.yul\":2439:2444   */\n  dup2\n    /* \"#utility.yul\":2435:2451   */\n  add\n    /* \"#utility.yul\":2484:2487   */\n  dup5\n    /* \"#utility.yul\":2475:2481   */\n  dup5\n    /* \"#utility.yul\":2470:2473   */\n  dup5\n    /* \"#utility.yul\":2466:2482   */\n  add\n    /* \"#utility.yul\":2463:2488   */\n  gt\n    /* \"#utility.yul\":2460:2572   */\n  iszero\n  tag_90\n  jumpi\n    /* \"#utility.yul\":2491:2570   */\n  tag_91\n  tag_38\n  jump\t// in\ntag_91:\n    /* \"#utility.yul\":2460:2572   */\ntag_90:\n    /* \"#utility.yul\":2581:2633   */\n  tag_92\n    /* \"#utility.yul\":2626:2632   */\n  dup5\n    /* \"#utility.yul\":2621:2624   */\n  dup3\n    /* \"#utility.yul\":2616:2619   */\n  dup6\n    /* \"#utility.yul\":2581:2633   */\n  tag_40\n  jump\t// in\ntag_92:\n    /* \"#utility.yul\":2300:2639   */\n  pop\n    /* \"#utility.yul\":2205:2639   */\n  swap4\n  swap3\n  pop\n  pop\n  pop\n  jump\t// out\n    /* \"#utility.yul\":2659:3014   */\ntag_42:\n    /* \"#utility.yul\":2726:2731   */\n  0x00\n    /* \"#utility.yul\":2775:2778   */\n  dup3\n    /* \"#utility.yul\":2768:2772   */\n  0x1f\n    /* \"#utility.yul\":2760:2766   */\n  dup4\n    /* \"#utility.yul\":2756:2773   */\n  add\n    /* \"#utility.yul\":2752:2779   */\n  slt\n    /* \"#utility.yul\":2742:2864   */\n  tag_94\n  jumpi\n    /* \"#utility.yul\":2783:2862   */\n  tag_95\n  tag_31\n  jump\t// in\ntag_95:\n    /* \"#utility.yul\":2742:2864   */\ntag_94:\n    /* \"#utility.yul\":2893:2899   */\n  dup2\n    /* \"#utility.yul\":2887:2900   */\n  mload\n    /* \"#utility.yul\":2918:3008   */\n  tag_96\n    /* \"#utility.yul\":3004:3007   */\n  dup5\n    /* \"#utility.yul\":2996:3002   */\n  dup3\n    /* \"#utility.yul\":2989:2993   */\n  0x20\n    /* \"#utility.yul\":2981:2987   */\n  dup7\n    /* \"#utility.yul\":2977:2994   */\n  add\n    /* \"#utility.yul\":2918:3008   */\n  tag_41\n  jump\t// in\ntag_96:\n    /* \"#utility.yul\":2909:3008   */\n  swap2\n  pop\n    /* \"#utility.yul\":2732:3014   */\n  pop\n    /* \"#utility.yul\":2659:3014   */\n  swap3\n  swap2\n  pop\n  pop\n  jump\t// out\n    /* \"#utility.yul\":3036:3996   */\ntag_43:\n    /* \"#utility.yul\":3153:3158   */\n  0x00\n    /* \"#utility.yul\":3178:3269   */\n  tag_98\n    /* \"#utility.yul\":3194:3268   */\n  tag_99\n    /* \"#utility.yul\":3261:3267   */\n  dup5\n    /* \"#utility.yul\":3194:3268   */\n  tag_36\n  jump\t// in\ntag_99:\n    /* \"#utility.yul\":3178:3269   */\n  tag_35\n  jump\t// in\ntag_98:\n    /* \"#utility.yul\":3169:3269   */\n  swap1\n  pop\n    /* \"#utility.yul\":3289:3294   */\n  dup1\n    /* \"#utility.yul\":3318:3324   */\n  dup4\n    /* \"#utility.yul\":3311:3316   */\n  dup3\n    /* \"#utility.yul\":3304:3325   */\n  mstore\n    /* \"#utility.yul\":3352:3356   */\n  0x20\n    /* \"#utility.yul\":3345:3350   */\n  dup3\n    /* \"#utility.yul\":3341:3357   */\n  add\n    /* \"#utility.yul\":3334:3357   */\n  swap1\n  pop\n    /* \"#utility.yul\":3405:3409   */\n  0x20\n    /* \"#utility.yul\":3397:3403   */\n  dup5\n    /* \"#utility.yul\":3393:3410   */\n  mul\n    /* \"#utility.yul\":3385:3391   */\n  dup4\n    /* \"#utility.yul\":3381:3411   */\n  add\n    /* \"#utility.yul\":3434:3437   */\n  dup6\n    /* \"#utility.yul\":3426:3432   */\n  dup2\n    /* \"#utility.yul\":3423:3438   */\n  gt\n    /* \"#utility.yul\":3420:3542   */\n  iszero\n  tag_100\n  jumpi\n    /* \"#utility.yul\":3453:3532   */\n  tag_101\n  tag_37\n  jump\t// in\ntag_101:\n    /* \"#utility.yul\":3420:3542   */\ntag_100:\n    /* \"#utility.yul\":3568:3574   */\n  dup4\n    /* \"#utility.yul\":3551:3990   */\ntag_102:\n    /* \"#utility.yul\":3585:3591   */\n  dup2\n    /* \"#utility.yul\":3580:3583   */\n  dup2\n    /* \"#utility.yul\":3577:3592   */\n  lt\n    /* \"#utility.yul\":3551:3990   */\n  iszero\n  tag_104\n  jumpi\n    /* \"#utility.yul\":3667:3670   */\n  dup1\n    /* \"#utility.yul\":3661:3671   */\n  mload\n    /* \"#utility.yul\":3703:3721   */\n  0xffffffffffffffff\n    /* \"#utility.yul\":3690:3701   */\n  dup2\n    /* \"#utility.yul\":3687:3722   */\n  gt\n    /* \"#utility.yul\":3684:3806   */\n  iszero\n  tag_105\n  jumpi\n    /* \"#utility.yul\":3725:3804   */\n  tag_106\n  tag_31\n  jump\t// in\ntag_106:\n    /* \"#utility.yul\":3684:3806   */\ntag_105:\n    /* \"#utility.yul\":3849:3860   */\n  dup1\n    /* \"#utility.yul\":3841:3847   */\n  dup7\n    /* \"#utility.yul\":3837:3861   */\n  add\n    /* \"#utility.yul\":3887:3945   */\n  tag_107\n    /* \"#utility.yul\":3941:3944   */\n  dup10\n    /* \"#utility.yul\":3929:3939   */\n  dup3\n    /* \"#utility.yul\":3887:3945   */\n  tag_42\n  jump\t// in\ntag_107:\n    /* \"#utility.yul\":3882:3885   */\n  dup6\n    /* \"#utility.yul\":3875:3946   */\n  mstore\n    /* \"#utility.yul\":3975:3979   */\n  0x20\n    /* \"#utility.yul\":3970:3973   */\n  dup6\n    /* \"#utility.yul\":3966:3980   */\n  add\n    /* \"#utility.yul\":3959:3980   */\n  swap5\n  pop\n    /* \"#utility.yul\":3627:3990   */\n  pop\n  pop\n    /* \"#utility.yul\":3611:3615   */\n  0x20\n    /* \"#utility.yul\":3606:3609   */\n  dup2\n    /* \"#utility.yul\":3602:3616   */\n  add\n    /* \"#utility.yul\":3595:3616   */\n  swap1\n  pop\n    /* \"#utility.yul\":3551:3990   */\n  jump(tag_102)\ntag_104:\n    /* \"#utility.yul\":3555:3576   */\n  pop\n    /* \"#utility.yul\":3159:3996   */\n  pop\n  pop\n    /* \"#utility.yul\":3036:3996   */\n  swap4\n  swap3\n  pop\n  pop\n  pop\n  jump\t// out\n    /* \"#utility.yul\":4018:4423   */\ntag_44:\n    /* \"#utility.yul\":4110:4115   */\n  0x00\n    /* \"#utility.yul\":4159:4162   */\n  dup3\n    /* \"#utility.yul\":4152:4156   */\n  0x1f\n    /* \"#utility.yul\":4144:4150   */\n  dup4\n    /* \"#utility.yul\":4140:4157   */\n  add\n    /* \"#utility.yul\":4136:4163   */\n  slt\n    /* \"#utility.yul\":4126:4248   */\n  tag_109\n  jumpi\n    /* \"#utility.yul\":4167:4246   */\n  tag_110\n  tag_31\n  jump\t// in\ntag_110:\n    /* \"#utility.yul\":4126:4248   */\ntag_109:\n    /* \"#utility.yul\":4277:4283   */\n  dup2\n    /* \"#utility.yul\":4271:4284   */\n  mload\n    /* \"#utility.yul\":4302:4417   */\n  tag_111\n    /* \"#utility.yul\":4413:4416   */\n  dup5\n    /* \"#utility.yul\":4405:4411   */\n  dup3\n    /* \"#utility.yul\":4398:4402   */\n  0x20\n    /* \"#utility.yul\":4390:4396   */\n  dup7\n    /* \"#utility.yul\":4386:4403   */\n  add\n    /* \"#utility.yul\":4302:4417   */\n  tag_43\n  jump\t// in\ntag_111:\n    /* \"#utility.yul\":4293:4417   */\n  swap2\n  pop\n    /* \"#utility.yul\":4116:4423   */\n  pop\n    /* \"#utility.yul\":4018:4423   */\n  swap3\n  swap2\n  pop\n  pop\n  jump\t// out\n    /* \"#utility.yul\":4429:5003   */\ntag_3:\n    /* \"#utility.yul\":4534:4540   */\n  0x00\n    /* \"#utility.yul\":4583:4585   */\n  0x20\n    /* \"#utility.yul\":4571:4580   */\n  dup3\n    /* \"#utility.yul\":4562:4569   */\n  dup5\n    /* \"#utility.yul\":4558:4581   */\n  sub\n    /* \"#utility.yul\":4554:4586   */\n  slt\n    /* \"#utility.yul\":4551:4670   */\n  iszero\n  tag_113\n  jumpi\n    /* \"#utility.yul\":4589:4668   */\n  tag_114\n  tag_29\n  jump\t// in\ntag_114:\n    /* \"#utility.yul\":4551:4670   */\ntag_113:\n    /* \"#utility.yul\":4730:4731   */\n  0x00\n    /* \"#utility.yul\":4719:4728   */\n  dup3\n    /* \"#utility.yul\":4715:4732   */\n  add\n    /* \"#utility.yul\":4709:4733   */\n  mload\n    /* \"#utility.yul\":4760:4778   */\n  0xffffffffffffffff\n    /* \"#utility.yul\":4752:4758   */\n  dup2\n    /* \"#utility.yul\":4749:4779   */\n  gt\n    /* \"#utility.yul\":4746:4863   */\n  iszero\n  tag_115\n  jumpi\n    /* \"#utility.yul\":4782:4861   */\n  tag_116\n  tag_30\n  jump\t// in\ntag_116:\n    /* \"#utility.yul\":4746:4863   */\ntag_115:\n    /* \"#utility.yul\":4887:4986   */\n  tag_117\n    /* \"#utility.yul\":4978:4985   */\n  dup5\n    /* \"#utility.yul\":4969:4975   */\n  dup3\n    /* \"#utility.yul\":4958:4967   */\n  dup6\n    /* \"#utility.yul\":4954:4976   */\n  add\n    /* \"#utility.yul\":4887:4986   */\n  tag_44\n  jump\t// in\ntag_117:\n    /* \"#utility.yul\":4877:4986   */\n  swap2\n  pop\n    /* \"#utility.yul\":4680:4996   */\n  pop\n    /* \"#utility.yul\":4429:5003   */\n  swap3\n  swap2\n  pop\n  pop\n  jump\t// out\n    /* \"#utility.yul\":5009:5108   */\ntag_45:\n    /* \"#utility.yul\":5061:5067   */\n  0x00\n    /* \"#utility.yul\":5095:5100   */\n  dup2\n    /* \"#utility.yul\":5089:5101   */\n  mload\n    /* \"#utility.yul\":5079:5101   */\n  swap1\n  pop\n    /* \"#utility.yul\":5009:5108   */\n  swap2\n  swap1\n  pop\n  jump\t// out\n    /* \"#utility.yul\":5114:5294   */\ntag_46:\n    /* \"#utility.yul\":5162:5239   */\n  0x4e487b7100000000000000000000000000000000000000000000000000000000\n    /* \"#utility.yul\":5159:5160   */\n  0x00\n    /* \"#utility.yul\":5152:5240   */\n  mstore\n    /* \"#utility.yul\":5259:5263   */\n  0x22\n    /* \"#utility.yul\":5256:5257   */\n  0x04\n    /* \"#utility.yul\":5249:5264   */\n  mstore\n    /* \"#utility.yul\":5283:5287   */\n  0x24\n    /* \"#utility.yul\":5280:5281   */\n  0x00\n    /* \"#utility.yul\":5273:5288   */\n  revert\n    /* \"#utility.yul\":5300:5620   */\ntag_21:\n    /* \"#utility.yul\":5344:5350   */\n  0x00\n    /* \"#utility.yul\":5381:5382   */\n  0x02\n    /* \"#utility.yul\":5375:5379   */\n  dup3\n    /* \"#utility.yul\":5371:5383   */\n  div\n    /* \"#utility.yul\":5361:5383   */\n  swap1\n  pop\n    /* \"#utility.yul\":5428:5429   */\n  0x01\n    /* \"#utility.yul\":5422:5426   */\n  dup3\n    /* \"#utility.yul\":5418:5430   */\n  and\n    /* \"#utility.yul\":5449:5467   */\n  dup1\n    /* \"#utility.yul\":5439:5520   */\n  tag_121\n  jumpi\n    /* \"#utility.yul\":5505:5509   */\n  0x7f\n    /* \"#utility.yul\":5497:5503   */\n  dup3\n    /* \"#utility.yul\":5493:5510   */\n  and\n    /* \"#utility.yul\":5483:5510   */\n  swap2\n  pop\n    /* \"#utility.yul\":5439:5520   */\ntag_121:\n    /* \"#utility.yul\":5567:5569   */\n  0x20\n    /* \"#utility.yul\":5559:5565   */\n  dup3\n    /* \"#utility.yul\":5556:5570   */\n  lt\n    /* \"#utility.yul\":5536:5554   */\n  dup2\n    /* \"#utility.yul\":5533:5571   */\n  sub\n    /* \"#utility.yul\":5530:5614   */\n  tag_122\n  jumpi\n    /* \"#utility.yul\":5586:5604   */\n  tag_123\n  tag_46\n  jump\t// in\ntag_123:\n    /* \"#utility.yul\":5530:5614   */\ntag_122:\n    /* \"#utility.yul\":5351:5620   */\n  pop\n    /* \"#utility.yul\":5300:5620   */\n  swap2\n  swap1\n  pop\n  jump\t// out\n    /* \"#utility.yul\":5626:5767   */\ntag_47:\n    /* \"#utility.yul\":5675:5679   */\n  0x00\n    /* \"#utility.yul\":5698:5701   */\n  dup2\n    /* \"#utility.yul\":5690:5701   */\n  swap1\n  pop\n    /* \"#utility.yul\":5721:5724   */\n  dup2\n    /* \"#utility.yul\":5718:5719   */\n  0x00\n    /* \"#utility.yul\":5711:5725   */\n  mstore\n    /* \"#utility.yul\":5755:5759   */\n  0x20\n    /* \"#utility.yul\":5752:5753   */\n  0x00\n    /* \"#utility.yul\":5742:5760   */\n  keccak256\n    /* \"#utility.yul\":5734:5760   */\n  swap1\n  pop\n    /* \"#utility.yul\":5626:5767   */\n  swap2\n  swap1\n  pop\n  jump\t// out\n    /* \"#utility.yul\":5773:5866   */\ntag_48:\n    /* \"#utility.yul\":5810:5816   */\n  0x00\n    /* \"#utility.yul\":5857:5859   */\n  0x20\n    /* \"#utility.yul\":5852:5854   */\n  0x1f\n    /* \"#utility.yul\":5845:5850   */\n  dup4\n    /* \"#utility.yul\":5841:5855   */\n  add\n    /* \"#utility.yul\":5837:5860   */\n  div\n    /* \"#utility.yul\":5827:5860   */\n  swap1\n  pop\n    /* \"#utility.yul\":5773:5866   */\n  swap2\n  swap1\n  pop\n  jump\t// out\n    /* \"#utility.yul\":5872:5979   */\ntag_49:\n    /* \"#utility.yul\":5916:5924   */\n  0x00\n    /* \"#utility.yul\":5966:5971   */\n  dup3\n    /* \"#utility.yul\":5960:5964   */\n  dup3\n    /* \"#utility.yul\":5956:5972   */\n  shl\n    /* \"#utility.yul\":5935:5972   */\n  swap1\n  pop\n    /* \"#utility.yul\":5872:5979   */\n  swap3\n  swap2\n  pop\n  pop\n  jump\t// out\n    /* \"#utility.yul\":5985:6378   */\ntag_50:\n    /* \"#utility.yul\":6054:6060   */\n  0x00\n    /* \"#utility.yul\":6104:6105   */\n  0x08\n    /* \"#utility.yul\":6092:6102   */\n  dup4\n    /* \"#utility.yul\":6088:6106   */\n  mul\n    /* \"#utility.yul\":6127:6224   */\n  tag_128\n    /* \"#utility.yul\":6157:6223   */\n  0xffffffffffffffffffffffffffffffffffffffffffffffffffffffffffffffff\n    /* \"#utility.yul\":6146:6155   */\n  dup3\n    /* \"#utility.yul\":6127:6224   */\n  tag_49\n  jump\t// in\ntag_128:\n    /* \"#utility.yul\":6245:6284   */\n  tag_129\n    /* \"#utility.yul\":6275:6283   */\n  dup7\n    /* \"#utility.yul\":6264:6273   */\n  dup4\n    /* \"#utility.yul\":6245:6284   */\n  tag_49\n  jump\t// in\ntag_129:\n    /* \"#utility.yul\":6233:6284   */\n  swap6\n  pop\n    /* \"#utility.yul\":6317:6321   */\n  dup1\n    /* \"#utility.yul\":6313:6322   */\n  not\n    /* \"#utility.yul\":6306:6311   */\n  dup5\n    /* \"#utility.yul\":6302:6323   */\n  and\n    /* \"#utility.yul\":6293:6323   */\n  swap4\n  pop\n    /* \"#utility.yul\":6366:6370   */\n  dup1\n    /* \"#utility.yul\":6356:6364   */\n  dup7\n    /* \"#utility.yul\":6352:6371   */\n  and\n    /* \"#utility.yul\":6345:6350   */\n  dup5\n    /* \"#utility.yul\":6342:6372   */\n  or\n    /* \"#utility.yul\":6332:6372   */\n  swap3\n  pop\n    /* \"#utility.yul\":6061:6378   */\n  pop\n  pop\n    /* \"#utility.yul\":5985:6378   */\n  swap4\n  swap3\n  pop\n  pop\n  pop\n  jump\t// out\n    /* \"#utility.yul\":6384:6461   */\ntag_51:\n    /* \"#utility.yul\":6421:6428   */\n  0x00\n    /* \"#utility.yul\":6450:6455   */\n  dup2\n    /* \"#utility.yul\":6439:6455   */\n  swap1\n  pop\n    /* \"#utility.yul\":6384:6461   */\n  swap2\n  swap1\n  pop\n  jump\t// out\n    /* \"#utility.yul\":6467:6527   */\ntag_52:\n    /* \"#utility.yul\":6495:6498   */\n  0x00\n    /* \"#utility.yul\":6516:6521   */\n  dup2\n    /* \"#utility.yul\":6509:6521   */\n  swap1\n  pop\n    /* \"#utility.yul\":6467:6527   */\n  swap2\n  swap1\n  pop\n  jump\t// out\n    /* \"#utility.yul\":6533:6675   */\ntag_53:\n    /* \"#utility.yul\":6583:6592   */\n  0x00\n    /* \"#utility.yul\":6616:6669   */\n  tag_133\n    /* \"#utility.yul\":6634:6668   */\n  tag_134\n    /* \"#utility.yul\":6643:6667   */\n  tag_135\n    /* \"#utility.yul\":6661:6666   */\n  dup5\n    /* \"#utility.yul\":6643:6667   */\n  tag_51\n  jump\t// in\ntag_135:\n    /* \"#utility.yul\":6634:6668   */\n  tag_52\n  jump\t// in\ntag_134:\n    /* \"#utility.yul\":6616:6669   */\n  tag_51\n  jump\t// in\ntag_133:\n    /* \"#utility.yul\":6603:6669   */\n  swap1\n  pop\n    /* \"#utility.yul\":6533:6675   */\n  swap2\n  swap1\n  pop\n  jump\t// out\n    /* \"#utility.yul\":6681:6756   */\ntag_54:\n    /* \"#utility.yul\":6724:6727   */\n  0x00\n    /* \"#utility.yul\":6745:6750   */\n  dup2\n    /* \"#utility.yul\":6738:6750   */\n  swap1\n  pop\n    /* \"#utility.yul\":6681:6756   */\n  swap2\n  swap1\n  pop\n  jump\t// out\n    /* \"#utility.yul\":6762:7031   */\ntag_55:\n    /* \"#utility.yul\":6872:6911   */\n  tag_138\n    /* \"#utility.yul\":6903:6910   */\n  dup4\n    /* \"#utility.yul\":6872:6911   */\n  tag_53\n  jump\t// in\ntag_138:\n    /* \"#utility.yul\":6933:7024   */\n  tag_139\n    /* \"#utility.yul\":6982:7023   */\n  tag_140\n    /* \"#utility.yul\":7006:7022   */\n  dup3\n    /* \"#utility.yul\":6982:7023   */\n  tag_54\n  jump\t// in\ntag_140:\n    /* \"#utility.yul\":6974:6980   */\n  dup5\n    /* \"#utility.yul\":6967:6971   */\n  dup5\n    /* \"#utility.yul\":6961:6972   */\n  sload\n    /* \"#utility.yul\":6933:7024   */\n  tag_50\n  jump\t// in\ntag_139:\n    /* \"#utility.yul\":6927:6931   */\n  dup3\n    /* \"#utility.yul\":6920:7025   */\n  sstore\n    /* \"#utility.yul\":6838:7031   */\n  pop\n    /* \"#utility.yul\":6762:7031   */\n  pop\n  pop\n  pop\n  jump\t// out\n    /* \"#utility.yul\":7037:7110   */\ntag_56:\n    /* \"#utility.yul\":7082:7085   */\n  0x00\n    /* \"#utility.yul\":7037:7110   */\n  swap1\n  jump\t// out\n    /* \"#utility.yul\":7116:7305   */\ntag_57:\n    /* \"#utility.yul\":7193:7225   */\n  tag_143\n  tag_56\n  jump\t// in\ntag_143:\n    /* \"#utility.yul\":7234:7299   */\n  tag_144\n    /* \"#utility.yul\":7292:7298   */\n  dup2\n    /* \"#utility.yul\":7284:7290   */\n  dup5\n    /* \"#utility.yul\":7278:7282   */\n  dup5\n    /* \"#utility.yul\":7234:7299   */\n  tag_55\n  jump\t// in\ntag_144:\n    /* \"#utility.yul\":7169:7305   */\n  pop\n    /* \"#utility.yul\":7116:7305   */\n  pop\n  pop\n  jump\t// out\n    /* \"#utility.yul\":7311:7497   */\ntag_58:\n    /* \"#utility.yul\":7371:7491   */\ntag_146:\n    /* \"#utility.yul\":7388:7391   */\n  dup2\n    /* \"#utility.yul\":7381:7386   */\n  dup2\n    /* \"#utility.yul\":7378:7392   */\n  lt\n    /* \"#utility.yul\":7371:7491   */\n  iszero\n  tag_148\n  jumpi\n    /* \"#utility.yul\":7442:7481   */\n  tag_149\n    /* \"#utility.yul\":7479:7480   */\n  0x00\n    /* \"#utility.yul\":7472:7477   */\n  dup3\n    /* \"#utility.yul\":7442:7481   */\n  tag_57\n  jump\t// in\ntag_149:\n    /* \"#utility.yul\":7415:7416   */\n  0x01\n    /* \"#utility.yul\":7408:7413   */\n  dup2\n    /* \"#utility.yul\":7404:7417   */\n  add\n    /* \"#utility.yul\":7395:7417   */\n  swap1\n  pop\n    /* \"#utility.yul\":7371:7491   */\n  jump(tag_146)\ntag_148:\n    /* \"#utility.yul\":7311:7497   */\n  pop\n  pop\n  jump\t// out\n    /* \"#utility.yul\":7503:8046   */\ntag_59:\n    /* \"#utility.yul\":7604:7606   */\n  0x1f\n    /* \"#utility.yul\":7599:7602   */\n  dup3\n    /* \"#utility.yul\":7596:7607   */\n  gt\n    /* \"#utility.yul\":7593:8039   */\n  iszero\n  tag_151\n  jumpi\n    /* \"#utility.yul\":7638:7676   */\n  tag_152\n    /* \"#utility.yul\":7670:7675   */\n  dup2\n    /* \"#utility.yul\":7638:7676   */\n  tag_47\n  jump\t// in\ntag_152:\n    /* \"#utility.yul\":7722:7751   */\n  tag_153\n    /* \"#utility.yul\":7740:7750   */\n  dup5\n    /* \"#utility.yul\":7722:7751   */\n  tag_48\n  jump\t// in\ntag_153:\n    /* \"#utility.yul\":7712:7720   */\n  dup2\n    /* \"#utility.yul\":7708:7752   */\n  add\n    /* \"#utility.yul\":7905:7907   */\n  0x20\n    /* \"#utility.yul\":7893:7903   */\n  dup6\n    /* \"#utility.yul\":7890:7908   */\n  lt\n    /* \"#utility.yul\":7887:7936   */\n  iszero\n  tag_154\n  jumpi\n    /* \"#utility.yul\":7926:7934   */\n  dup2\n    /* \"#utility.yul\":7911:7934   */\n  swap1\n  pop\n    /* \"#utility.yul\":7887:7936   */\ntag_154:\n    /* \"#utility.yul\":7949:8029   */\n  tag_155\n    /* \"#utility.yul\":8005:8027   */\n  tag_156\n    /* \"#utility.yul\":8023:8026   */\n  dup6\n    /* \"#utility.yul\":8005:8027   */\n  tag_48\n  jump\t// in\ntag_156:\n    /* \"#utility.yul\":7995:8003   */\n  dup4\n    /* \"#utility.yul\":7991:8028   */\n  add\n    /* \"#utility.yul\":7978:7989   */\n  dup3\n    /* \"#utility.yul\":7949:8029   */\n  tag_58\n  jump\t// in\ntag_155:\n    /* \"#utility.yul\":7608:8039   */\n  pop\n  pop\n    /* \"#utility.yul\":7593:8039   */\ntag_151:\n    /* \"#utility.yul\":7503:8046   */\n  pop\n  pop\n  pop\n  jump\t// out\n    /* \"#utility.yul\":8052:8169   */\ntag_60:\n    /* \"#utility.yul\":8106:8114   */\n  0x00\n    /* \"#utility.yul\":8156:8161   */\n  dup3\n    /* \"#utility.yul\":8150:8154   */\n  dup3\n    /* \"#utility.yul\":8146:8162   */\n  shr\n    /* \"#utility.yul\":8125:8162   */\n  swap1\n  pop\n    /* \"#utility.yul\":8052:8169   */\n  swap3\n  swap2\n  pop\n  pop\n  jump\t// out\n    /* \"#utility.yul\":8175:8344   */\ntag_61:\n    /* \"#utility.yul\":8219:8225   */\n  0x00\n    /* \"#utility.yul\":8252:8303   */\n  tag_159\n    /* \"#utility.yul\":8300:8301   */\n  0x00\n    /* \"#utility.yul\":8296:8302   */\n  not\n    /* \"#utility.yul\":8288:8293   */\n  dup5\n    /* \"#utility.yul\":8285:8286   */\n  0x08\n    /* \"#utility.yul\":8281:8294   */\n  mul\n    /* \"#utility.yul\":8252:8303   */\n  tag_60\n  jump\t// in\ntag_159:\n    /* \"#utility.yul\":8248:8304   */\n  not\n    /* \"#utility.yul\":8333:8337   */\n  dup1\n    /* \"#utility.yul\":8327:8331   */\n  dup4\n    /* \"#utility.yul\":8323:8338   */\n  and\n    /* \"#utility.yul\":8313:8338   */\n  swap2\n  pop\n    /* \"#utility.yul\":8226:8344   */\n  pop\n    /* \"#utility.yul\":8175:8344   */\n  swap3\n  swap2\n  pop\n  pop\n  jump\t// out\n    /* \"#utility.yul\":8349:8644   */\ntag_62:\n    /* \"#utility.yul\":8425:8429   */\n  0x00\n    /* \"#utility.yul\":8571:8600   */\n  tag_161\n    /* \"#utility.yul\":8596:8599   */\n  dup4\n    /* \"#utility.yul\":8590:8594   */\n  dup4\n    /* \"#utility.yul\":8571:8600   */\n  tag_61\n  jump\t// in\ntag_161:\n    /* \"#utility.yul\":8563:8600   */\n  swap2\n  pop\n    /* \"#utility.yul\":8633:8636   */\n  dup3\n    /* \"#utility.yul\":8630:8631   */\n  0x02\n    /* \"#utility.yul\":8626:8637   */\n  mul\n    /* \"#utility.yul\":8620:8624   */\n  dup3\n    /* \"#utility.yul\":8617:8638   */\n  or\n    /* \"#utility.yul\":8609:8638   */\n  swap1\n  pop\n    /* \"#utility.yul\":8349:8644   */\n  swap3\n  swap2\n  pop\n  pop\n  jump\t// out\n    /* \"#utility.yul\":8649:10044   */\ntag_13:\n    /* \"#utility.yul\":8766:8803   */\n  tag_163\n    /* \"#utility.yul\":8799:8802   */\n  dup3\n    /* \"#utility.yul\":8766:8803   */\n  tag_45\n  jump\t// in\ntag_163:\n    /* \"#utility.yul\":8868:8886   */\n  0xffffffffffffffff\n    /* \"#utility.yul\":8860:8866   */\n  dup2\n    /* \"#utility.yul\":8857:8887   */\n  gt\n    /* \"#utility.yul\":8854:8910   */\n  iszero\n  tag_164\n  jumpi\n    /* \"#utility.yul\":8890:8908   */\n  tag_165\n  tag_33\n  jump\t// in\ntag_165:\n    /* \"#utility.yul\":8854:8910   */\ntag_164:\n    /* \"#utility.yul\":8934:8972   */\n  tag_166\n    /* \"#utility.yul\":8966:8970   */\n  dup3\n    /* \"#utility.yul\":8960:8971   */\n  sload\n    /* \"#utility.yul\":8934:8972   */\n  tag_21\n  jump\t// in\ntag_166:\n    /* \"#utility.yul\":9019:9086   */\n  tag_167\n    /* \"#utility.yul\":9079:9085   */\n  dup3\n    /* \"#utility.yul\":9071:9077   */\n  dup3\n    /* \"#utility.yul\":9065:9069   */\n  dup6\n    /* \"#utility.yul\":9019:9086   */\n  tag_59\n  jump\t// in\ntag_167:\n    /* \"#utility.yul\":9113:9114   */\n  0x00\n    /* \"#utility.yul\":9137:9141   */\n  0x20\n    /* \"#utility.yul\":9124:9141   */\n  swap1\n  pop\n    /* \"#utility.yul\":9169:9171   */\n  0x1f\n    /* \"#utility.yul\":9161:9167   */\n  dup4\n    /* \"#utility.yul\":9158:9172   */\n  gt\n    /* \"#utility.yul\":9186:9187   */\n  0x01\n    /* \"#utility.yul\":9181:9799   */\n  dup2\n  eq\n  tag_169\n  jumpi\n    /* \"#utility.yul\":9843:9844   */\n  0x00\n    /* \"#utility.yul\":9860:9866   */\n  dup5\n    /* \"#utility.yul\":9857:9934   */\n  iszero\n  tag_170\n  jumpi\n    /* \"#utility.yul\":9909:9918   */\n  dup3\n    /* \"#utility.yul\":9904:9907   */\n  dup8\n    /* \"#utility.yul\":9900:9919   */\n  add\n    /* \"#utility.yul\":9894:9920   */\n  mload\n    /* \"#utility.yul\":9885:9920   */\n  swap1\n  pop\n    /* \"#utility.yul\":9857:9934   */\ntag_170:\n    /* \"#utility.yul\":9960:10027   */\n  tag_171\n    /* \"#utility.yul\":10020:10026   */\n  dup6\n    /* \"#utility.yul\":10013:10018   */\n  dup3\n    /* \"#utility.yul\":9960:10027   */\n  tag_62\n  jump\t// in\ntag_171:\n    /* \"#utility.yul\":9954:9958   */\n  dup7\n    /* \"#utility.yul\":9947:10028   */\n  sstore\n    /* \"#utility.yul\":9816:10038   */\n  pop\n    /* \"#utility.yul\":9151:10038   */\n  jump(tag_168)\n    /* \"#utility.yul\":9181:9799   */\ntag_169:\n    /* \"#utility.yul\":9233:9237   */\n  0x1f\n    /* \"#utility.yul\":9229:9238   */\n  not\n    /* \"#utility.yul\":9221:9227   */\n  dup5\n    /* \"#utility.yul\":9217:9239   */\n  and\n    /* \"#utility.yul\":9267:9304   */\n  tag_172\n    /* \"#utility.yul\":9299:9303   */\n  dup7\n    /* \"#utility.yul\":9267:9304   */\n  tag_47\n  jump\t// in\ntag_172:\n    /* \"#utility.yul\":9326:9327   */\n  0x00\n    /* \"#utility.yul\":9340:9548   */\ntag_173:\n    /* \"#utility.yul\":9354:9361   */\n  dup3\n    /* \"#utility.yul\":9351:9352   */\n  dup2\n    /* \"#utility.yul\":9348:9362   */\n  lt\n    /* \"#utility.yul\":9340:9548   */\n  iszero\n  tag_175\n  jumpi\n    /* \"#utility.yul\":9433:9442   */\n  dup5\n    /* \"#utility.yul\":9428:9431   */\n  dup10\n    /* \"#utility.yul\":9424:9443   */\n  add\n    /* \"#utility.yul\":9418:9444   */\n  mload\n    /* \"#utility.yul\":9410:9416   */\n  dup3\n    /* \"#utility.yul\":9403:9445   */\n  sstore\n    /* \"#utility.yul\":9484:9485   */\n  0x01\n    /* \"#utility.yul\":9476:9482   */\n  dup3\n    /* \"#utility.yul\":9472:9486   */\n  add\n    /* \"#utility.yul\":9462:9486   */\n  swap2\n  pop\n    /* \"#utility.yul\":9531:9533   */\n  0x20\n    /* \"#utility.yul\":9520:9529   */\n  dup6\n    /* \"#utility.yul\":9516:9534   */\n  add\n    /* \"#utility.yul\":9503:9534   */\n  swap5\n  pop\n    /* \"#utility.yul\":9377:9381   */\n  0x20\n    /* \"#utility.yul\":9374:9375   */\n  dup2\n    /* \"#utility.yul\":9370:9382   */\n  add\n    /* \"#utility.yul\":9365:9382   */\n  swap1\n  pop\n    /* \"#utility.yul\":9340:9548   */\n  jump(tag_173)\ntag_175:\n    /* \"#utility.yul\":9576:9582   */\n  dup7\n    /* \"#utility.yul\":9567:9574   */\n  dup4\n    /* \"#utility.yul\":9564:9583   */\n  lt\n    /* \"#utility.yul\":9561:9740   */\n  iszero\n  tag_176\n  jumpi\n    /* \"#utility.yul\":9634:9643   */\n  dup5\n    /* \"#utility.yul\":9629:9632   */\n  dup10\n    /* \"#utility.yul\":9625:9644   */\n  add\n    /* \"#utility.yul\":9619:9645   */\n  mload\n    /* \"#utility.yul\":9677:9725   */\n  tag_177\n    /* \"#utility.yul\":9719:9723   */\n  0x1f\n    /* \"#utility.yul\":9711:9717   */\n  dup10\n    /* \"#utility.yul\":9707:9724   */\n  and\n    /* \"#utility.yul\":9696:9705   */\n  dup3\n    /* \"#utility.yul\":9677:9725   */\n  tag_61\n  jump\t// in\ntag_177:\n    /* \"#utility.yul\":9669:9675   */\n  dup4\n    /* \"#utility.yul\":9662:9726   */\n  sstore\n    /* \"#utility.yul\":9584:9740   */\n  pop\n    /* \"#utility.yul\":9561:9740   */\ntag_176:\n    /* \"#utility.yul\":9786:9787   */\n  0x01\n    /* \"#utility.yul\":9782:9783   */\n  0x02\n    /* \"#utility.yul\":9774:9780   */\n  dup9\n    /* \"#utility.yul\":9770:9784   */\n  mul\n    /* \"#utility.yul\":9766:9788   */\n  add\n    /* \"#utility.yul\":9760:9764   */\n  dup9\n    /* \"#utility.yul\":9753:9789   */\n  sstore\n    /* \"#utility.yul\":9188:9799   */\n  pop\n  pop\n  pop\n    /* \"#utility.yul\":9151:10038   */\ntag_168:\n  pop\n    /* \"#utility.yul\":8741:10044   */\n  pop\n  pop\n  pop\n    /* \"#utility.yul\":8649:10044   */\n  pop\n  pop\n  jump\t// out\n    /* \"contracts/5_Loops.sol\":168:1321  contract Loops {... */\ntag_8:\n  dataSize(sub_0)\n  dup1\n  dataOffset(sub_0)\n  0x00\n  codecopy\n  0x00\n  return\nstop\n\nsub_0: assembly {\n        /* \"contracts/5_Loops.sol\":168:1321  contract Loops {... */\n      mstore(0x40, 0x80)\n      callvalue\n      dup1\n      iszero\n      tag_1\n      jumpi\n      0x00\n      dup1\n      revert\n    tag_1:\n      pop\n      jumpi(tag_2, lt(calldatasize, 0x04))\n      shr(0xe0, calldataload(0x00))\n      dup1\n      0x61bc221a\n      eq\n      tag_3\n      jumpi\n      dup1\n      0x670686f5\n      eq\n      tag_4\n      jumpi\n      dup1\n      0x8ada066e\n      eq\n      tag_5\n      jumpi\n      dup1\n      0xe0d64b37\n      eq\n      tag_6\n      jumpi\n      dup1\n      0xfbd8ca27\n      eq\n      tag_7\n      jumpi\n    tag_2:\n      0x00\n      dup1\n      revert\n        /* \"contracts/5_Loops.sol\":263:282  uint public counter */\n    tag_3:\n      tag_8\n      tag_9\n      jump\t// in\n    tag_8:\n      mload(0x40)\n      tag_10\n      swap2\n      swap1\n      tag_11\n      jump\t// in\n    tag_10:\n      mload(0x40)\n      dup1\n      swap2\n      sub\n      swap1\n      return\n        /* \"contracts/5_Loops.sol\":388:583  function loopWhatever() public {... */\n    tag_4:\n      tag_12\n      tag_13\n      jump\t// in\n    tag_12:\n      stop\n        /* \"contracts/5_Loops.sol\":880:967  function getCounter() public view returns(uint){... */\n    tag_5:\n      tag_14\n      tag_15\n      jump\t// in\n    tag_14:\n      mload(0x40)\n      tag_16\n      swap2\n      swap1\n      tag_11\n      jump\t// in\n    tag_16:\n      mload(0x40)\n      dup1\n      swap2\n      sub\n      swap1\n      return\n        /* \"contracts/5_Loops.sol\":229:253  string[] public elements */\n    tag_6:\n      tag_17\n      0x04\n      dup1\n      calldatasize\n      sub\n      dup2\n      add\n      swap1\n      tag_18\n      swap2\n      swap1\n      tag_19\n      jump\t// in\n    tag_18:\n      tag_20\n      jump\t// in\n    tag_17:\n      mload(0x40)\n      tag_21\n      swap2\n      swap1\n      tag_22\n      jump\t// in\n    tag_21:\n      mload(0x40)\n      dup1\n      swap2\n      sub\n      swap1\n      return\n        /* \"contracts/5_Loops.sol\":594:869  function loopWhateverInMemory (string[] memory memoryElements) public pure {... */\n    tag_7:\n      tag_23\n      0x04\n      dup1\n      calldatasize\n      sub\n      dup2\n      add\n      swap1\n      tag_24\n      swap2\n      swap1\n      tag_25\n      jump\t// in\n    tag_24:\n      tag_26\n      jump\t// in\n    tag_23:\n      stop\n        /* \"contracts/5_Loops.sol\":263:282  uint public counter */\n    tag_9:\n      sload(0x01)\n      dup2\n      jump\t// out\n        /* \"contracts/5_Loops.sol\":388:583  function loopWhatever() public {... */\n    tag_13:\n        /* \"contracts/5_Loops.sol\":437:443  uint i */\n      0x00\n        /* \"contracts/5_Loops.sol\":433:572  for(uint i = 0; i< elements.length; i++){... */\n    tag_28:\n        /* \"contracts/5_Loops.sol\":452:460  elements */\n      0x00\n        /* \"contracts/5_Loops.sol\":452:467  elements.length */\n      dup1\n      sload\n      swap1\n      pop\n        /* \"contracts/5_Loops.sol\":449:450  i */\n      dup2\n        /* \"contracts/5_Loops.sol\":449:467  i< elements.length */\n      lt\n        /* \"contracts/5_Loops.sol\":433:572  for(uint i = 0; i< elements.length; i++){... */\n      iszero\n      tag_29\n      jumpi\n        /* \"contracts/5_Loops.sol\":509:510  1 */\n      0x01\n        /* \"contracts/5_Loops.sol\":500:507  counter */\n      dup1\n      sload\n        /* \"contracts/5_Loops.sol\":500:510  counter +1 */\n      tag_31\n      swap2\n      swap1\n      tag_32\n      jump\t// in\n    tag_31:\n        /* \"contracts/5_Loops.sol\":490:497  counter */\n      0x01\n        /* \"contracts/5_Loops.sol\":490:510  counter = counter +1 */\n      dup2\n      swap1\n      sstore\n      pop\n        /* \"contracts/5_Loops.sol\":527:535  elements */\n      0x00\n        /* \"contracts/5_Loops.sol\":527:556  elements.push(\"pushed value\") */\n      dup1\n      0x01\n      dup2\n      sload\n      add\n      dup1\n      dup3\n      sstore\n      dup1\n      swap2\n      pop\n      pop\n      0x01\n      swap1\n      sub\n      swap1\n      0x00\n      mstore\n      keccak256(0x00, 0x20)\n      add\n      0x00\n      mload(0x40)\n      dup1\n      0x40\n      add\n      0x40\n      mstore\n      dup1\n      0x0c\n      dup2\n      mstore\n      0x20\n      add\n      0x7075736865642076616c75650000000000000000000000000000000000000000\n      dup2\n      mstore\n      pop\n      swap1\n      swap2\n      swap1\n      swap2\n      pop\n      swap1\n      dup2\n      tag_34\n      swap2\n      swap1\n      tag_35\n      jump\t// in\n    tag_34:\n      pop\n        /* \"contracts/5_Loops.sol\":469:472  i++ */\n      dup1\n      dup1\n      0x01\n      add\n      swap2\n      pop\n      pop\n        /* \"contracts/5_Loops.sol\":433:572  for(uint i = 0; i< elements.length; i++){... */\n      jump(tag_28)\n    tag_29:\n      pop\n        /* \"contracts/5_Loops.sol\":388:583  function loopWhatever() public {... */\n      jump\t// out\n        /* \"contracts/5_Loops.sol\":880:967  function getCounter() public view returns(uint){... */\n    tag_15:\n        /* \"contracts/5_Loops.sol\":922:926  uint */\n      0x00\n        /* \"contracts/5_Loops.sol\":948:955  counter */\n      sload(0x01)\n        /* \"contracts/5_Loops.sol\":941:955  return counter */\n      swap1\n      pop\n        /* \"contracts/5_Loops.sol\":880:967  function getCounter() public view returns(uint){... */\n      swap1\n      jump\t// out\n        /* \"contracts/5_Loops.sol\":229:253  string[] public elements */\n    tag_20:\n      0x00\n      dup2\n      dup2\n      sload\n      dup2\n      lt\n      tag_37\n      jumpi\n      0x00\n      dup1\n      revert\n    tag_37:\n      swap1\n      0x00\n      mstore\n      keccak256(0x00, 0x20)\n      add\n      0x00\n      swap2\n      pop\n      swap1\n      pop\n      dup1\n      sload\n      tag_39\n      swap1\n      tag_40\n      jump\t// in\n    tag_39:\n      dup1\n      0x1f\n      add\n      0x20\n      dup1\n      swap2\n      div\n      mul\n      0x20\n      add\n      mload(0x40)\n      swap1\n      dup2\n      add\n      0x40\n      mstore\n      dup1\n      swap3\n      swap2\n      swap1\n      dup2\n      dup2\n      mstore\n      0x20\n      add\n      dup3\n      dup1\n      sload\n      tag_41\n      swap1\n      tag_40\n      jump\t// in\n    tag_41:\n      dup1\n      iszero\n      tag_42\n      jumpi\n      dup1\n      0x1f\n      lt\n      tag_43\n      jumpi\n      0x0100\n      dup1\n      dup4\n      sload\n      div\n      mul\n      dup4\n      mstore\n      swap2\n      0x20\n      add\n      swap2\n      jump(tag_42)\n    tag_43:\n      dup3\n      add\n      swap2\n      swap1\n      0x00\n      mstore\n      keccak256(0x00, 0x20)\n      swap1\n    tag_44:\n      dup2\n      sload\n      dup2\n      mstore\n      swap1\n      0x01\n      add\n      swap1\n      0x20\n      add\n      dup1\n      dup4\n      gt\n      tag_44\n      jumpi\n      dup3\n      swap1\n      sub\n      0x1f\n      and\n      dup3\n      add\n      swap2\n    tag_42:\n      pop\n      pop\n      pop\n      pop\n      pop\n      dup2\n      jump\t// out\n        /* \"contracts/5_Loops.sol\":594:869  function loopWhateverInMemory (string[] memory memoryElements) public pure {... */\n    tag_26:\n        /* \"contracts/5_Loops.sol\":687:693  uint i */\n      0x00\n        /* \"contracts/5_Loops.sol\":683:858  for(uint i = 0; i< memoryElements.length; i++){... */\n    tag_46:\n        /* \"contracts/5_Loops.sol\":702:716  memoryElements */\n      dup2\n        /* \"contracts/5_Loops.sol\":702:723  memoryElements.length */\n      mload\n        /* \"contracts/5_Loops.sol\":699:700  i */\n      dup2\n        /* \"contracts/5_Loops.sol\":699:723  i< memoryElements.length */\n      lt\n        /* \"contracts/5_Loops.sol\":683:858  for(uint i = 0; i< memoryElements.length; i++){... */\n      iszero\n      tag_47\n      jumpi\n        /* \"contracts/5_Loops.sol\":745:771  memoryElements[i] = \"ciao\" */\n      mload(0x40)\n      dup1\n      0x40\n      add\n      0x40\n      mstore\n      dup1\n      0x04\n      dup2\n      mstore\n      0x20\n      add\n      0x6369616f00000000000000000000000000000000000000000000000000000000\n      dup2\n      mstore\n      pop\n        /* \"contracts/5_Loops.sol\":745:759  memoryElements */\n      dup3\n        /* \"contracts/5_Loops.sol\":760:761  i */\n      dup3\n        /* \"contracts/5_Loops.sol\":745:762  memoryElements[i] */\n      dup2\n      mload\n      dup2\n      lt\n      tag_49\n      jumpi\n      tag_50\n      tag_51\n      jump\t// in\n    tag_50:\n    tag_49:\n      0x20\n      mul\n      0x20\n      add\n      add\n        /* \"contracts/5_Loops.sol\":745:771  memoryElements[i] = \"ciao\" */\n      dup2\n      swap1\n      mstore\n      pop\n        /* \"contracts/5_Loops.sol\":725:728  i++ */\n      dup1\n      dup1\n      0x01\n      add\n      swap2\n      pop\n      pop\n        /* \"contracts/5_Loops.sol\":683:858  for(uint i = 0; i< memoryElements.length; i++){... */\n      jump(tag_46)\n    tag_47:\n      pop\n        /* \"contracts/5_Loops.sol\":594:869  function loopWhateverInMemory (string[] memory memoryElements) public pure {... */\n      pop\n      jump\t// out\n        /* \"#utility.yul\":7:84   */\n    tag_52:\n        /* \"#utility.yul\":44:51   */\n      0x00\n        /* \"#utility.yul\":73:78   */\n      dup2\n        /* \"#utility.yul\":62:78   */\n      swap1\n      pop\n        /* \"#utility.yul\":7:84   */\n      swap2\n      swap1\n      pop\n      jump\t// out\n        /* \"#utility.yul\":90:208   */\n    tag_53:\n        /* \"#utility.yul\":177:201   */\n      tag_97\n        /* \"#utility.yul\":195:200   */\n      dup2\n        /* \"#utility.yul\":177:201   */\n      tag_52\n      jump\t// in\n    tag_97:\n        /* \"#utility.yul\":172:175   */\n      dup3\n        /* \"#utility.yul\":165:202   */\n      mstore\n        /* \"#utility.yul\":90:208   */\n      pop\n      pop\n      jump\t// out\n        /* \"#utility.yul\":214:436   */\n    tag_11:\n        /* \"#utility.yul\":307:311   */\n      0x00\n        /* \"#utility.yul\":345:347   */\n      0x20\n        /* \"#utility.yul\":334:343   */\n      dup3\n        /* \"#utility.yul\":330:348   */\n      add\n        /* \"#utility.yul\":322:348   */\n      swap1\n      pop\n        /* \"#utility.yul\":358:429   */\n      tag_99\n        /* \"#utility.yul\":426:427   */\n      0x00\n        /* \"#utility.yul\":415:424   */\n      dup4\n        /* \"#utility.yul\":411:428   */\n      add\n        /* \"#utility.yul\":402:408   */\n      dup5\n        /* \"#utility.yul\":358:429   */\n      tag_53\n      jump\t// in\n    tag_99:\n        /* \"#utility.yul\":214:436   */\n      swap3\n      swap2\n      pop\n      pop\n      jump\t// out\n        /* \"#utility.yul\":442:517   */\n    tag_54:\n        /* \"#utility.yul\":475:481   */\n      0x00\n        /* \"#utility.yul\":508:510   */\n      0x40\n        /* \"#utility.yul\":502:511   */\n      mload\n        /* \"#utility.yul\":492:511   */\n      swap1\n      pop\n        /* \"#utility.yul\":442:517   */\n      swap1\n      jump\t// out\n        /* \"#utility.yul\":523:640   */\n    tag_55:\n        /* \"#utility.yul\":632:633   */\n      0x00\n        /* \"#utility.yul\":629:630   */\n      dup1\n        /* \"#utility.yul\":622:634   */\n      revert\n        /* \"#utility.yul\":646:763   */\n    tag_56:\n        /* \"#utility.yul\":755:756   */\n      0x00\n        /* \"#utility.yul\":752:753   */\n      dup1\n        /* \"#utility.yul\":745:757   */\n      revert\n        /* \"#utility.yul\":769:891   */\n    tag_57:\n        /* \"#utility.yul\":842:866   */\n      tag_104\n        /* \"#utility.yul\":860:865   */\n      dup2\n        /* \"#utility.yul\":842:866   */\n      tag_52\n      jump\t// in\n    tag_104:\n        /* \"#utility.yul\":835:840   */\n      dup2\n        /* \"#utility.yul\":832:867   */\n      eq\n        /* \"#utility.yul\":822:885   */\n      tag_105\n      jumpi\n        /* \"#utility.yul\":881:882   */\n      0x00\n        /* \"#utility.yul\":878:879   */\n      dup1\n        /* \"#utility.yul\":871:883   */\n      revert\n        /* \"#utility.yul\":822:885   */\n    tag_105:\n        /* \"#utility.yul\":769:891   */\n      pop\n      jump\t// out\n        /* \"#utility.yul\":897:1036   */\n    tag_58:\n        /* \"#utility.yul\":943:948   */\n      0x00\n        /* \"#utility.yul\":981:987   */\n      dup2\n        /* \"#utility.yul\":968:988   */\n      calldataload\n        /* \"#utility.yul\":959:988   */\n      swap1\n      pop\n        /* \"#utility.yul\":997:1030   */\n      tag_107\n        /* \"#utility.yul\":1024:1029   */\n      dup2\n        /* \"#utility.yul\":997:1030   */\n      tag_57\n      jump\t// in\n    tag_107:\n        /* \"#utility.yul\":897:1036   */\n      swap3\n      swap2\n      pop\n      pop\n      jump\t// out\n        /* \"#utility.yul\":1042:1371   */\n    tag_19:\n        /* \"#utility.yul\":1101:1107   */\n      0x00\n        /* \"#utility.yul\":1150:1152   */\n      0x20\n        /* \"#utility.yul\":1138:1147   */\n      dup3\n        /* \"#utility.yul\":1129:1136   */\n      dup5\n        /* \"#utility.yul\":1125:1148   */\n      sub\n        /* \"#utility.yul\":1121:1153   */\n      slt\n        /* \"#utility.yul\":1118:1237   */\n      iszero\n      tag_109\n      jumpi\n        /* \"#utility.yul\":1156:1235   */\n      tag_110\n      tag_55\n      jump\t// in\n    tag_110:\n        /* \"#utility.yul\":1118:1237   */\n    tag_109:\n        /* \"#utility.yul\":1276:1277   */\n      0x00\n        /* \"#utility.yul\":1301:1354   */\n      tag_111\n        /* \"#utility.yul\":1346:1353   */\n      dup5\n        /* \"#utility.yul\":1337:1343   */\n      dup3\n        /* \"#utility.yul\":1326:1335   */\n      dup6\n        /* \"#utility.yul\":1322:1344   */\n      add\n        /* \"#utility.yul\":1301:1354   */\n      tag_58\n      jump\t// in\n    tag_111:\n        /* \"#utility.yul\":1291:1354   */\n      swap2\n      pop\n        /* \"#utility.yul\":1247:1364   */\n      pop\n        /* \"#utility.yul\":1042:1371   */\n      swap3\n      swap2\n      pop\n      pop\n      jump\t// out\n        /* \"#utility.yul\":1377:1476   */\n    tag_59:\n        /* \"#utility.yul\":1429:1435   */\n      0x00\n        /* \"#utility.yul\":1463:1468   */\n      dup2\n        /* \"#utility.yul\":1457:1469   */\n      mload\n        /* \"#utility.yul\":1447:1469   */\n      swap1\n      pop\n        /* \"#utility.yul\":1377:1476   */\n      swap2\n      swap1\n      pop\n      jump\t// out\n        /* \"#utility.yul\":1482:1651   */\n    tag_60:\n        /* \"#utility.yul\":1566:1577   */\n      0x00\n        /* \"#utility.yul\":1600:1606   */\n      dup3\n        /* \"#utility.yul\":1595:1598   */\n      dup3\n        /* \"#utility.yul\":1588:1607   */\n      mstore\n        /* \"#utility.yul\":1640:1644   */\n      0x20\n        /* \"#utility.yul\":1635:1638   */\n      dup3\n        /* \"#utility.yul\":1631:1645   */\n      add\n        /* \"#utility.yul\":1616:1645   */\n      swap1\n      pop\n        /* \"#utility.yul\":1482:1651   */\n      swap3\n      swap2\n      pop\n      pop\n      jump\t// out\n        /* \"#utility.yul\":1657:1796   */\n    tag_61:\n        /* \"#utility.yul\":1746:1752   */\n      dup3\n        /* \"#utility.yul\":1741:1744   */\n      dup2\n        /* \"#utility.yul\":1736:1739   */\n      dup4\n        /* \"#utility.yul\":1730:1753   */\n      mcopy\n        /* \"#utility.yul\":1787:1788   */\n      0x00\n        /* \"#utility.yul\":1778:1784   */\n      dup4\n        /* \"#utility.yul\":1773:1776   */\n      dup4\n        /* \"#utility.yul\":1769:1785   */\n      add\n        /* \"#utility.yul\":1762:1789   */\n      mstore\n        /* \"#utility.yul\":1657:1796   */\n      pop\n      pop\n      pop\n      jump\t// out\n        /* \"#utility.yul\":1802:1904   */\n    tag_62:\n        /* \"#utility.yul\":1843:1849   */\n      0x00\n        /* \"#utility.yul\":1894:1896   */\n      0x1f\n        /* \"#utility.yul\":1890:1897   */\n      not\n        /* \"#utility.yul\":1885:1887   */\n      0x1f\n        /* \"#utility.yul\":1878:1883   */\n      dup4\n        /* \"#utility.yul\":1874:1888   */\n      add\n        /* \"#utility.yul\":1870:1898   */\n      and\n        /* \"#utility.yul\":1860:1898   */\n      swap1\n      pop\n        /* \"#utility.yul\":1802:1904   */\n      swap2\n      swap1\n      pop\n      jump\t// out\n        /* \"#utility.yul\":1910:2287   */\n    tag_63:\n        /* \"#utility.yul\":1998:2001   */\n      0x00\n        /* \"#utility.yul\":2026:2065   */\n      tag_117\n        /* \"#utility.yul\":2059:2064   */\n      dup3\n        /* \"#utility.yul\":2026:2065   */\n      tag_59\n      jump\t// in\n    tag_117:\n        /* \"#utility.yul\":2081:2152   */\n      tag_118\n        /* \"#utility.yul\":2145:2151   */\n      dup2\n        /* \"#utility.yul\":2140:2143   */\n      dup6\n        /* \"#utility.yul\":2081:2152   */\n      tag_60\n      jump\t// in\n    tag_118:\n        /* \"#utility.yul\":2074:2152   */\n      swap4\n      pop\n        /* \"#utility.yul\":2161:2226   */\n      tag_119\n        /* \"#utility.yul\":2219:2225   */\n      dup2\n        /* \"#utility.yul\":2214:2217   */\n      dup6\n        /* \"#utility.yul\":2207:2211   */\n      0x20\n        /* \"#utility.yul\":2200:2205   */\n      dup7\n        /* \"#utility.yul\":2196:2212   */\n      add\n        /* \"#utility.yul\":2161:2226   */\n      tag_61\n      jump\t// in\n    tag_119:\n        /* \"#utility.yul\":2251:2280   */\n      tag_120\n        /* \"#utility.yul\":2273:2279   */\n      dup2\n        /* \"#utility.yul\":2251:2280   */\n      tag_62\n      jump\t// in\n    tag_120:\n        /* \"#utility.yul\":2246:2249   */\n      dup5\n        /* \"#utility.yul\":2242:2281   */\n      add\n        /* \"#utility.yul\":2235:2281   */\n      swap2\n      pop\n        /* \"#utility.yul\":2002:2287   */\n      pop\n        /* \"#utility.yul\":1910:2287   */\n      swap3\n      swap2\n      pop\n      pop\n      jump\t// out\n        /* \"#utility.yul\":2293:2606   */\n    tag_22:\n        /* \"#utility.yul\":2406:2410   */\n      0x00\n        /* \"#utility.yul\":2444:2446   */\n      0x20\n        /* \"#utility.yul\":2433:2442   */\n      dup3\n        /* \"#utility.yul\":2429:2447   */\n      add\n        /* \"#utility.yul\":2421:2447   */\n      swap1\n      pop\n        /* \"#utility.yul\":2493:2502   */\n      dup2\n        /* \"#utility.yul\":2487:2491   */\n      dup2\n        /* \"#utility.yul\":2483:2503   */\n      sub\n        /* \"#utility.yul\":2479:2480   */\n      0x00\n        /* \"#utility.yul\":2468:2477   */\n      dup4\n        /* \"#utility.yul\":2464:2481   */\n      add\n        /* \"#utility.yul\":2457:2504   */\n      mstore\n        /* \"#utility.yul\":2521:2599   */\n      tag_122\n        /* \"#utility.yul\":2594:2598   */\n      dup2\n        /* \"#utility.yul\":2585:2591   */\n      dup5\n        /* \"#utility.yul\":2521:2599   */\n      tag_63\n      jump\t// in\n    tag_122:\n        /* \"#utility.yul\":2513:2599   */\n      swap1\n      pop\n        /* \"#utility.yul\":2293:2606   */\n      swap3\n      swap2\n      pop\n      pop\n      jump\t// out\n        /* \"#utility.yul\":2612:2729   */\n    tag_64:\n        /* \"#utility.yul\":2721:2722   */\n      0x00\n        /* \"#utility.yul\":2718:2719   */\n      dup1\n        /* \"#utility.yul\":2711:2723   */\n      revert\n        /* \"#utility.yul\":2735:2915   */\n    tag_65:\n        /* \"#utility.yul\":2783:2860   */\n      0x4e487b7100000000000000000000000000000000000000000000000000000000\n        /* \"#utility.yul\":2780:2781   */\n      0x00\n        /* \"#utility.yul\":2773:2861   */\n      mstore\n        /* \"#utility.yul\":2880:2884   */\n      0x41\n        /* \"#utility.yul\":2877:2878   */\n      0x04\n        /* \"#utility.yul\":2870:2885   */\n      mstore\n        /* \"#utility.yul\":2904:2908   */\n      0x24\n        /* \"#utility.yul\":2901:2902   */\n      0x00\n        /* \"#utility.yul\":2894:2909   */\n      revert\n        /* \"#utility.yul\":2921:3202   */\n    tag_66:\n        /* \"#utility.yul\":3004:3031   */\n      tag_126\n        /* \"#utility.yul\":3026:3030   */\n      dup3\n        /* \"#utility.yul\":3004:3031   */\n      tag_62\n      jump\t// in\n    tag_126:\n        /* \"#utility.yul\":2996:3002   */\n      dup2\n        /* \"#utility.yul\":2992:3032   */\n      add\n        /* \"#utility.yul\":3134:3140   */\n      dup2\n        /* \"#utility.yul\":3122:3132   */\n      dup2\n        /* \"#utility.yul\":3119:3141   */\n      lt\n        /* \"#utility.yul\":3098:3116   */\n      0xffffffffffffffff\n        /* \"#utility.yul\":3086:3096   */\n      dup3\n        /* \"#utility.yul\":3083:3117   */\n      gt\n        /* \"#utility.yul\":3080:3142   */\n      or\n        /* \"#utility.yul\":3077:3165   */\n      iszero\n      tag_127\n      jumpi\n        /* \"#utility.yul\":3145:3163   */\n      tag_128\n      tag_65\n      jump\t// in\n    tag_128:\n        /* \"#utility.yul\":3077:3165   */\n    tag_127:\n        /* \"#utility.yul\":3185:3195   */\n      dup1\n        /* \"#utility.yul\":3181:3183   */\n      0x40\n        /* \"#utility.yul\":3174:3196   */\n      mstore\n        /* \"#utility.yul\":2964:3202   */\n      pop\n        /* \"#utility.yul\":2921:3202   */\n      pop\n      pop\n      jump\t// out\n        /* \"#utility.yul\":3208:3337   */\n    tag_67:\n        /* \"#utility.yul\":3242:3248   */\n      0x00\n        /* \"#utility.yul\":3269:3289   */\n      tag_130\n      tag_54\n      jump\t// in\n    tag_130:\n        /* \"#utility.yul\":3259:3289   */\n      swap1\n      pop\n        /* \"#utility.yul\":3298:3331   */\n      tag_131\n        /* \"#utility.yul\":3326:3330   */\n      dup3\n        /* \"#utility.yul\":3318:3324   */\n      dup3\n        /* \"#utility.yul\":3298:3331   */\n      tag_66\n      jump\t// in\n    tag_131:\n        /* \"#utility.yul\":3208:3337   */\n      swap2\n      swap1\n      pop\n      jump\t// out\n        /* \"#utility.yul\":3343:3664   */\n    tag_68:\n        /* \"#utility.yul\":3430:3434   */\n      0x00\n        /* \"#utility.yul\":3520:3538   */\n      0xffffffffffffffff\n        /* \"#utility.yul\":3512:3518   */\n      dup3\n        /* \"#utility.yul\":3509:3539   */\n      gt\n        /* \"#utility.yul\":3506:3562   */\n      iszero\n      tag_133\n      jumpi\n        /* \"#utility.yul\":3542:3560   */\n      tag_134\n      tag_65\n      jump\t// in\n    tag_134:\n        /* \"#utility.yul\":3506:3562   */\n    tag_133:\n        /* \"#utility.yul\":3592:3596   */\n      0x20\n        /* \"#utility.yul\":3584:3590   */\n      dup3\n        /* \"#utility.yul\":3580:3597   */\n      mul\n        /* \"#utility.yul\":3572:3597   */\n      swap1\n      pop\n        /* \"#utility.yul\":3652:3656   */\n      0x20\n        /* \"#utility.yul\":3646:3650   */\n      dup2\n        /* \"#utility.yul\":3642:3657   */\n      add\n        /* \"#utility.yul\":3634:3657   */\n      swap1\n      pop\n        /* \"#utility.yul\":3343:3664   */\n      swap2\n      swap1\n      pop\n      jump\t// out\n        /* \"#utility.yul\":3670:3787   */\n    tag_69:\n        /* \"#utility.yul\":3779:3780   */\n      0x00\n        /* \"#utility.yul\":3776:3777   */\n      dup1\n        /* \"#utility.yul\":3769:3781   */\n      revert\n        /* \"#utility.yul\":3793:3910   */\n    tag_70:\n        /* \"#utility.yul\":3902:3903   */\n      0x00\n        /* \"#utility.yul\":3899:3900   */\n      dup1\n        /* \"#utility.yul\":3892:3904   */\n      revert\n        /* \"#utility.yul\":3916:4224   */\n    tag_71:\n        /* \"#utility.yul\":3978:3982   */\n      0x00\n        /* \"#utility.yul\":4068:4086   */\n      0xffffffffffffffff\n        /* \"#utility.yul\":4060:4066   */\n      dup3\n        /* \"#utility.yul\":4057:4087   */\n      gt\n        /* \"#utility.yul\":4054:4110   */\n      iszero\n      tag_138\n      jumpi\n        /* \"#utility.yul\":4090:4108   */\n      tag_139\n      tag_65\n      jump\t// in\n    tag_139:\n        /* \"#utility.yul\":4054:4110   */\n    tag_138:\n        /* \"#utility.yul\":4128:4157   */\n      tag_140\n        /* \"#utility.yul\":4150:4156   */\n      dup3\n        /* \"#utility.yul\":4128:4157   */\n      tag_62\n      jump\t// in\n    tag_140:\n        /* \"#utility.yul\":4120:4157   */\n      swap1\n      pop\n        /* \"#utility.yul\":4212:4216   */\n      0x20\n        /* \"#utility.yul\":4206:4210   */\n      dup2\n        /* \"#utility.yul\":4202:4217   */\n      add\n        /* \"#utility.yul\":4194:4217   */\n      swap1\n      pop\n        /* \"#utility.yul\":3916:4224   */\n      swap2\n      swap1\n      pop\n      jump\t// out\n        /* \"#utility.yul\":4230:4378   */\n    tag_72:\n        /* \"#utility.yul\":4328:4334   */\n      dup3\n        /* \"#utility.yul\":4323:4326   */\n      dup2\n        /* \"#utility.yul\":4318:4321   */\n      dup4\n        /* \"#utility.yul\":4305:4335   */\n      calldatacopy\n        /* \"#utility.yul\":4369:4370   */\n      0x00\n        /* \"#utility.yul\":4360:4366   */\n      dup4\n        /* \"#utility.yul\":4355:4358   */\n      dup4\n        /* \"#utility.yul\":4351:4367   */\n      add\n        /* \"#utility.yul\":4344:4371   */\n      mstore\n        /* \"#utility.yul\":4230:4378   */\n      pop\n      pop\n      pop\n      jump\t// out\n        /* \"#utility.yul\":4384:4809   */\n    tag_73:\n        /* \"#utility.yul\":4462:4467   */\n      0x00\n        /* \"#utility.yul\":4487:4553   */\n      tag_143\n        /* \"#utility.yul\":4503:4552   */\n      tag_144\n        /* \"#utility.yul\":4545:4551   */\n      dup5\n        /* \"#utility.yul\":4503:4552   */\n      tag_71\n      jump\t// in\n    tag_144:\n        /* \"#utility.yul\":4487:4553   */\n      tag_67\n      jump\t// in\n    tag_143:\n        /* \"#utility.yul\":4478:4553   */\n      swap1\n      pop\n        /* \"#utility.yul\":4576:4582   */\n      dup3\n        /* \"#utility.yul\":4569:4574   */\n      dup2\n        /* \"#utility.yul\":4562:4583   */\n      mstore\n        /* \"#utility.yul\":4614:4618   */\n      0x20\n        /* \"#utility.yul\":4607:4612   */\n      dup2\n        /* \"#utility.yul\":4603:4619   */\n      add\n        /* \"#utility.yul\":4652:4655   */\n      dup5\n        /* \"#utility.yul\":4643:4649   */\n      dup5\n        /* \"#utility.yul\":4638:4641   */\n      dup5\n        /* \"#utility.yul\":4634:4650   */\n      add\n        /* \"#utility.yul\":4631:4656   */\n      gt\n        /* \"#utility.yul\":4628:4740   */\n      iszero\n      tag_145\n      jumpi\n        /* \"#utility.yul\":4659:4738   */\n      tag_146\n      tag_70\n      jump\t// in\n    tag_146:\n        /* \"#utility.yul\":4628:4740   */\n    tag_145:\n        /* \"#utility.yul\":4749:4803   */\n      tag_147\n        /* \"#utility.yul\":4796:4802   */\n      dup5\n        /* \"#utility.yul\":4791:4794   */\n      dup3\n        /* \"#utility.yul\":4786:4789   */\n      dup6\n        /* \"#utility.yul\":4749:4803   */\n      tag_72\n      jump\t// in\n    tag_147:\n        /* \"#utility.yul\":4468:4809   */\n      pop\n        /* \"#utility.yul\":4384:4809   */\n      swap4\n      swap3\n      pop\n      pop\n      pop\n      jump\t// out\n        /* \"#utility.yul\":4829:5169   */\n    tag_74:\n        /* \"#utility.yul\":4885:4890   */\n      0x00\n        /* \"#utility.yul\":4934:4937   */\n      dup3\n        /* \"#utility.yul\":4927:4931   */\n      0x1f\n        /* \"#utility.yul\":4919:4925   */\n      dup4\n        /* \"#utility.yul\":4915:4932   */\n      add\n        /* \"#utility.yul\":4911:4938   */\n      slt\n        /* \"#utility.yul\":4901:5023   */\n      tag_149\n      jumpi\n        /* \"#utility.yul\":4942:5021   */\n      tag_150\n      tag_64\n      jump\t// in\n    tag_150:\n        /* \"#utility.yul\":4901:5023   */\n    tag_149:\n        /* \"#utility.yul\":5059:5065   */\n      dup2\n        /* \"#utility.yul\":5046:5066   */\n      calldataload\n        /* \"#utility.yul\":5084:5163   */\n      tag_151\n        /* \"#utility.yul\":5159:5162   */\n      dup5\n        /* \"#utility.yul\":5151:5157   */\n      dup3\n        /* \"#utility.yul\":5144:5148   */\n      0x20\n        /* \"#utility.yul\":5136:5142   */\n      dup7\n        /* \"#utility.yul\":5132:5149   */\n      add\n        /* \"#utility.yul\":5084:5163   */\n      tag_73\n      jump\t// in\n    tag_151:\n        /* \"#utility.yul\":5075:5163   */\n      swap2\n      pop\n        /* \"#utility.yul\":4891:5169   */\n      pop\n        /* \"#utility.yul\":4829:5169   */\n      swap3\n      swap2\n      pop\n      pop\n      jump\t// out\n        /* \"#utility.yul\":5191:6136   */\n    tag_75:\n        /* \"#utility.yul\":5297:5302   */\n      0x00\n        /* \"#utility.yul\":5322:5413   */\n      tag_153\n        /* \"#utility.yul\":5338:5412   */\n      tag_154\n        /* \"#utility.yul\":5405:5411   */\n      dup5\n        /* \"#utility.yul\":5338:5412   */\n      tag_68\n      jump\t// in\n    tag_154:\n        /* \"#utility.yul\":5322:5413   */\n      tag_67\n      jump\t// in\n    tag_153:\n        /* \"#utility.yul\":5313:5413   */\n      swap1\n      pop\n        /* \"#utility.yul\":5433:5438   */\n      dup1\n        /* \"#utility.yul\":5462:5468   */\n      dup4\n        /* \"#utility.yul\":5455:5460   */\n      dup3\n        /* \"#utility.yul\":5448:5469   */\n      mstore\n        /* \"#utility.yul\":5496:5500   */\n      0x20\n        /* \"#utility.yul\":5489:5494   */\n      dup3\n        /* \"#utility.yul\":5485:5501   */\n      add\n        /* \"#utility.yul\":5478:5501   */\n      swap1\n      pop\n        /* \"#utility.yul\":5549:5553   */\n      0x20\n        /* \"#utility.yul\":5541:5547   */\n      dup5\n        /* \"#utility.yul\":5537:5554   */\n      mul\n        /* \"#utility.yul\":5529:5535   */\n      dup4\n        /* \"#utility.yul\":5525:5555   */\n      add\n        /* \"#utility.yul\":5578:5581   */\n      dup6\n        /* \"#utility.yul\":5570:5576   */\n      dup2\n        /* \"#utility.yul\":5567:5582   */\n      gt\n        /* \"#utility.yul\":5564:5686   */\n      iszero\n      tag_155\n      jumpi\n        /* \"#utility.yul\":5597:5676   */\n      tag_156\n      tag_69\n      jump\t// in\n    tag_156:\n        /* \"#utility.yul\":5564:5686   */\n    tag_155:\n        /* \"#utility.yul\":5712:5718   */\n      dup4\n        /* \"#utility.yul\":5695:6130   */\n    tag_157:\n        /* \"#utility.yul\":5729:5735   */\n      dup2\n        /* \"#utility.yul\":5724:5727   */\n      dup2\n        /* \"#utility.yul\":5721:5736   */\n      lt\n        /* \"#utility.yul\":5695:6130   */\n      iszero\n      tag_159\n      jumpi\n        /* \"#utility.yul\":5818:5821   */\n      dup1\n        /* \"#utility.yul\":5805:5822   */\n      calldataload\n        /* \"#utility.yul\":5854:5872   */\n      0xffffffffffffffff\n        /* \"#utility.yul\":5841:5852   */\n      dup2\n        /* \"#utility.yul\":5838:5873   */\n      gt\n        /* \"#utility.yul\":5835:5957   */\n      iszero\n      tag_160\n      jumpi\n        /* \"#utility.yul\":5876:5955   */\n      tag_161\n      tag_64\n      jump\t// in\n    tag_161:\n        /* \"#utility.yul\":5835:5957   */\n    tag_160:\n        /* \"#utility.yul\":6000:6011   */\n      dup1\n        /* \"#utility.yul\":5992:5998   */\n      dup7\n        /* \"#utility.yul\":5988:6012   */\n      add\n        /* \"#utility.yul\":6038:6085   */\n      tag_162\n        /* \"#utility.yul\":6081:6084   */\n      dup10\n        /* \"#utility.yul\":6069:6079   */\n      dup3\n        /* \"#utility.yul\":6038:6085   */\n      tag_74\n      jump\t// in\n    tag_162:\n        /* \"#utility.yul\":6033:6036   */\n      dup6\n        /* \"#utility.yul\":6026:6086   */\n      mstore\n        /* \"#utility.yul\":6115:6119   */\n      0x20\n        /* \"#utility.yul\":6110:6113   */\n      dup6\n        /* \"#utility.yul\":6106:6120   */\n      add\n        /* \"#utility.yul\":6099:6120   */\n      swap5\n      pop\n        /* \"#utility.yul\":5771:6130   */\n      pop\n      pop\n        /* \"#utility.yul\":5755:5759   */\n      0x20\n        /* \"#utility.yul\":5750:5753   */\n      dup2\n        /* \"#utility.yul\":5746:5760   */\n      add\n        /* \"#utility.yul\":5739:5760   */\n      swap1\n      pop\n        /* \"#utility.yul\":5695:6130   */\n      jump(tag_157)\n    tag_159:\n        /* \"#utility.yul\":5699:5720   */\n      pop\n        /* \"#utility.yul\":5303:6136   */\n      pop\n      pop\n        /* \"#utility.yul\":5191:6136   */\n      swap4\n      swap3\n      pop\n      pop\n      pop\n      jump\t// out\n        /* \"#utility.yul\":6158:6548   */\n    tag_76:\n        /* \"#utility.yul\":6239:6244   */\n      0x00\n        /* \"#utility.yul\":6288:6291   */\n      dup3\n        /* \"#utility.yul\":6281:6285   */\n      0x1f\n        /* \"#utility.yul\":6273:6279   */\n      dup4\n        /* \"#utility.yul\":6269:6286   */\n      add\n        /* \"#utility.yul\":6265:6292   */\n      slt\n        /* \"#utility.yul\":6255:6377   */\n      tag_164\n      jumpi\n        /* \"#utility.yul\":6296:6375   */\n      tag_165\n      tag_64\n      jump\t// in\n    tag_165:\n        /* \"#utility.yul\":6255:6377   */\n    tag_164:\n        /* \"#utility.yul\":6413:6419   */\n      dup2\n        /* \"#utility.yul\":6400:6420   */\n      calldataload\n        /* \"#utility.yul\":6438:6542   */\n      tag_166\n        /* \"#utility.yul\":6538:6541   */\n      dup5\n        /* \"#utility.yul\":6530:6536   */\n      dup3\n        /* \"#utility.yul\":6523:6527   */\n      0x20\n        /* \"#utility.yul\":6515:6521   */\n      dup7\n        /* \"#utility.yul\":6511:6528   */\n      add\n        /* \"#utility.yul\":6438:6542   */\n      tag_75\n      jump\t// in\n    tag_166:\n        /* \"#utility.yul\":6429:6542   */\n      swap2\n      pop\n        /* \"#utility.yul\":6245:6548   */\n      pop\n        /* \"#utility.yul\":6158:6548   */\n      swap3\n      swap2\n      pop\n      pop\n      jump\t// out\n        /* \"#utility.yul\":6554:7113   */\n    tag_25:\n        /* \"#utility.yul\":6648:6654   */\n      0x00\n        /* \"#utility.yul\":6697:6699   */\n      0x20\n        /* \"#utility.yul\":6685:6694   */\n      dup3\n        /* \"#utility.yul\":6676:6683   */\n      dup5\n        /* \"#utility.yul\":6672:6695   */\n      sub\n        /* \"#utility.yul\":6668:6700   */\n      slt\n        /* \"#utility.yul\":6665:6784   */\n      iszero\n      tag_168\n      jumpi\n        /* \"#utility.yul\":6703:6782   */\n      tag_169\n      tag_55\n      jump\t// in\n    tag_169:\n        /* \"#utility.yul\":6665:6784   */\n    tag_168:\n        /* \"#utility.yul\":6851:6852   */\n      0x00\n        /* \"#utility.yul\":6840:6849   */\n      dup3\n        /* \"#utility.yul\":6836:6853   */\n      add\n        /* \"#utility.yul\":6823:6854   */\n      calldataload\n        /* \"#utility.yul\":6881:6899   */\n      0xffffffffffffffff\n        /* \"#utility.yul\":6873:6879   */\n      dup2\n        /* \"#utility.yul\":6870:6900   */\n      gt\n        /* \"#utility.yul\":6867:6984   */\n      iszero\n      tag_170\n      jumpi\n        /* \"#utility.yul\":6903:6982   */\n      tag_171\n      tag_56\n      jump\t// in\n    tag_171:\n        /* \"#utility.yul\":6867:6984   */\n    tag_170:\n        /* \"#utility.yul\":7008:7096   */\n      tag_172\n        /* \"#utility.yul\":7088:7095   */\n      dup5\n        /* \"#utility.yul\":7079:7085   */\n      dup3\n        /* \"#utility.yul\":7068:7077   */\n      dup6\n        /* \"#utility.yul\":7064:7086   */\n      add\n        /* \"#utility.yul\":7008:7096   */\n      tag_76\n      jump\t// in\n    tag_172:\n        /* \"#utility.yul\":6998:7096   */\n      swap2\n      pop\n        /* \"#utility.yul\":6794:7106   */\n      pop\n        /* \"#utility.yul\":6554:7113   */\n      swap3\n      swap2\n      pop\n      pop\n      jump\t// out\n        /* \"#utility.yul\":7119:7299   */\n    tag_77:\n        /* \"#utility.yul\":7167:7244   */\n      0x4e487b7100000000000000000000000000000000000000000000000000000000\n        /* \"#utility.yul\":7164:7165   */\n      0x00\n        /* \"#utility.yul\":7157:7245   */\n      mstore\n        /* \"#utility.yul\":7264:7268   */\n      0x11\n        /* \"#utility.yul\":7261:7262   */\n      0x04\n        /* \"#utility.yul\":7254:7269   */\n      mstore\n        /* \"#utility.yul\":7288:7292   */\n      0x24\n        /* \"#utility.yul\":7285:7286   */\n      0x00\n        /* \"#utility.yul\":7278:7293   */\n      revert\n        /* \"#utility.yul\":7305:7496   */\n    tag_32:\n        /* \"#utility.yul\":7345:7348   */\n      0x00\n        /* \"#utility.yul\":7364:7384   */\n      tag_175\n        /* \"#utility.yul\":7382:7383   */\n      dup3\n        /* \"#utility.yul\":7364:7384   */\n      tag_52\n      jump\t// in\n    tag_175:\n        /* \"#utility.yul\":7359:7384   */\n      swap2\n      pop\n        /* \"#utility.yul\":7398:7418   */\n      tag_176\n        /* \"#utility.yul\":7416:7417   */\n      dup4\n        /* \"#utility.yul\":7398:7418   */\n      tag_52\n      jump\t// in\n    tag_176:\n        /* \"#utility.yul\":7393:7418   */\n      swap3\n      pop\n        /* \"#utility.yul\":7441:7442   */\n      dup3\n        /* \"#utility.yul\":7438:7439   */\n      dup3\n        /* \"#utility.yul\":7434:7443   */\n      add\n        /* \"#utility.yul\":7427:7443   */\n      swap1\n      pop\n        /* \"#utility.yul\":7462:7465   */\n      dup1\n        /* \"#utility.yul\":7459:7460   */\n      dup3\n        /* \"#utility.yul\":7456:7466   */\n      gt\n        /* \"#utility.yul\":7453:7489   */\n      iszero\n      tag_177\n      jumpi\n        /* \"#utility.yul\":7469:7487   */\n      tag_178\n      tag_77\n      jump\t// in\n    tag_178:\n        /* \"#utility.yul\":7453:7489   */\n    tag_177:\n        /* \"#utility.yul\":7305:7496   */\n      swap3\n      swap2\n      pop\n      pop\n      jump\t// out\n        /* \"#utility.yul\":7502:7682   */\n    tag_78:\n        /* \"#utility.yul\":7550:7627   */\n      0x4e487b7100000000000000000000000000000000000000000000000000000000\n        /* \"#utility.yul\":7547:7548   */\n      0x00\n        /* \"#utility.yul\":7540:7628   */\n      mstore\n        /* \"#utility.yul\":7647:7651   */\n      0x22\n        /* \"#utility.yul\":7644:7645   */\n      0x04\n        /* \"#utility.yul\":7637:7652   */\n      mstore\n        /* \"#utility.yul\":7671:7675   */\n      0x24\n        /* \"#utility.yul\":7668:7669   */\n      0x00\n        /* \"#utility.yul\":7661:7676   */\n      revert\n        /* \"#utility.yul\":7688:8008   */\n    tag_40:\n        /* \"#utility.yul\":7732:7738   */\n      0x00\n        /* \"#utility.yul\":7769:7770   */\n      0x02\n        /* \"#utility.yul\":7763:7767   */\n      dup3\n        /* \"#utility.yul\":7759:7771   */\n      div\n        /* \"#utility.yul\":7749:7771   */\n      swap1\n      pop\n        /* \"#utility.yul\":7816:7817   */\n      0x01\n        /* \"#utility.yul\":7810:7814   */\n      dup3\n        /* \"#utility.yul\":7806:7818   */\n      and\n        /* \"#utility.yul\":7837:7855   */\n      dup1\n        /* \"#utility.yul\":7827:7908   */\n      tag_181\n      jumpi\n        /* \"#utility.yul\":7893:7897   */\n      0x7f\n        /* \"#utility.yul\":7885:7891   */\n      dup3\n        /* \"#utility.yul\":7881:7898   */\n      and\n        /* \"#utility.yul\":7871:7898   */\n      swap2\n      pop\n        /* \"#utility.yul\":7827:7908   */\n    tag_181:\n        /* \"#utility.yul\":7955:7957   */\n      0x20\n        /* \"#utility.yul\":7947:7953   */\n      dup3\n        /* \"#utility.yul\":7944:7958   */\n      lt\n        /* \"#utility.yul\":7924:7942   */\n      dup2\n        /* \"#utility.yul\":7921:7959   */\n      sub\n        /* \"#utility.yul\":7918:8002   */\n      tag_182\n      jumpi\n        /* \"#utility.yul\":7974:7992   */\n      tag_183\n      tag_78\n      jump\t// in\n    tag_183:\n        /* \"#utility.yul\":7918:8002   */\n    tag_182:\n        /* \"#utility.yul\":7739:8008   */\n      pop\n        /* \"#utility.yul\":7688:8008   */\n      swap2\n      swap1\n      pop\n      jump\t// out\n        /* \"#utility.yul\":8014:8155   */\n    tag_79:\n        /* \"#utility.yul\":8063:8067   */\n      0x00\n        /* \"#utility.yul\":8086:8089   */\n      dup2\n        /* \"#utility.yul\":8078:8089   */\n      swap1\n      pop\n        /* \"#utility.yul\":8109:8112   */\n      dup2\n        /* \"#utility.yul\":8106:8107   */\n      0x00\n        /* \"#utility.yul\":8099:8113   */\n      mstore\n        /* \"#utility.yul\":8143:8147   */\n      0x20\n        /* \"#utility.yul\":8140:8141   */\n      0x00\n        /* \"#utility.yul\":8130:8148   */\n      keccak256\n        /* \"#utility.yul\":8122:8148   */\n      swap1\n      pop\n        /* \"#utility.yul\":8014:8155   */\n      swap2\n      swap1\n      pop\n      jump\t// out\n        /* \"#utility.yul\":8161:8254   */\n    tag_80:\n        /* \"#utility.yul\":8198:8204   */\n      0x00\n        /* \"#utility.yul\":8245:8247   */\n      0x20\n        /* \"#utility.yul\":8240:8242   */\n      0x1f\n        /* \"#utility.yul\":8233:8238   */\n      dup4\n        /* \"#utility.yul\":8229:8243   */\n      add\n        /* \"#utility.yul\":8225:8248   */\n      div\n        /* \"#utility.yul\":8215:8248   */\n      swap1\n      pop\n        /* \"#utility.yul\":8161:8254   */\n      swap2\n      swap1\n      pop\n      jump\t// out\n        /* \"#utility.yul\":8260:8367   */\n    tag_81:\n        /* \"#utility.yul\":8304:8312   */\n      0x00\n        /* \"#utility.yul\":8354:8359   */\n      dup3\n        /* \"#utility.yul\":8348:8352   */\n      dup3\n        /* \"#utility.yul\":8344:8360   */\n      shl\n        /* \"#utility.yul\":8323:8360   */\n      swap1\n      pop\n        /* \"#utility.yul\":8260:8367   */\n      swap3\n      swap2\n      pop\n      pop\n      jump\t// out\n        /* \"#utility.yul\":8373:8766   */\n    tag_82:\n        /* \"#utility.yul\":8442:8448   */\n      0x00\n        /* \"#utility.yul\":8492:8493   */\n      0x08\n        /* \"#utility.yul\":8480:8490   */\n      dup4\n        /* \"#utility.yul\":8476:8494   */\n      mul\n        /* \"#utility.yul\":8515:8612   */\n      tag_188\n        /* \"#utility.yul\":8545:8611   */\n      0xffffffffffffffffffffffffffffffffffffffffffffffffffffffffffffffff\n        /* \"#utility.yul\":8534:8543   */\n      dup3\n        /* \"#utility.yul\":8515:8612   */\n      tag_81\n      jump\t// in\n    tag_188:\n        /* \"#utility.yul\":8633:8672   */\n      tag_189\n        /* \"#utility.yul\":8663:8671   */\n      dup7\n        /* \"#utility.yul\":8652:8661   */\n      dup4\n        /* \"#utility.yul\":8633:8672   */\n      tag_81\n      jump\t// in\n    tag_189:\n        /* \"#utility.yul\":8621:8672   */\n      swap6\n      pop\n        /* \"#utility.yul\":8705:8709   */\n      dup1\n        /* \"#utility.yul\":8701:8710   */\n      not\n        /* \"#utility.yul\":8694:8699   */\n      dup5\n        /* \"#utility.yul\":8690:8711   */\n      and\n        /* \"#utility.yul\":8681:8711   */\n      swap4\n      pop\n        /* \"#utility.yul\":8754:8758   */\n      dup1\n        /* \"#utility.yul\":8744:8752   */\n      dup7\n        /* \"#utility.yul\":8740:8759   */\n      and\n        /* \"#utility.yul\":8733:8738   */\n      dup5\n        /* \"#utility.yul\":8730:8760   */\n      or\n        /* \"#utility.yul\":8720:8760   */\n      swap3\n      pop\n        /* \"#utility.yul\":8449:8766   */\n      pop\n      pop\n        /* \"#utility.yul\":8373:8766   */\n      swap4\n      swap3\n      pop\n      pop\n      pop\n      jump\t// out\n        /* \"#utility.yul\":8772:8832   */\n    tag_83:\n        /* \"#utility.yul\":8800:8803   */\n      0x00\n        /* \"#utility.yul\":8821:8826   */\n      dup2\n        /* \"#utility.yul\":8814:8826   */\n      swap1\n      pop\n        /* \"#utility.yul\":8772:8832   */\n      swap2\n      swap1\n      pop\n      jump\t// out\n        /* \"#utility.yul\":8838:8980   */\n    tag_84:\n        /* \"#utility.yul\":8888:8897   */\n      0x00\n        /* \"#utility.yul\":8921:8974   */\n      tag_192\n        /* \"#utility.yul\":8939:8973   */\n      tag_193\n        /* \"#utility.yul\":8948:8972   */\n      tag_194\n        /* \"#utility.yul\":8966:8971   */\n      dup5\n        /* \"#utility.yul\":8948:8972   */\n      tag_52\n      jump\t// in\n    tag_194:\n        /* \"#utility.yul\":8939:8973   */\n      tag_83\n      jump\t// in\n    tag_193:\n        /* \"#utility.yul\":8921:8974   */\n      tag_52\n      jump\t// in\n    tag_192:\n        /* \"#utility.yul\":8908:8974   */\n      swap1\n      pop\n        /* \"#utility.yul\":8838:8980   */\n      swap2\n      swap1\n      pop\n      jump\t// out\n        /* \"#utility.yul\":8986:9061   */\n    tag_85:\n        /* \"#utility.yul\":9029:9032   */\n      0x00\n        /* \"#utility.yul\":9050:9055   */\n      dup2\n        /* \"#utility.yul\":9043:9055   */\n      swap1\n      pop\n        /* \"#utility.yul\":8986:9061   */\n      swap2\n      swap1\n      pop\n      jump\t// out\n        /* \"#utility.yul\":9067:9336   */\n    tag_86:\n        /* \"#utility.yul\":9177:9216   */\n      tag_197\n        /* \"#utility.yul\":9208:9215   */\n      dup4\n        /* \"#utility.yul\":9177:9216   */\n      tag_84\n      jump\t// in\n    tag_197:\n        /* \"#utility.yul\":9238:9329   */\n      tag_198\n        /* \"#utility.yul\":9287:9328   */\n      tag_199\n        /* \"#utility.yul\":9311:9327   */\n      dup3\n        /* \"#utility.yul\":9287:9328   */\n      tag_85\n      jump\t// in\n    tag_199:\n        /* \"#utility.yul\":9279:9285   */\n      dup5\n        /* \"#utility.yul\":9272:9276   */\n      dup5\n        /* \"#utility.yul\":9266:9277   */\n      sload\n        /* \"#utility.yul\":9238:9329   */\n      tag_82\n      jump\t// in\n    tag_198:\n        /* \"#utility.yul\":9232:9236   */\n      dup3\n        /* \"#utility.yul\":9225:9330   */\n      sstore\n        /* \"#utility.yul\":9143:9336   */\n      pop\n        /* \"#utility.yul\":9067:9336   */\n      pop\n      pop\n      pop\n      jump\t// out\n        /* \"#utility.yul\":9342:9415   */\n    tag_87:\n        /* \"#utility.yul\":9387:9390   */\n      0x00\n        /* \"#utility.yul\":9342:9415   */\n      swap1\n      jump\t// out\n        /* \"#utility.yul\":9421:9610   */\n    tag_88:\n        /* \"#utility.yul\":9498:9530   */\n      tag_202\n      tag_87\n      jump\t// in\n    tag_202:\n        /* \"#utility.yul\":9539:9604   */\n      tag_203\n        /* \"#utility.yul\":9597:9603   */\n      dup2\n        /* \"#utility.yul\":9589:9595   */\n      dup5\n        /* \"#utility.yul\":9583:9587   */\n      dup5\n        /* \"#utility.yul\":9539:9604   */\n      tag_86\n      jump\t// in\n    tag_203:\n        /* \"#utility.yul\":9474:9610   */\n      pop\n        /* \"#utility.yul\":9421:9610   */\n      pop\n      pop\n      jump\t// out\n        /* \"#utility.yul\":9616:9802   */\n    tag_89:\n        /* \"#utility.yul\":9676:9796   */\n    tag_205:\n        /* \"#utility.yul\":9693:9696   */\n      dup2\n        /* \"#utility.yul\":9686:9691   */\n      dup2\n        /* \"#utility.yul\":9683:9697   */\n      lt\n        /* \"#utility.yul\":9676:9796   */\n      iszero\n      tag_207\n      jumpi\n        /* \"#utility.yul\":9747:9786   */\n      tag_208\n        /* \"#utility.yul\":9784:9785   */\n      0x00\n        /* \"#utility.yul\":9777:9782   */\n      dup3\n        /* \"#utility.yul\":9747:9786   */\n      tag_88\n      jump\t// in\n    tag_208:\n        /* \"#utility.yul\":9720:9721   */\n      0x01\n        /* \"#utility.yul\":9713:9718   */\n      dup2\n        /* \"#utility.yul\":9709:9722   */\n      add\n        /* \"#utility.yul\":9700:9722   */\n      swap1\n      pop\n        /* \"#utility.yul\":9676:9796   */\n      jump(tag_205)\n    tag_207:\n        /* \"#utility.yul\":9616:9802   */\n      pop\n      pop\n      jump\t// out\n        /* \"#utility.yul\":9808:10351   */\n    tag_90:\n        /* \"#utility.yul\":9909:9911   */\n      0x1f\n        /* \"#utility.yul\":9904:9907   */\n      dup3\n        /* \"#utility.yul\":9901:9912   */\n      gt\n        /* \"#utility.yul\":9898:10344   */\n      iszero\n      tag_210\n      jumpi\n        /* \"#utility.yul\":9943:9981   */\n      tag_211\n        /* \"#utility.yul\":9975:9980   */\n      dup2\n        /* \"#utility.yul\":9943:9981   */\n      tag_79\n      jump\t// in\n    tag_211:\n        /* \"#utility.yul\":10027:10056   */\n      tag_212\n        /* \"#utility.yul\":10045:10055   */\n      dup5\n        /* \"#utility.yul\":10027:10056   */\n      tag_80\n      jump\t// in\n    tag_212:\n        /* \"#utility.yul\":10017:10025   */\n      dup2\n        /* \"#utility.yul\":10013:10057   */\n      add\n        /* \"#utility.yul\":10210:10212   */\n      0x20\n        /* \"#utility.yul\":10198:10208   */\n      dup6\n        /* \"#utility.yul\":10195:10213   */\n      lt\n        /* \"#utility.yul\":10192:10241   */\n      iszero\n      tag_213\n      jumpi\n        /* \"#utility.yul\":10231:10239   */\n      dup2\n        /* \"#utility.yul\":10216:10239   */\n      swap1\n      pop\n        /* \"#utility.yul\":10192:10241   */\n    tag_213:\n        /* \"#utility.yul\":10254:10334   */\n      tag_214\n        /* \"#utility.yul\":10310:10332   */\n      tag_215\n        /* \"#utility.yul\":10328:10331   */\n      dup6\n        /* \"#utility.yul\":10310:10332   */\n      tag_80\n      jump\t// in\n    tag_215:\n        /* \"#utility.yul\":10300:10308   */\n      dup4\n        /* \"#utility.yul\":10296:10333   */\n      add\n        /* \"#utility.yul\":10283:10294   */\n      dup3\n        /* \"#utility.yul\":10254:10334   */\n      tag_89\n      jump\t// in\n    tag_214:\n        /* \"#utility.yul\":9913:10344   */\n      pop\n      pop\n        /* \"#utility.yul\":9898:10344   */\n    tag_210:\n        /* \"#utility.yul\":9808:10351   */\n      pop\n      pop\n      pop\n      jump\t// out\n        /* \"#utility.yul\":10357:10474   */\n    tag_91:\n        /* \"#utility.yul\":10411:10419   */\n      0x00\n        /* \"#utility.yul\":10461:10466   */\n      dup3\n        /* \"#utility.yul\":10455:10459   */\n      dup3\n        /* \"#utility.yul\":10451:10467   */\n      shr\n        /* \"#utility.yul\":10430:10467   */\n      swap1\n      pop\n        /* \"#utility.yul\":10357:10474   */\n      swap3\n      swap2\n      pop\n      pop\n      jump\t// out\n        /* \"#utility.yul\":10480:10649   */\n    tag_92:\n        /* \"#utility.yul\":10524:10530   */\n      0x00\n        /* \"#utility.yul\":10557:10608   */\n      tag_218\n        /* \"#utility.yul\":10605:10606   */\n      0x00\n        /* \"#utility.yul\":10601:10607   */\n      not\n        /* \"#utility.yul\":10593:10598   */\n      dup5\n        /* \"#utility.yul\":10590:10591   */\n      0x08\n        /* \"#utility.yul\":10586:10599   */\n      mul\n        /* \"#utility.yul\":10557:10608   */\n      tag_91\n      jump\t// in\n    tag_218:\n        /* \"#utility.yul\":10553:10609   */\n      not\n        /* \"#utility.yul\":10638:10642   */\n      dup1\n        /* \"#utility.yul\":10632:10636   */\n      dup4\n        /* \"#utility.yul\":10628:10643   */\n      and\n        /* \"#utility.yul\":10618:10643   */\n      swap2\n      pop\n        /* \"#utility.yul\":10531:10649   */\n      pop\n        /* \"#utility.yul\":10480:10649   */\n      swap3\n      swap2\n      pop\n      pop\n      jump\t// out\n        /* \"#utility.yul\":10654:10949   */\n    tag_93:\n        /* \"#utility.yul\":10730:10734   */\n      0x00\n        /* \"#utility.yul\":10876:10905   */\n      tag_220\n        /* \"#utility.yul\":10901:10904   */\n      dup4\n        /* \"#utility.yul\":10895:10899   */\n      dup4\n        /* \"#utility.yul\":10876:10905   */\n      tag_92\n      jump\t// in\n    tag_220:\n        /* \"#utility.yul\":10868:10905   */\n      swap2\n      pop\n        /* \"#utility.yul\":10938:10941   */\n      dup3\n        /* \"#utility.yul\":10935:10936   */\n      0x02\n        /* \"#utility.yul\":10931:10942   */\n      mul\n        /* \"#utility.yul\":10925:10929   */\n      dup3\n        /* \"#utility.yul\":10922:10943   */\n      or\n        /* \"#utility.yul\":10914:10943   */\n      swap1\n      pop\n        /* \"#utility.yul\":10654:10949   */\n      swap3\n      swap2\n      pop\n      pop\n      jump\t// out\n        /* \"#utility.yul\":10954:12349   */\n    tag_35:\n        /* \"#utility.yul\":11071:11108   */\n      tag_222\n        /* \"#utility.yul\":11104:11107   */\n      dup3\n        /* \"#utility.yul\":11071:11108   */\n      tag_59\n      jump\t// in\n    tag_222:\n        /* \"#utility.yul\":11173:11191   */\n      0xffffffffffffffff\n        /* \"#utility.yul\":11165:11171   */\n      dup2\n        /* \"#utility.yul\":11162:11192   */\n      gt\n        /* \"#utility.yul\":11159:11215   */\n      iszero\n      tag_223\n      jumpi\n        /* \"#utility.yul\":11195:11213   */\n      tag_224\n      tag_65\n      jump\t// in\n    tag_224:\n        /* \"#utility.yul\":11159:11215   */\n    tag_223:\n        /* \"#utility.yul\":11239:11277   */\n      tag_225\n        /* \"#utility.yul\":11271:11275   */\n      dup3\n        /* \"#utility.yul\":11265:11276   */\n      sload\n        /* \"#utility.yul\":11239:11277   */\n      tag_40\n      jump\t// in\n    tag_225:\n        /* \"#utility.yul\":11324:11391   */\n      tag_226\n        /* \"#utility.yul\":11384:11390   */\n      dup3\n        /* \"#utility.yul\":11376:11382   */\n      dup3\n        /* \"#utility.yul\":11370:11374   */\n      dup6\n        /* \"#utility.yul\":11324:11391   */\n      tag_90\n      jump\t// in\n    tag_226:\n        /* \"#utility.yul\":11418:11419   */\n      0x00\n        /* \"#utility.yul\":11442:11446   */\n      0x20\n        /* \"#utility.yul\":11429:11446   */\n      swap1\n      pop\n        /* \"#utility.yul\":11474:11476   */\n      0x1f\n        /* \"#utility.yul\":11466:11472   */\n      dup4\n        /* \"#utility.yul\":11463:11477   */\n      gt\n        /* \"#utility.yul\":11491:11492   */\n      0x01\n        /* \"#utility.yul\":11486:12104   */\n      dup2\n      eq\n      tag_228\n      jumpi\n        /* \"#utility.yul\":12148:12149   */\n      0x00\n        /* \"#utility.yul\":12165:12171   */\n      dup5\n        /* \"#utility.yul\":12162:12239   */\n      iszero\n      tag_229\n      jumpi\n        /* \"#utility.yul\":12214:12223   */\n      dup3\n        /* \"#utility.yul\":12209:12212   */\n      dup8\n        /* \"#utility.yul\":12205:12224   */\n      add\n        /* \"#utility.yul\":12199:12225   */\n      mload\n        /* \"#utility.yul\":12190:12225   */\n      swap1\n      pop\n        /* \"#utility.yul\":12162:12239   */\n    tag_229:\n        /* \"#utility.yul\":12265:12332   */\n      tag_230\n        /* \"#utility.yul\":12325:12331   */\n      dup6\n        /* \"#utility.yul\":12318:12323   */\n      dup3\n        /* \"#utility.yul\":12265:12332   */\n      tag_93\n      jump\t// in\n    tag_230:\n        /* \"#utility.yul\":12259:12263   */\n      dup7\n        /* \"#utility.yul\":12252:12333   */\n      sstore\n        /* \"#utility.yul\":12121:12343   */\n      pop\n        /* \"#utility.yul\":11456:12343   */\n      jump(tag_227)\n        /* \"#utility.yul\":11486:12104   */\n    tag_228:\n        /* \"#utility.yul\":11538:11542   */\n      0x1f\n        /* \"#utility.yul\":11534:11543   */\n      not\n        /* \"#utility.yul\":11526:11532   */\n      dup5\n        /* \"#utility.yul\":11522:11544   */\n      and\n        /* \"#utility.yul\":11572:11609   */\n      tag_231\n        /* \"#utility.yul\":11604:11608   */\n      dup7\n        /* \"#utility.yul\":11572:11609   */\n      tag_79\n      jump\t// in\n    tag_231:\n        /* \"#utility.yul\":11631:11632   */\n      0x00\n        /* \"#utility.yul\":11645:11853   */\n    tag_232:\n        /* \"#utility.yul\":11659:11666   */\n      dup3\n        /* \"#utility.yul\":11656:11657   */\n      dup2\n        /* \"#utility.yul\":11653:11667   */\n      lt\n        /* \"#utility.yul\":11645:11853   */\n      iszero\n      tag_234\n      jumpi\n        /* \"#utility.yul\":11738:11747   */\n      dup5\n        /* \"#utility.yul\":11733:11736   */\n      dup10\n        /* \"#utility.yul\":11729:11748   */\n      add\n        /* \"#utility.yul\":11723:11749   */\n      mload\n        /* \"#utility.yul\":11715:11721   */\n      dup3\n        /* \"#utility.yul\":11708:11750   */\n      sstore\n        /* \"#utility.yul\":11789:11790   */\n      0x01\n        /* \"#utility.yul\":11781:11787   */\n      dup3\n        /* \"#utility.yul\":11777:11791   */\n      add\n        /* \"#utility.yul\":11767:11791   */\n      swap2\n      pop\n        /* \"#utility.yul\":11836:11838   */\n      0x20\n        /* \"#utility.yul\":11825:11834   */\n      dup6\n        /* \"#utility.yul\":11821:11839   */\n      add\n        /* \"#utility.yul\":11808:11839   */\n      swap5\n      pop\n        /* \"#utility.yul\":11682:11686   */\n      0x20\n        /* \"#utility.yul\":11679:11680   */\n      dup2\n        /* \"#utility.yul\":11675:11687   */\n      add\n        /* \"#utility.yul\":11670:11687   */\n      swap1\n      pop\n        /* \"#utility.yul\":11645:11853   */\n      jump(tag_232)\n    tag_234:\n        /* \"#utility.yul\":11881:11887   */\n      dup7\n        /* \"#utility.yul\":11872:11879   */\n      dup4\n        /* \"#utility.yul\":11869:11888   */\n      lt\n        /* \"#utility.yul\":11866:12045   */\n      iszero\n      tag_235\n      jumpi\n        /* \"#utility.yul\":11939:11948   */\n      dup5\n        /* \"#utility.yul\":11934:11937   */\n      dup10\n        /* \"#utility.yul\":11930:11949   */\n      add\n        /* \"#utility.yul\":11924:11950   */\n      mload\n        /* \"#utility.yul\":11982:12030   */\n      tag_236\n        /* \"#utility.yul\":12024:12028   */\n      0x1f\n        /* \"#utility.yul\":12016:12022   */\n      dup10\n        /* \"#utility.yul\":12012:12029   */\n      and\n        /* \"#utility.yul\":12001:12010   */\n      dup3\n        /* \"#utility.yul\":11982:12030   */\n      tag_92\n      jump\t// in\n    tag_236:\n        /* \"#utility.yul\":11974:11980   */\n      dup4\n        /* \"#utility.yul\":11967:12031   */\n      sstore\n        /* \"#utility.yul\":11889:12045   */\n      pop\n        /* \"#utility.yul\":11866:12045   */\n    tag_235:\n        /* \"#utility.yul\":12091:12092   */\n      0x01\n        /* \"#utility.yul\":12087:12088   */\n      0x02\n        /* \"#utility.yul\":12079:12085   */\n      dup9\n        /* \"#utility.yul\":12075:12089   */\n      mul\n        /* \"#utility.yul\":12071:12093   */\n      add\n        /* \"#utility.yul\":12065:12069   */\n      dup9\n        /* \"#utility.yul\":12058:12094   */\n      sstore\n        /* \"#utility.yul\":11493:12104   */\n      pop\n      pop\n      pop\n        /* \"#utility.yul\":11456:12343   */\n    tag_227:\n      pop\n        /* \"#utility.yul\":11046:12349   */\n      pop\n      pop\n      pop\n        /* \"#utility.yul\":10954:12349   */\n      pop\n      pop\n      jump\t// out\n        /* \"#utility.yul\":12355:12535   */\n    tag_51:\n        /* \"#utility.yul\":12403:12480   */\n      0x4e487b7100000000000000000000000000000000000000000000000000000000\n        /* \"#utility.yul\":12400:12401   */\n      0x00\n        /* \"#utility.yul\":12393:12481   */\n      mstore\n        /* \"#utility.yul\":12500:12504   */\n      0x32\n        /* \"#utility.yul\":12497:12498   */\n      0x04\n        /* \"#utility.yul\":12490:12505   */\n      mstore\n        /* \"#utility.yul\":12524:12528   */\n      0x24\n        /* \"#utility.yul\":12521:12522   */\n      0x00\n        /* \"#utility.yul\":12514:12529   */\n      revert\n\n    auxdata: 0xa2646970667358221220a5d61704e6823988b765582395382cb70d0669c9939b20b7c8257fabd83772f064736f6c634300081a0033\n}\n",
				"bytecode": {
					"linkReferences": {},
					"object": "608060405234801561000f575f80fd5b5060405161102a38038061102a8339818101604052810190610031919061034e565b805f908051906020019061004692919061004d565b5050610671565b828054828255905f5260205f20908101928215610093579160200282015b8281111561009257825182908161008291906105a2565b509160200191906001019061006b565b5b5090506100a091906100a4565b5090565b5b808211156100c3575f81816100ba91906100c7565b506001016100a5565b5090565b5080546100d3906103cc565b5f825580601f106100e45750610101565b601f0160209004905f5260205f20908101906101009190610104565b5b50565b5b8082111561011b575f815f905550600101610105565b5090565b5f604051905090565b5f80fd5b5f80fd5b5f80fd5b5f601f19601f8301169050919050565b7f4e487b71000000000000000000000000000000000000000000000000000000005f52604160045260245ffd5b61017a82610134565b810181811067ffffffffffffffff8211171561019957610198610144565b5b80604052505050565b5f6101ab61011f565b90506101b78282610171565b919050565b5f67ffffffffffffffff8211156101d6576101d5610144565b5b602082029050602081019050919050565b5f80fd5b5f80fd5b5f67ffffffffffffffff82111561020957610208610144565b5b61021282610134565b9050602081019050919050565b8281835e5f83830152505050565b5f61023f61023a846101ef565b6101a2565b90508281526020810184848401111561025b5761025a6101eb565b5b61026684828561021f565b509392505050565b5f82601f83011261028257610281610130565b5b815161029284826020860161022d565b91505092915050565b5f6102ad6102a8846101bc565b6101a2565b905080838252602082019050602084028301858111156102d0576102cf6101e7565b5b835b8181101561031757805167ffffffffffffffff8111156102f5576102f4610130565b5b808601610302898261026e565b855260208501945050506020810190506102d2565b5050509392505050565b5f82601f83011261033557610334610130565b5b815161034584826020860161029b565b91505092915050565b5f6020828403121561036357610362610128565b5b5f82015167ffffffffffffffff8111156103805761037f61012c565b5b61038c84828501610321565b91505092915050565b5f81519050919050565b7f4e487b71000000000000000000000000000000000000000000000000000000005f52602260045260245ffd5b5f60028204905060018216806103e357607f821691505b6020821081036103f6576103f561039f565b5b50919050565b5f819050815f5260205f209050919050565b5f6020601f8301049050919050565b5f82821b905092915050565b5f600883026104587fffffffffffffffffffffffffffffffffffffffffffffffffffffffffffffffff8261041d565b610462868361041d565b95508019841693508086168417925050509392505050565b5f819050919050565b5f819050919050565b5f6104a66104a161049c8461047a565b610483565b61047a565b9050919050565b5f819050919050565b6104bf8361048c565b6104d36104cb826104ad565b848454610429565b825550505050565b5f90565b6104e76104db565b6104f28184846104b6565b505050565b5b818110156105155761050a5f826104df565b6001810190506104f8565b5050565b601f82111561055a5761052b816103fc565b6105348461040e565b81016020851015610543578190505b61055761054f8561040e565b8301826104f7565b50505b505050565b5f82821c905092915050565b5f61057a5f198460080261055f565b1980831691505092915050565b5f610592838361056b565b9150826002028217905092915050565b6105ab82610395565b67ffffffffffffffff8111156105c4576105c3610144565b5b6105ce82546103cc565b6105d9828285610519565b5f60209050601f83116001811461060a575f84156105f8578287015190505b6106028582610587565b865550610669565b601f198416610618866103fc565b5f5b8281101561063f5784890151825560018201915060208501945060208101905061061a565b8683101561065c5784890151610658601f89168261056b565b8355505b6001600288020188555050505b505050505050565b6109ac8061067e5f395ff3fe608060405234801561000f575f80fd5b5060043610610055575f3560e01c806361bc221a14610059578063670686f5146100775780638ada066e14610081578063e0d64b371461009f578063fbd8ca27146100cf575b5f80fd5b6100616100eb565b60405161006e91906102bc565b60405180910390f35b61007f6100f1565b005b610089610186565b60405161009691906102bc565b60405180910390f35b6100b960048036038101906100b49190610310565b61018f565b6040516100c691906103ab565b60405180910390f35b6100e960048036038101906100e491906105d9565b610234565b005b60015481565b5f5b5f80549050811015610183576001805461010d919061064d565b6001819055505f8060018154018082558091505060019003905f5260205f20015f6040518060400160405280600c81526020017f7075736865642076616c7565000000000000000000000000000000000000000081525090919091509081610175919061087a565b5080806001019150506100f3565b50565b5f600154905090565b5f818154811061019d575f80fd5b905f5260205f20015f9150905080546101b5906106ad565b80601f01602080910402602001604051908101604052809291908181526020018280546101e1906106ad565b801561022c5780601f106102035761010080835404028352916020019161022c565b820191905f5260205f20905b81548152906001019060200180831161020f57829003601f168201915b505050505081565b5f5b81518110156102a0576040518060400160405280600481526020017f6369616f0000000000000000000000000000000000000000000000000000000081525082828151811061028857610287610949565b5b60200260200101819052508080600101915050610236565b5050565b5f819050919050565b6102b6816102a4565b82525050565b5f6020820190506102cf5f8301846102ad565b92915050565b5f604051905090565b5f80fd5b5f80fd5b6102ef816102a4565b81146102f9575f80fd5b50565b5f8135905061030a816102e6565b92915050565b5f60208284031215610325576103246102de565b5b5f610332848285016102fc565b91505092915050565b5f81519050919050565b5f82825260208201905092915050565b8281835e5f83830152505050565b5f601f19601f8301169050919050565b5f61037d8261033b565b6103878185610345565b9350610397818560208601610355565b6103a081610363565b840191505092915050565b5f6020820190508181035f8301526103c38184610373565b905092915050565b5f80fd5b7f4e487b71000000000000000000000000000000000000000000000000000000005f52604160045260245ffd5b61040582610363565b810181811067ffffffffffffffff82111715610424576104236103cf565b5b80604052505050565b5f6104366102d5565b905061044282826103fc565b919050565b5f67ffffffffffffffff821115610461576104606103cf565b5b602082029050602081019050919050565b5f80fd5b5f80fd5b5f67ffffffffffffffff821115610494576104936103cf565b5b61049d82610363565b9050602081019050919050565b828183375f83830152505050565b5f6104ca6104c58461047a565b61042d565b9050828152602081018484840111156104e6576104e5610476565b5b6104f18482856104aa565b509392505050565b5f82601f83011261050d5761050c6103cb565b5b813561051d8482602086016104b8565b91505092915050565b5f61053861053384610447565b61042d565b9050808382526020820190506020840283018581111561055b5761055a610472565b5b835b818110156105a257803567ffffffffffffffff8111156105805761057f6103cb565b5b80860161058d89826104f9565b8552602085019450505060208101905061055d565b5050509392505050565b5f82601f8301126105c0576105bf6103cb565b5b81356105d0848260208601610526565b91505092915050565b5f602082840312156105ee576105ed6102de565b5b5f82013567ffffffffffffffff81111561060b5761060a6102e2565b5b610617848285016105ac565b91505092915050565b7f4e487b71000000000000000000000000000000000000000000000000000000005f52601160045260245ffd5b5f610657826102a4565b9150610662836102a4565b925082820190508082111561067a57610679610620565b5b92915050565b7f4e487b71000000000000000000000000000000000000000000000000000000005f52602260045260245ffd5b5f60028204905060018216806106c457607f821691505b6020821081036106d7576106d6610680565b5b50919050565b5f819050815f5260205f209050919050565b5f6020601f8301049050919050565b5f82821b905092915050565b5f600883026107397fffffffffffffffffffffffffffffffffffffffffffffffffffffffffffffffff826106fe565b61074386836106fe565b95508019841693508086168417925050509392505050565b5f819050919050565b5f61077e610779610774846102a4565b61075b565b6102a4565b9050919050565b5f819050919050565b61079783610764565b6107ab6107a382610785565b84845461070a565b825550505050565b5f90565b6107bf6107b3565b6107ca81848461078e565b505050565b5b818110156107ed576107e25f826107b7565b6001810190506107d0565b5050565b601f82111561083257610803816106dd565b61080c846106ef565b8101602085101561081b578190505b61082f610827856106ef565b8301826107cf565b50505b505050565b5f82821c905092915050565b5f6108525f1984600802610837565b1980831691505092915050565b5f61086a8383610843565b9150826002028217905092915050565b6108838261033b565b67ffffffffffffffff81111561089c5761089b6103cf565b5b6108a682546106ad565b6108b18282856107f1565b5f60209050601f8311600181146108e2575f84156108d0578287015190505b6108da858261085f565b865550610941565b601f1984166108f0866106dd565b5f5b82811015610917578489015182556001820191506020850194506020810190506108f2565b868310156109345784890151610930601f891682610843565b8355505b6001600288020188555050505b505050505050565b7f4e487b71000000000000000000000000000000000000000000000000000000005f52603260045260245ffdfea2646970667358221220a5d61704e6823988b765582395382cb70d0669c9939b20b7c8257fabd83772f064736f6c634300081a0033",
					"opcodes": "PUSH1 0x80 PUSH1 0x40 MSTORE CALLVALUE DUP1 ISZERO PUSH2 0xF JUMPI PUSH0 DUP1 REVERT JUMPDEST POP PUSH1 0x40 MLOAD PUSH2 0x102A CODESIZE SUB DUP1 PUSH2 0x102A DUP4 CODECOPY DUP2 DUP2 ADD PUSH1 0x40 MSTORE DUP2 ADD SWAP1 PUSH2 0x31 SWAP2 SWAP1 PUSH2 0x34E JUMP JUMPDEST DUP1 PUSH0 SWAP1 DUP1 MLOAD SWAP1 PUSH1 0x20 ADD SWAP1 PUSH2 0x46 SWAP3 SWAP2 SWAP1 PUSH2 0x4D JUMP JUMPDEST POP POP PUSH2 0x671 JUMP JUMPDEST DUP3 DUP1 SLOAD DUP3 DUP3 SSTORE SWAP1 PUSH0 MSTORE PUSH1 0x20 PUSH0 KECCAK256 SWAP1 DUP2 ADD SWAP3 DUP3 ISZERO PUSH2 0x93 JUMPI SWAP2 PUSH1 0x20 MUL DUP3 ADD JUMPDEST DUP3 DUP2 GT ISZERO PUSH2 0x92 JUMPI DUP3 MLOAD DUP3 SWAP1 DUP2 PUSH2 0x82 SWAP2 SWAP1 PUSH2 0x5A2 JUMP JUMPDEST POP SWAP2 PUSH1 0x20 ADD SWAP2 SWAP1 PUSH1 0x1 ADD SWAP1 PUSH2 0x6B JUMP JUMPDEST JUMPDEST POP SWAP1 POP PUSH2 0xA0 SWAP2 SWAP1 PUSH2 0xA4 JUMP JUMPDEST POP SWAP1 JUMP JUMPDEST JUMPDEST DUP1 DUP3 GT ISZERO PUSH2 0xC3 JUMPI PUSH0 DUP2 DUP2 PUSH2 0xBA SWAP2 SWAP1 PUSH2 0xC7 JUMP JUMPDEST POP PUSH1 0x1 ADD PUSH2 0xA5 JUMP JUMPDEST POP SWAP1 JUMP JUMPDEST POP DUP1 SLOAD PUSH2 0xD3 SWAP1 PUSH2 0x3CC JUMP JUMPDEST PUSH0 DUP3 SSTORE DUP1 PUSH1 0x1F LT PUSH2 0xE4 JUMPI POP PUSH2 0x101 JUMP JUMPDEST PUSH1 0x1F ADD PUSH1 0x20 SWAP1 DIV SWAP1 PUSH0 MSTORE PUSH1 0x20 PUSH0 KECCAK256 SWAP1 DUP2 ADD SWAP1 PUSH2 0x100 SWAP2 SWAP1 PUSH2 0x104 JUMP JUMPDEST JUMPDEST POP JUMP JUMPDEST JUMPDEST DUP1 DUP3 GT ISZERO PUSH2 0x11B JUMPI PUSH0 DUP2 PUSH0 SWAP1 SSTORE POP PUSH1 0x1 ADD PUSH2 0x105 JUMP JUMPDEST POP SWAP1 JUMP JUMPDEST PUSH0 PUSH1 0x40 MLOAD SWAP1 POP SWAP1 JUMP JUMPDEST PUSH0 DUP1 REVERT JUMPDEST PUSH0 DUP1 REVERT JUMPDEST PUSH0 DUP1 REVERT JUMPDEST PUSH0 PUSH1 0x1F NOT PUSH1 0x1F DUP4 ADD AND SWAP1 POP SWAP2 SWAP1 POP JUMP JUMPDEST PUSH32 0x4E487B7100000000000000000000000000000000000000000000000000000000 PUSH0 MSTORE PUSH1 0x41 PUSH1 0x4 MSTORE PUSH1 0x24 PUSH0 REVERT JUMPDEST PUSH2 0x17A DUP3 PUSH2 0x134 JUMP JUMPDEST DUP2 ADD DUP2 DUP2 LT PUSH8 0xFFFFFFFFFFFFFFFF DUP3 GT OR ISZERO PUSH2 0x199 JUMPI PUSH2 0x198 PUSH2 0x144 JUMP JUMPDEST JUMPDEST DUP1 PUSH1 0x40 MSTORE POP POP POP JUMP JUMPDEST PUSH0 PUSH2 0x1AB PUSH2 0x11F JUMP JUMPDEST SWAP1 POP PUSH2 0x1B7 DUP3 DUP3 PUSH2 0x171 JUMP JUMPDEST SWAP2 SWAP1 POP JUMP JUMPDEST PUSH0 PUSH8 0xFFFFFFFFFFFFFFFF DUP3 GT ISZERO PUSH2 0x1D6 JUMPI PUSH2 0x1D5 PUSH2 0x144 JUMP JUMPDEST JUMPDEST PUSH1 0x20 DUP3 MUL SWAP1 POP PUSH1 0x20 DUP2 ADD SWAP1 POP SWAP2 SWAP1 POP JUMP JUMPDEST PUSH0 DUP1 REVERT JUMPDEST PUSH0 DUP1 REVERT JUMPDEST PUSH0 PUSH8 0xFFFFFFFFFFFFFFFF DUP3 GT ISZERO PUSH2 0x209 JUMPI PUSH2 0x208 PUSH2 0x144 JUMP JUMPDEST JUMPDEST PUSH2 0x212 DUP3 PUSH2 0x134 JUMP JUMPDEST SWAP1 POP PUSH1 0x20 DUP2 ADD SWAP1 POP SWAP2 SWAP1 POP JUMP JUMPDEST DUP3 DUP2 DUP4 MCOPY PUSH0 DUP4 DUP4 ADD MSTORE POP POP POP JUMP JUMPDEST PUSH0 PUSH2 0x23F PUSH2 0x23A DUP5 PUSH2 0x1EF JUMP JUMPDEST PUSH2 0x1A2 JUMP JUMPDEST SWAP1 POP DUP3 DUP2 MSTORE PUSH1 0x20 DUP2 ADD DUP5 DUP5 DUP5 ADD GT ISZERO PUSH2 0x25B JUMPI PUSH2 0x25A PUSH2 0x1EB JUMP JUMPDEST JUMPDEST PUSH2 0x266 DUP5 DUP3 DUP6 PUSH2 0x21F JUMP JUMPDEST POP SWAP4 SWAP3 POP POP POP JUMP JUMPDEST PUSH0 DUP3 PUSH1 0x1F DUP4 ADD SLT PUSH2 0x282 JUMPI PUSH2 0x281 PUSH2 0x130 JUMP JUMPDEST JUMPDEST DUP2 MLOAD PUSH2 0x292 DUP5 DUP3 PUSH1 0x20 DUP7 ADD PUSH2 0x22D JUMP JUMPDEST SWAP2 POP POP SWAP3 SWAP2 POP POP JUMP JUMPDEST PUSH0 PUSH2 0x2AD PUSH2 0x2A8 DUP5 PUSH2 0x1BC JUMP JUMPDEST PUSH2 0x1A2 JUMP JUMPDEST SWAP1 POP DUP1 DUP4 DUP3 MSTORE PUSH1 0x20 DUP3 ADD SWAP1 POP PUSH1 0x20 DUP5 MUL DUP4 ADD DUP6 DUP2 GT ISZERO PUSH2 0x2D0 JUMPI PUSH2 0x2CF PUSH2 0x1E7 JUMP JUMPDEST JUMPDEST DUP4 JUMPDEST DUP2 DUP2 LT ISZERO PUSH2 0x317 JUMPI DUP1 MLOAD PUSH8 0xFFFFFFFFFFFFFFFF DUP2 GT ISZERO PUSH2 0x2F5 JUMPI PUSH2 0x2F4 PUSH2 0x130 JUMP JUMPDEST JUMPDEST DUP1 DUP7 ADD PUSH2 0x302 DUP10 DUP3 PUSH2 0x26E JUMP JUMPDEST DUP6 MSTORE PUSH1 0x20 DUP6 ADD SWAP5 POP POP POP PUSH1 0x20 DUP2 ADD SWAP1 POP PUSH2 0x2D2 JUMP JUMPDEST POP POP POP SWAP4 SWAP3 POP POP POP JUMP JUMPDEST PUSH0 DUP3 PUSH1 0x1F DUP4 ADD SLT PUSH2 0x335 JUMPI PUSH2 0x334 PUSH2 0x130 JUMP JUMPDEST JUMPDEST DUP2 MLOAD PUSH2 0x345 DUP5 DUP3 PUSH1 0x20 DUP7 ADD PUSH2 0x29B JUMP JUMPDEST SWAP2 POP POP SWAP3 SWAP2 POP POP JUMP JUMPDEST PUSH0 PUSH1 0x20 DUP3 DUP5 SUB SLT ISZERO PUSH2 0x363 JUMPI PUSH2 0x362 PUSH2 0x128 JUMP JUMPDEST JUMPDEST PUSH0 DUP3 ADD MLOAD PUSH8 0xFFFFFFFFFFFFFFFF DUP2 GT ISZERO PUSH2 0x380 JUMPI PUSH2 0x37F PUSH2 0x12C JUMP JUMPDEST JUMPDEST PUSH2 0x38C DUP5 DUP3 DUP6 ADD PUSH2 0x321 JUMP JUMPDEST SWAP2 POP POP SWAP3 SWAP2 POP POP JUMP JUMPDEST PUSH0 DUP2 MLOAD SWAP1 POP SWAP2 SWAP1 POP JUMP JUMPDEST PUSH32 0x4E487B7100000000000000000000000000000000000000000000000000000000 PUSH0 MSTORE PUSH1 0x22 PUSH1 0x4 MSTORE PUSH1 0x24 PUSH0 REVERT JUMPDEST PUSH0 PUSH1 0x2 DUP3 DIV SWAP1 POP PUSH1 0x1 DUP3 AND DUP1 PUSH2 0x3E3 JUMPI PUSH1 0x7F DUP3 AND SWAP2 POP JUMPDEST PUSH1 0x20 DUP3 LT DUP2 SUB PUSH2 0x3F6 JUMPI PUSH2 0x3F5 PUSH2 0x39F JUMP JUMPDEST JUMPDEST POP SWAP2 SWAP1 POP JUMP JUMPDEST PUSH0 DUP2 SWAP1 POP DUP2 PUSH0 MSTORE PUSH1 0x20 PUSH0 KECCAK256 SWAP1 POP SWAP2 SWAP1 POP JUMP JUMPDEST PUSH0 PUSH1 0x20 PUSH1 0x1F DUP4 ADD DIV SWAP1 POP SWAP2 SWAP1 POP JUMP JUMPDEST PUSH0 DUP3 DUP3 SHL SWAP1 POP SWAP3 SWAP2 POP POP JUMP JUMPDEST PUSH0 PUSH1 0x8 DUP4 MUL PUSH2 0x458 PUSH32 0xFFFFFFFFFFFFFFFFFFFFFFFFFFFFFFFFFFFFFFFFFFFFFFFFFFFFFFFFFFFFFFFF DUP3 PUSH2 0x41D JUMP JUMPDEST PUSH2 0x462 DUP7 DUP4 PUSH2 0x41D JUMP JUMPDEST SWAP6 POP DUP1 NOT DUP5 AND SWAP4 POP DUP1 DUP7 AND DUP5 OR SWAP3 POP POP POP SWAP4 SWAP3 POP POP POP JUMP JUMPDEST PUSH0 DUP2 SWAP1 POP SWAP2 SWAP1 POP JUMP JUMPDEST PUSH0 DUP2 SWAP1 POP SWAP2 SWAP1 POP JUMP JUMPDEST PUSH0 PUSH2 0x4A6 PUSH2 0x4A1 PUSH2 0x49C DUP5 PUSH2 0x47A JUMP JUMPDEST PUSH2 0x483 JUMP JUMPDEST PUSH2 0x47A JUMP JUMPDEST SWAP1 POP SWAP2 SWAP1 POP JUMP JUMPDEST PUSH0 DUP2 SWAP1 POP SWAP2 SWAP1 POP JUMP JUMPDEST PUSH2 0x4BF DUP4 PUSH2 0x48C JUMP JUMPDEST PUSH2 0x4D3 PUSH2 0x4CB DUP3 PUSH2 0x4AD JUMP JUMPDEST DUP5 DUP5 SLOAD PUSH2 0x429 JUMP JUMPDEST DUP3 SSTORE POP POP POP POP JUMP JUMPDEST PUSH0 SWAP1 JUMP JUMPDEST PUSH2 0x4E7 PUSH2 0x4DB JUMP JUMPDEST PUSH2 0x4F2 DUP2 DUP5 DUP5 PUSH2 0x4B6 JUMP JUMPDEST POP POP POP JUMP JUMPDEST JUMPDEST DUP2 DUP2 LT ISZERO PUSH2 0x515 JUMPI PUSH2 0x50A PUSH0 DUP3 PUSH2 0x4DF JUMP JUMPDEST PUSH1 0x1 DUP2 ADD SWAP1 POP PUSH2 0x4F8 JUMP JUMPDEST POP POP JUMP JUMPDEST PUSH1 0x1F DUP3 GT ISZERO PUSH2 0x55A JUMPI PUSH2 0x52B DUP2 PUSH2 0x3FC JUMP JUMPDEST PUSH2 0x534 DUP5 PUSH2 0x40E JUMP JUMPDEST DUP2 ADD PUSH1 0x20 DUP6 LT ISZERO PUSH2 0x543 JUMPI DUP2 SWAP1 POP JUMPDEST PUSH2 0x557 PUSH2 0x54F DUP6 PUSH2 0x40E JUMP JUMPDEST DUP4 ADD DUP3 PUSH2 0x4F7 JUMP JUMPDEST POP POP JUMPDEST POP POP POP JUMP JUMPDEST PUSH0 DUP3 DUP3 SHR SWAP1 POP SWAP3 SWAP2 POP POP JUMP JUMPDEST PUSH0 PUSH2 0x57A PUSH0 NOT DUP5 PUSH1 0x8 MUL PUSH2 0x55F JUMP JUMPDEST NOT DUP1 DUP4 AND SWAP2 POP POP SWAP3 SWAP2 POP POP JUMP JUMPDEST PUSH0 PUSH2 0x592 DUP4 DUP4 PUSH2 0x56B JUMP JUMPDEST SWAP2 POP DUP3 PUSH1 0x2 MUL DUP3 OR SWAP1 POP SWAP3 SWAP2 POP POP JUMP JUMPDEST PUSH2 0x5AB DUP3 PUSH2 0x395 JUMP JUMPDEST PUSH8 0xFFFFFFFFFFFFFFFF DUP2 GT ISZERO PUSH2 0x5C4 JUMPI PUSH2 0x5C3 PUSH2 0x144 JUMP JUMPDEST JUMPDEST PUSH2 0x5CE DUP3 SLOAD PUSH2 0x3CC JUMP JUMPDEST PUSH2 0x5D9 DUP3 DUP3 DUP6 PUSH2 0x519 JUMP JUMPDEST PUSH0 PUSH1 0x20 SWAP1 POP PUSH1 0x1F DUP4 GT PUSH1 0x1 DUP2 EQ PUSH2 0x60A JUMPI PUSH0 DUP5 ISZERO PUSH2 0x5F8 JUMPI DUP3 DUP8 ADD MLOAD SWAP1 POP JUMPDEST PUSH2 0x602 DUP6 DUP3 PUSH2 0x587 JUMP JUMPDEST DUP7 SSTORE POP PUSH2 0x669 JUMP JUMPDEST PUSH1 0x1F NOT DUP5 AND PUSH2 0x618 DUP7 PUSH2 0x3FC JUMP JUMPDEST PUSH0 JUMPDEST DUP3 DUP2 LT ISZERO PUSH2 0x63F JUMPI DUP5 DUP10 ADD MLOAD DUP3 SSTORE PUSH1 0x1 DUP3 ADD SWAP2 POP PUSH1 0x20 DUP6 ADD SWAP5 POP PUSH1 0x20 DUP2 ADD SWAP1 POP PUSH2 0x61A JUMP JUMPDEST DUP7 DUP4 LT ISZERO PUSH2 0x65C JUMPI DUP5 DUP10 ADD MLOAD PUSH2 0x658 PUSH1 0x1F DUP10 AND DUP3 PUSH2 0x56B JUMP JUMPDEST DUP4 SSTORE POP JUMPDEST PUSH1 0x1 PUSH1 0x2 DUP9 MUL ADD DUP9 SSTORE POP POP POP JUMPDEST POP POP POP POP POP POP JUMP JUMPDEST PUSH2 0x9AC DUP1 PUSH2 0x67E PUSH0 CODECOPY PUSH0 RETURN INVALID PUSH1 0x80 PUSH1 0x40 MSTORE CALLVALUE DUP1 ISZERO PUSH2 0xF JUMPI PUSH0 DUP1 REVERT JUMPDEST POP PUSH1 0x4 CALLDATASIZE LT PUSH2 0x55 JUMPI PUSH0 CALLDATALOAD PUSH1 0xE0 SHR DUP1 PUSH4 0x61BC221A EQ PUSH2 0x59 JUMPI DUP1 PUSH4 0x670686F5 EQ PUSH2 0x77 JUMPI DUP1 PUSH4 0x8ADA066E EQ PUSH2 0x81 JUMPI DUP1 PUSH4 0xE0D64B37 EQ PUSH2 0x9F JUMPI DUP1 PUSH4 0xFBD8CA27 EQ PUSH2 0xCF JUMPI JUMPDEST PUSH0 DUP1 REVERT JUMPDEST PUSH2 0x61 PUSH2 0xEB JUMP JUMPDEST PUSH1 0x40 MLOAD PUSH2 0x6E SWAP2 SWAP1 PUSH2 0x2BC JUMP JUMPDEST PUSH1 0x40 MLOAD DUP1 SWAP2 SUB SWAP1 RETURN JUMPDEST PUSH2 0x7F PUSH2 0xF1 JUMP JUMPDEST STOP JUMPDEST PUSH2 0x89 PUSH2 0x186 JUMP JUMPDEST PUSH1 0x40 MLOAD PUSH2 0x96 SWAP2 SWAP1 PUSH2 0x2BC JUMP JUMPDEST PUSH1 0x40 MLOAD DUP1 SWAP2 SUB SWAP1 RETURN JUMPDEST PUSH2 0xB9 PUSH1 0x4 DUP1 CALLDATASIZE SUB DUP2 ADD SWAP1 PUSH2 0xB4 SWAP2 SWAP1 PUSH2 0x310 JUMP JUMPDEST PUSH2 0x18F JUMP JUMPDEST PUSH1 0x40 MLOAD PUSH2 0xC6 SWAP2 SWAP1 PUSH2 0x3AB JUMP JUMPDEST PUSH1 0x40 MLOAD DUP1 SWAP2 SUB SWAP1 RETURN JUMPDEST PUSH2 0xE9 PUSH1 0x4 DUP1 CALLDATASIZE SUB DUP2 ADD SWAP1 PUSH2 0xE4 SWAP2 SWAP1 PUSH2 0x5D9 JUMP JUMPDEST PUSH2 0x234 JUMP JUMPDEST STOP JUMPDEST PUSH1 0x1 SLOAD DUP2 JUMP JUMPDEST PUSH0 JUMPDEST PUSH0 DUP1 SLOAD SWAP1 POP DUP2 LT ISZERO PUSH2 0x183 JUMPI PUSH1 0x1 DUP1 SLOAD PUSH2 0x10D SWAP2 SWAP1 PUSH2 0x64D JUMP JUMPDEST PUSH1 0x1 DUP2 SWAP1 SSTORE POP PUSH0 DUP1 PUSH1 0x1 DUP2 SLOAD ADD DUP1 DUP3 SSTORE DUP1 SWAP2 POP POP PUSH1 0x1 SWAP1 SUB SWAP1 PUSH0 MSTORE PUSH1 0x20 PUSH0 KECCAK256 ADD PUSH0 PUSH1 0x40 MLOAD DUP1 PUSH1 0x40 ADD PUSH1 0x40 MSTORE DUP1 PUSH1 0xC DUP2 MSTORE PUSH1 0x20 ADD PUSH32 0x7075736865642076616C75650000000000000000000000000000000000000000 DUP2 MSTORE POP SWAP1 SWAP2 SWAP1 SWAP2 POP SWAP1 DUP2 PUSH2 0x175 SWAP2 SWAP1 PUSH2 0x87A JUMP JUMPDEST POP DUP1 DUP1 PUSH1 0x1 ADD SWAP2 POP POP PUSH2 0xF3 JUMP JUMPDEST POP JUMP JUMPDEST PUSH0 PUSH1 0x1 SLOAD SWAP1 POP SWAP1 JUMP JUMPDEST PUSH0 DUP2 DUP2 SLOAD DUP2 LT PUSH2 0x19D JUMPI PUSH0 DUP1 REVERT JUMPDEST SWAP1 PUSH0 MSTORE PUSH1 0x20 PUSH0 KECCAK256 ADD PUSH0 SWAP2 POP SWAP1 POP DUP1 SLOAD PUSH2 0x1B5 SWAP1 PUSH2 0x6AD JUMP JUMPDEST DUP1 PUSH1 0x1F ADD PUSH1 0x20 DUP1 SWAP2 DIV MUL PUSH1 0x20 ADD PUSH1 0x40 MLOAD SWAP1 DUP2 ADD PUSH1 0x40 MSTORE DUP1 SWAP3 SWAP2 SWAP1 DUP2 DUP2 MSTORE PUSH1 0x20 ADD DUP3 DUP1 SLOAD PUSH2 0x1E1 SWAP1 PUSH2 0x6AD JUMP JUMPDEST DUP1 ISZERO PUSH2 0x22C JUMPI DUP1 PUSH1 0x1F LT PUSH2 0x203 JUMPI PUSH2 0x100 DUP1 DUP4 SLOAD DIV MUL DUP4 MSTORE SWAP2 PUSH1 0x20 ADD SWAP2 PUSH2 0x22C JUMP JUMPDEST DUP3 ADD SWAP2 SWAP1 PUSH0 MSTORE PUSH1 0x20 PUSH0 KECCAK256 SWAP1 JUMPDEST DUP2 SLOAD DUP2 MSTORE SWAP1 PUSH1 0x1 ADD SWAP1 PUSH1 0x20 ADD DUP1 DUP4 GT PUSH2 0x20F JUMPI DUP3 SWAP1 SUB PUSH1 0x1F AND DUP3 ADD SWAP2 JUMPDEST POP POP POP POP POP DUP2 JUMP JUMPDEST PUSH0 JUMPDEST DUP2 MLOAD DUP2 LT ISZERO PUSH2 0x2A0 JUMPI PUSH1 0x40 MLOAD DUP1 PUSH1 0x40 ADD PUSH1 0x40 MSTORE DUP1 PUSH1 0x4 DUP2 MSTORE PUSH1 0x20 ADD PUSH32 0x6369616F00000000000000000000000000000000000000000000000000000000 DUP2 MSTORE POP DUP3 DUP3 DUP2 MLOAD DUP2 LT PUSH2 0x288 JUMPI PUSH2 0x287 PUSH2 0x949 JUMP JUMPDEST JUMPDEST PUSH1 0x20 MUL PUSH1 0x20 ADD ADD DUP2 SWAP1 MSTORE POP DUP1 DUP1 PUSH1 0x1 ADD SWAP2 POP POP PUSH2 0x236 JUMP JUMPDEST POP POP JUMP JUMPDEST PUSH0 DUP2 SWAP1 POP SWAP2 SWAP1 POP JUMP JUMPDEST PUSH2 0x2B6 DUP2 PUSH2 0x2A4 JUMP JUMPDEST DUP3 MSTORE POP POP JUMP JUMPDEST PUSH0 PUSH1 0x20 DUP3 ADD SWAP1 POP PUSH2 0x2CF PUSH0 DUP4 ADD DUP5 PUSH2 0x2AD JUMP JUMPDEST SWAP3 SWAP2 POP POP JUMP JUMPDEST PUSH0 PUSH1 0x40 MLOAD SWAP1 POP SWAP1 JUMP JUMPDEST PUSH0 DUP1 REVERT JUMPDEST PUSH0 DUP1 REVERT JUMPDEST PUSH2 0x2EF DUP2 PUSH2 0x2A4 JUMP JUMPDEST DUP2 EQ PUSH2 0x2F9 JUMPI PUSH0 DUP1 REVERT JUMPDEST POP JUMP JUMPDEST PUSH0 DUP2 CALLDATALOAD SWAP1 POP PUSH2 0x30A DUP2 PUSH2 0x2E6 JUMP JUMPDEST SWAP3 SWAP2 POP POP JUMP JUMPDEST PUSH0 PUSH1 0x20 DUP3 DUP5 SUB SLT ISZERO PUSH2 0x325 JUMPI PUSH2 0x324 PUSH2 0x2DE JUMP JUMPDEST JUMPDEST PUSH0 PUSH2 0x332 DUP5 DUP3 DUP6 ADD PUSH2 0x2FC JUMP JUMPDEST SWAP2 POP POP SWAP3 SWAP2 POP POP JUMP JUMPDEST PUSH0 DUP2 MLOAD SWAP1 POP SWAP2 SWAP1 POP JUMP JUMPDEST PUSH0 DUP3 DUP3 MSTORE PUSH1 0x20 DUP3 ADD SWAP1 POP SWAP3 SWAP2 POP POP JUMP JUMPDEST DUP3 DUP2 DUP4 MCOPY PUSH0 DUP4 DUP4 ADD MSTORE POP POP POP JUMP JUMPDEST PUSH0 PUSH1 0x1F NOT PUSH1 0x1F DUP4 ADD AND SWAP1 POP SWAP2 SWAP1 POP JUMP JUMPDEST PUSH0 PUSH2 0x37D DUP3 PUSH2 0x33B JUMP JUMPDEST PUSH2 0x387 DUP2 DUP6 PUSH2 0x345 JUMP JUMPDEST SWAP4 POP PUSH2 0x397 DUP2 DUP6 PUSH1 0x20 DUP7 ADD PUSH2 0x355 JUMP JUMPDEST PUSH2 0x3A0 DUP2 PUSH2 0x363 JUMP JUMPDEST DUP5 ADD SWAP2 POP POP SWAP3 SWAP2 POP POP JUMP JUMPDEST PUSH0 PUSH1 0x20 DUP3 ADD SWAP1 POP DUP2 DUP2 SUB PUSH0 DUP4 ADD MSTORE PUSH2 0x3C3 DUP2 DUP5 PUSH2 0x373 JUMP JUMPDEST SWAP1 POP SWAP3 SWAP2 POP POP JUMP JUMPDEST PUSH0 DUP1 REVERT JUMPDEST PUSH32 0x4E487B7100000000000000000000000000000000000000000000000000000000 PUSH0 MSTORE PUSH1 0x41 PUSH1 0x4 MSTORE PUSH1 0x24 PUSH0 REVERT JUMPDEST PUSH2 0x405 DUP3 PUSH2 0x363 JUMP JUMPDEST DUP2 ADD DUP2 DUP2 LT PUSH8 0xFFFFFFFFFFFFFFFF DUP3 GT OR ISZERO PUSH2 0x424 JUMPI PUSH2 0x423 PUSH2 0x3CF JUMP JUMPDEST JUMPDEST DUP1 PUSH1 0x40 MSTORE POP POP POP JUMP JUMPDEST PUSH0 PUSH2 0x436 PUSH2 0x2D5 JUMP JUMPDEST SWAP1 POP PUSH2 0x442 DUP3 DUP3 PUSH2 0x3FC JUMP JUMPDEST SWAP2 SWAP1 POP JUMP JUMPDEST PUSH0 PUSH8 0xFFFFFFFFFFFFFFFF DUP3 GT ISZERO PUSH2 0x461 JUMPI PUSH2 0x460 PUSH2 0x3CF JUMP JUMPDEST JUMPDEST PUSH1 0x20 DUP3 MUL SWAP1 POP PUSH1 0x20 DUP2 ADD SWAP1 POP SWAP2 SWAP1 POP JUMP JUMPDEST PUSH0 DUP1 REVERT JUMPDEST PUSH0 DUP1 REVERT JUMPDEST PUSH0 PUSH8 0xFFFFFFFFFFFFFFFF DUP3 GT ISZERO PUSH2 0x494 JUMPI PUSH2 0x493 PUSH2 0x3CF JUMP JUMPDEST JUMPDEST PUSH2 0x49D DUP3 PUSH2 0x363 JUMP JUMPDEST SWAP1 POP PUSH1 0x20 DUP2 ADD SWAP1 POP SWAP2 SWAP1 POP JUMP JUMPDEST DUP3 DUP2 DUP4 CALLDATACOPY PUSH0 DUP4 DUP4 ADD MSTORE POP POP POP JUMP JUMPDEST PUSH0 PUSH2 0x4CA PUSH2 0x4C5 DUP5 PUSH2 0x47A JUMP JUMPDEST PUSH2 0x42D JUMP JUMPDEST SWAP1 POP DUP3 DUP2 MSTORE PUSH1 0x20 DUP2 ADD DUP5 DUP5 DUP5 ADD GT ISZERO PUSH2 0x4E6 JUMPI PUSH2 0x4E5 PUSH2 0x476 JUMP JUMPDEST JUMPDEST PUSH2 0x4F1 DUP5 DUP3 DUP6 PUSH2 0x4AA JUMP JUMPDEST POP SWAP4 SWAP3 POP POP POP JUMP JUMPDEST PUSH0 DUP3 PUSH1 0x1F DUP4 ADD SLT PUSH2 0x50D JUMPI PUSH2 0x50C PUSH2 0x3CB JUMP JUMPDEST JUMPDEST DUP2 CALLDATALOAD PUSH2 0x51D DUP5 DUP3 PUSH1 0x20 DUP7 ADD PUSH2 0x4B8 JUMP JUMPDEST SWAP2 POP POP SWAP3 SWAP2 POP POP JUMP JUMPDEST PUSH0 PUSH2 0x538 PUSH2 0x533 DUP5 PUSH2 0x447 JUMP JUMPDEST PUSH2 0x42D JUMP JUMPDEST SWAP1 POP DUP1 DUP4 DUP3 MSTORE PUSH1 0x20 DUP3 ADD SWAP1 POP PUSH1 0x20 DUP5 MUL DUP4 ADD DUP6 DUP2 GT ISZERO PUSH2 0x55B JUMPI PUSH2 0x55A PUSH2 0x472 JUMP JUMPDEST JUMPDEST DUP4 JUMPDEST DUP2 DUP2 LT ISZERO PUSH2 0x5A2 JUMPI DUP1 CALLDATALOAD PUSH8 0xFFFFFFFFFFFFFFFF DUP2 GT ISZERO PUSH2 0x580 JUMPI PUSH2 0x57F PUSH2 0x3CB JUMP JUMPDEST JUMPDEST DUP1 DUP7 ADD PUSH2 0x58D DUP10 DUP3 PUSH2 0x4F9 JUMP JUMPDEST DUP6 MSTORE PUSH1 0x20 DUP6 ADD SWAP5 POP POP POP PUSH1 0x20 DUP2 ADD SWAP1 POP PUSH2 0x55D JUMP JUMPDEST POP POP POP SWAP4 SWAP3 POP POP POP JUMP JUMPDEST PUSH0 DUP3 PUSH1 0x1F DUP4 ADD SLT PUSH2 0x5C0 JUMPI PUSH2 0x5BF PUSH2 0x3CB JUMP JUMPDEST JUMPDEST DUP2 CALLDATALOAD PUSH2 0x5D0 DUP5 DUP3 PUSH1 0x20 DUP7 ADD PUSH2 0x526 JUMP JUMPDEST SWAP2 POP POP SWAP3 SWAP2 POP POP JUMP JUMPDEST PUSH0 PUSH1 0x20 DUP3 DUP5 SUB SLT ISZERO PUSH2 0x5EE JUMPI PUSH2 0x5ED PUSH2 0x2DE JUMP JUMPDEST JUMPDEST PUSH0 DUP3 ADD CALLDATALOAD PUSH8 0xFFFFFFFFFFFFFFFF DUP2 GT ISZERO PUSH2 0x60B JUMPI PUSH2 0x60A PUSH2 0x2E2 JUMP JUMPDEST JUMPDEST PUSH2 0x617 DUP5 DUP3 DUP6 ADD PUSH2 0x5AC JUMP JUMPDEST SWAP2 POP POP SWAP3 SWAP2 POP POP JUMP JUMPDEST PUSH32 0x4E487B7100000000000000000000000000000000000000000000000000000000 PUSH0 MSTORE PUSH1 0x11 PUSH1 0x4 MSTORE PUSH1 0x24 PUSH0 REVERT JUMPDEST PUSH0 PUSH2 0x657 DUP3 PUSH2 0x2A4 JUMP JUMPDEST SWAP2 POP PUSH2 0x662 DUP4 PUSH2 0x2A4 JUMP JUMPDEST SWAP3 POP DUP3 DUP3 ADD SWAP1 POP DUP1 DUP3 GT ISZERO PUSH2 0x67A JUMPI PUSH2 0x679 PUSH2 0x620 JUMP JUMPDEST JUMPDEST SWAP3 SWAP2 POP POP JUMP JUMPDEST PUSH32 0x4E487B7100000000000000000000000000000000000000000000000000000000 PUSH0 MSTORE PUSH1 0x22 PUSH1 0x4 MSTORE PUSH1 0x24 PUSH0 REVERT JUMPDEST PUSH0 PUSH1 0x2 DUP3 DIV SWAP1 POP PUSH1 0x1 DUP3 AND DUP1 PUSH2 0x6C4 JUMPI PUSH1 0x7F DUP3 AND SWAP2 POP JUMPDEST PUSH1 0x20 DUP3 LT DUP2 SUB PUSH2 0x6D7 JUMPI PUSH2 0x6D6 PUSH2 0x680 JUMP JUMPDEST JUMPDEST POP SWAP2 SWAP1 POP JUMP JUMPDEST PUSH0 DUP2 SWAP1 POP DUP2 PUSH0 MSTORE PUSH1 0x20 PUSH0 KECCAK256 SWAP1 POP SWAP2 SWAP1 POP JUMP JUMPDEST PUSH0 PUSH1 0x20 PUSH1 0x1F DUP4 ADD DIV SWAP1 POP SWAP2 SWAP1 POP JUMP JUMPDEST PUSH0 DUP3 DUP3 SHL SWAP1 POP SWAP3 SWAP2 POP POP JUMP JUMPDEST PUSH0 PUSH1 0x8 DUP4 MUL PUSH2 0x739 PUSH32 0xFFFFFFFFFFFFFFFFFFFFFFFFFFFFFFFFFFFFFFFFFFFFFFFFFFFFFFFFFFFFFFFF DUP3 PUSH2 0x6FE JUMP JUMPDEST PUSH2 0x743 DUP7 DUP4 PUSH2 0x6FE JUMP JUMPDEST SWAP6 POP DUP1 NOT DUP5 AND SWAP4 POP DUP1 DUP7 AND DUP5 OR SWAP3 POP POP POP SWAP4 SWAP3 POP POP POP JUMP JUMPDEST PUSH0 DUP2 SWAP1 POP SWAP2 SWAP1 POP JUMP JUMPDEST PUSH0 PUSH2 0x77E PUSH2 0x779 PUSH2 0x774 DUP5 PUSH2 0x2A4 JUMP JUMPDEST PUSH2 0x75B JUMP JUMPDEST PUSH2 0x2A4 JUMP JUMPDEST SWAP1 POP SWAP2 SWAP1 POP JUMP JUMPDEST PUSH0 DUP2 SWAP1 POP SWAP2 SWAP1 POP JUMP JUMPDEST PUSH2 0x797 DUP4 PUSH2 0x764 JUMP JUMPDEST PUSH2 0x7AB PUSH2 0x7A3 DUP3 PUSH2 0x785 JUMP JUMPDEST DUP5 DUP5 SLOAD PUSH2 0x70A JUMP JUMPDEST DUP3 SSTORE POP POP POP POP JUMP JUMPDEST PUSH0 SWAP1 JUMP JUMPDEST PUSH2 0x7BF PUSH2 0x7B3 JUMP JUMPDEST PUSH2 0x7CA DUP2 DUP5 DUP5 PUSH2 0x78E JUMP JUMPDEST POP POP POP JUMP JUMPDEST JUMPDEST DUP2 DUP2 LT ISZERO PUSH2 0x7ED JUMPI PUSH2 0x7E2 PUSH0 DUP3 PUSH2 0x7B7 JUMP JUMPDEST PUSH1 0x1 DUP2 ADD SWAP1 POP PUSH2 0x7D0 JUMP JUMPDEST POP POP JUMP JUMPDEST PUSH1 0x1F DUP3 GT ISZERO PUSH2 0x832 JUMPI PUSH2 0x803 DUP2 PUSH2 0x6DD JUMP JUMPDEST PUSH2 0x80C DUP5 PUSH2 0x6EF JUMP JUMPDEST DUP2 ADD PUSH1 0x20 DUP6 LT ISZERO PUSH2 0x81B JUMPI DUP2 SWAP1 POP JUMPDEST PUSH2 0x82F PUSH2 0x827 DUP6 PUSH2 0x6EF JUMP JUMPDEST DUP4 ADD DUP3 PUSH2 0x7CF JUMP JUMPDEST POP POP JUMPDEST POP POP POP JUMP JUMPDEST PUSH0 DUP3 DUP3 SHR SWAP1 POP SWAP3 SWAP2 POP POP JUMP JUMPDEST PUSH0 PUSH2 0x852 PUSH0 NOT DUP5 PUSH1 0x8 MUL PUSH2 0x837 JUMP JUMPDEST NOT DUP1 DUP4 AND SWAP2 POP POP SWAP3 SWAP2 POP POP JUMP JUMPDEST PUSH0 PUSH2 0x86A DUP4 DUP4 PUSH2 0x843 JUMP JUMPDEST SWAP2 POP DUP3 PUSH1 0x2 MUL DUP3 OR SWAP1 POP SWAP3 SWAP2 POP POP JUMP JUMPDEST PUSH2 0x883 DUP3 PUSH2 0x33B JUMP JUMPDEST PUSH8 0xFFFFFFFFFFFFFFFF DUP2 GT ISZERO PUSH2 0x89C JUMPI PUSH2 0x89B PUSH2 0x3CF JUMP JUMPDEST JUMPDEST PUSH2 0x8A6 DUP3 SLOAD PUSH2 0x6AD JUMP JUMPDEST PUSH2 0x8B1 DUP3 DUP3 DUP6 PUSH2 0x7F1 JUMP JUMPDEST PUSH0 PUSH1 0x20 SWAP1 POP PUSH1 0x1F DUP4 GT PUSH1 0x1 DUP2 EQ PUSH2 0x8E2 JUMPI PUSH0 DUP5 ISZERO PUSH2 0x8D0 JUMPI DUP3 DUP8 ADD MLOAD SWAP1 POP JUMPDEST PUSH2 0x8DA DUP6 DUP3 PUSH2 0x85F JUMP JUMPDEST DUP7 SSTORE POP PUSH2 0x941 JUMP JUMPDEST PUSH1 0x1F NOT DUP5 AND PUSH2 0x8F0 DUP7 PUSH2 0x6DD JUMP JUMPDEST PUSH0 JUMPDEST DUP3 DUP2 LT ISZERO PUSH2 0x917 JUMPI DUP5 DUP10 ADD MLOAD DUP3 SSTORE PUSH1 0x1 DUP3 ADD SWAP2 POP PUSH1 0x20 DUP6 ADD SWAP5 POP PUSH1 0x20 DUP2 ADD SWAP1 POP PUSH2 0x8F2 JUMP JUMPDEST DUP7 DUP4 LT ISZERO PUSH2 0x934 JUMPI DUP5 DUP10 ADD MLOAD PUSH2 0x930 PUSH1 0x1F DUP10 AND DUP3 PUSH2 0x843 JUMP JUMPDEST DUP4 SSTORE POP JUMPDEST PUSH1 0x1 PUSH1 0x2 DUP9 MUL ADD DUP9 SSTORE POP POP POP JUMPDEST POP POP POP POP POP POP JUMP JUMPDEST PUSH32 0x4E487B7100000000000000000000000000000000000000000000000000000000 PUSH0 MSTORE PUSH1 0x32 PUSH1 0x4 MSTORE PUSH1 0x24 PUSH0 REVERT INVALID LOG2 PUSH5 0x6970667358 0x22 SLT KECCAK256 0xA5 0xD6 OR DIV 0xE6 DUP3 CODECOPY DUP9 0xB7 PUSH6 0x582395382CB7 0xD MOD PUSH10 0xC9939B20B7C8257FABD8 CALLDATACOPY PUSH19 0xF064736F6C634300081A003300000000000000 "
				},
				"gasEstimates": {
					"creation": {
						"codeDepositCost": "495200",
						"executionCost": "infinite",
						"totalCost": "infinite"
					},
					"external": {
						"counter()": "2403",
						"elements(uint256)": "infinite",
						"getCounter()": "2454",
						"loopWhatever()": "infinite",
						"loopWhateverInMemory(string[])": "infinite"
					}
				},
				"methodIdentifiers": {
					"counter()": "61bc221a",
					"elements(uint256)": "e0d64b37",
					"getCounter()": "8ada066e",
					"loopWhatever()": "670686f5",
					"loopWhateverInMemory(string[])": "fbd8ca27"
				}
			},
			"storageLayout": {
				"storage": [
					{
						"astId": 5,
						"contract": "contracts/5_Loops.sol:Loops",
						"label": "elements",
						"offset": 0,
						"slot": "0",
						"type": "t_array(t_string_storage)dyn_storage"
					},
					{
						"astId": 7,
						"contract": "contracts/5_Loops.sol:Loops",
						"label": "counter",
						"offset": 0,
						"slot": "1",
						"type": "t_uint256"
					}
				],
				"types": {
					"t_array(t_string_storage)dyn_storage": {
						"base": "t_string_storage",
						"encoding": "dynamic_array",
						"label": "string[]",
						"numberOfBytes": "32"
					},
					"t_string_storage": {
						"encoding": "bytes",
						"label": "string",
						"numberOfBytes": "32"
					},
					"t_uint256": {
						"encoding": "inplace",
						"label": "uint256",
						"numberOfBytes": "32"
					}
				}
			},
			"userdoc": {
				"kind": "user",
				"methods": {},
				"notice": "Create a contract that has an array. initialize the array and loop trough its values",
				"version": 1
			}
		}
	}
}